{
	"AsistenciaClase.sol": {
		"CertificadoAsistencia": {
			"abi": [
				{
					"inputs": [
						{
							"internalType": "string",
							"name": "nombreE",
							"type": "string"
						},
						{
							"internalType": "string",
							"name": "nombreC",
							"type": "string"
						},
						{
							"internalType": "uint256",
							"name": "codigoE",
							"type": "uint256"
						},
						{
							"internalType": "uint256",
							"name": "fechaP",
							"type": "uint256"
						}
					],
					"stateMutability": "nonpayable",
					"type": "constructor"
				},
				{
					"inputs": [
						{
							"internalType": "uint256",
							"name": "codigoE",
							"type": "uint256"
						}
					],
					"name": "cosultarCertificado",
					"outputs": [
						{
							"internalType": "bool",
							"name": "",
							"type": "bool"
						}
					],
					"stateMutability": "view",
					"type": "function"
				},
				{
					"inputs": [
						{
							"internalType": "string",
							"name": "nombreE",
							"type": "string"
						},
						{
							"internalType": "string",
							"name": "nombreC",
							"type": "string"
						},
						{
							"internalType": "uint256",
							"name": "codigoE",
							"type": "uint256"
						},
						{
							"internalType": "uint256",
							"name": "fechaP",
							"type": "uint256"
						}
					],
					"name": "guardarCertificado",
					"outputs": [],
					"stateMutability": "nonpayable",
					"type": "function"
				}
			],
			"devdoc": {
				"kind": "dev",
				"methods": {},
				"version": 1
			},
			"evm": {
				"assembly": "    /* \"AsistenciaClase.sol\":27:889  contract CertificadoAsistencia  {\r... */\n  mstore(0x40, 0x80)\n    /* \"AsistenciaClase.sol\":226:518  constructor(string memory nombreE, string memory nombreC, uint codigoE, uint fechaP) public {\r... */\n  callvalue\n  dup1\n  iszero\n  tag_1\n  jumpi\n  0x00\n  dup1\n  revert\ntag_1:\n  pop\n  mload(0x40)\n  sub(codesize, bytecodeSize)\n  dup1\n  bytecodeSize\n  dup4\n  codecopy\n  dup2\n  dup2\n  add\n  0x40\n  mstore\n  dup2\n  add\n  swap1\n  tag_2\n  swap2\n  swap1\n  tag_3\n  jump\t// in\ntag_2:\n    /* \"AsistenciaClase.sol\":358:365  nombreE */\n  dup4\n    /* \"AsistenciaClase.sol\":329:336  alumnos */\n  0x00\n    /* \"AsistenciaClase.sol\":337:344  codigoE */\n  dup4\n    /* \"AsistenciaClase.sol\":329:345  alumnos[codigoE] */\n  0x1e\n  dup2\n  lt\n  tag_6\n  jumpi\n  tag_7\n  tag_8\n  jump\t// in\ntag_7:\ntag_6:\n  0x04\n  mul\n  add\n    /* \"AsistenciaClase.sol\":329:355  alumnos[codigoE].nombreEst */\n  0x00\n  add\n    /* \"AsistenciaClase.sol\":329:365  alumnos[codigoE].nombreEst = nombreE */\n  swap1\n  dup1\n  mload\n  swap1\n  0x20\n  add\n  swap1\n  tag_10\n  swap3\n  swap2\n  swap1\n  tag_11\n  jump\t// in\ntag_10:\n  pop\n    /* \"AsistenciaClase.sol\":405:412  nombreC */\n  dup3\n    /* \"AsistenciaClase.sol\":376:383  alumnos */\n  0x00\n    /* \"AsistenciaClase.sol\":384:391  codigoE */\n  dup4\n    /* \"AsistenciaClase.sol\":376:392  alumnos[codigoE] */\n  0x1e\n  dup2\n  lt\n  tag_12\n  jumpi\n  tag_13\n  tag_8\n  jump\t// in\ntag_13:\ntag_12:\n  0x04\n  mul\n  add\n    /* \"AsistenciaClase.sol\":376:402  alumnos[codigoE].nombreCls */\n  0x01\n  add\n    /* \"AsistenciaClase.sol\":376:412  alumnos[codigoE].nombreCls = nombreC */\n  swap1\n  dup1\n  mload\n  swap1\n  0x20\n  add\n  swap1\n  tag_15\n  swap3\n  swap2\n  swap1\n  tag_11\n  jump\t// in\ntag_15:\n  pop\n    /* \"AsistenciaClase.sol\":461:467  fechaP */\n  dup1\n    /* \"AsistenciaClase.sol\":423:430  alumnos */\n  0x00\n    /* \"AsistenciaClase.sol\":431:438  codigoE */\n  dup4\n    /* \"AsistenciaClase.sol\":423:439  alumnos[codigoE] */\n  0x1e\n  dup2\n  lt\n  tag_16\n  jumpi\n  tag_17\n  tag_8\n  jump\t// in\ntag_17:\ntag_16:\n  0x04\n  mul\n  add\n    /* \"AsistenciaClase.sol\":423:458  alumnos[codigoE].fechaParticipacion */\n  0x02\n  add\n    /* \"AsistenciaClase.sol\":423:467  alumnos[codigoE].fechaParticipacion = fechaP */\n  dup2\n  swap1\n  sstore\n  pop\n    /* \"AsistenciaClase.sol\":505:510  false */\n  0x00\n    /* \"AsistenciaClase.sol\":478:485  alumnos */\n  dup1\n    /* \"AsistenciaClase.sol\":486:493  codigoE */\n  dup4\n    /* \"AsistenciaClase.sol\":478:494  alumnos[codigoE] */\n  0x1e\n  dup2\n  lt\n  tag_19\n  jumpi\n  tag_20\n  tag_8\n  jump\t// in\ntag_20:\ntag_19:\n  0x04\n  mul\n  add\n    /* \"AsistenciaClase.sol\":478:502  alumnos[codigoE].asistio */\n  0x03\n  add\n  0x00\n    /* \"AsistenciaClase.sol\":478:510  alumnos[codigoE].asistio = false */\n  0x0100\n  exp\n  dup2\n  sload\n  dup2\n  0xff\n  mul\n  not\n  and\n  swap1\n  dup4\n  iszero\n  iszero\n  mul\n  or\n  swap1\n  sstore\n  pop\n    /* \"AsistenciaClase.sol\":226:518  constructor(string memory nombreE, string memory nombreC, uint codigoE, uint fechaP) public {\r... */\n  pop\n  pop\n  pop\n  pop\n    /* \"AsistenciaClase.sol\":27:889  contract CertificadoAsistencia  {\r... */\n  jump(tag_22)\ntag_11:\n  dup3\n  dup1\n  sload\n  tag_23\n  swap1\n  tag_24\n  jump\t// in\ntag_23:\n  swap1\n  0x00\n  mstore\n  keccak256(0x00, 0x20)\n  swap1\n  0x1f\n  add\n  0x20\n  swap1\n  div\n  dup2\n  add\n  swap3\n  dup3\n  tag_26\n  jumpi\n  0x00\n  dup6\n  sstore\n  jump(tag_25)\ntag_26:\n  dup3\n  0x1f\n  lt\n  tag_27\n  jumpi\n  dup1\n  mload\n  not(0xff)\n  and\n  dup4\n  dup1\n  add\n  or\n  dup6\n  sstore\n  jump(tag_25)\ntag_27:\n  dup3\n  dup1\n  add\n  0x01\n  add\n  dup6\n  sstore\n  dup3\n  iszero\n  tag_25\n  jumpi\n  swap2\n  dup3\n  add\ntag_28:\n  dup3\n  dup2\n  gt\n  iszero\n  tag_29\n  jumpi\n  dup3\n  mload\n  dup3\n  sstore\n  swap2\n  0x20\n  add\n  swap2\n  swap1\n  0x01\n  add\n  swap1\n  jump(tag_28)\ntag_29:\ntag_25:\n  pop\n  swap1\n  pop\n  tag_30\n  swap2\n  swap1\n  tag_31\n  jump\t// in\ntag_30:\n  pop\n  swap1\n  jump\t// out\ntag_31:\ntag_32:\n  dup1\n  dup3\n  gt\n  iszero\n  tag_33\n  jumpi\n  0x00\n  dup2\n  0x00\n  swap1\n  sstore\n  pop\n  0x01\n  add\n  jump(tag_32)\ntag_33:\n  pop\n  swap1\n  jump\t// out\n    /* \"#utility.yul\":7:428   */\ntag_35:\n    /* \"#utility.yul\":96:101   */\n  0x00\n    /* \"#utility.yul\":121:187   */\n  tag_37\n    /* \"#utility.yul\":137:186   */\n  tag_38\n    /* \"#utility.yul\":179:185   */\n  dup5\n    /* \"#utility.yul\":137:186   */\n  tag_39\n  jump\t// in\ntag_38:\n    /* \"#utility.yul\":121:187   */\n  tag_40\n  jump\t// in\ntag_37:\n    /* \"#utility.yul\":112:187   */\n  swap1\n  pop\n    /* \"#utility.yul\":210:216   */\n  dup3\n    /* \"#utility.yul\":203:208   */\n  dup2\n    /* \"#utility.yul\":196:217   */\n  mstore\n    /* \"#utility.yul\":248:252   */\n  0x20\n    /* \"#utility.yul\":241:246   */\n  dup2\n    /* \"#utility.yul\":237:253   */\n  add\n    /* \"#utility.yul\":286:289   */\n  dup5\n    /* \"#utility.yul\":277:283   */\n  dup5\n    /* \"#utility.yul\":272:275   */\n  dup5\n    /* \"#utility.yul\":268:284   */\n  add\n    /* \"#utility.yul\":265:290   */\n  gt\n    /* \"#utility.yul\":262:374   */\n  iszero\n  tag_41\n  jumpi\n    /* \"#utility.yul\":293:372   */\n  tag_42\n  tag_43\n  jump\t// in\ntag_42:\n    /* \"#utility.yul\":262:374   */\ntag_41:\n    /* \"#utility.yul\":383:422   */\n  tag_44\n    /* \"#utility.yul\":415:421   */\n  dup5\n    /* \"#utility.yul\":410:413   */\n  dup3\n    /* \"#utility.yul\":405:408   */\n  dup6\n    /* \"#utility.yul\":383:422   */\n  tag_45\n  jump\t// in\ntag_44:\n    /* \"#utility.yul\":102:428   */\n  pop\n    /* \"#utility.yul\":7:428   */\n  swap4\n  swap3\n  pop\n  pop\n  pop\n  jump\t// out\n    /* \"#utility.yul\":448:803   */\ntag_46:\n    /* \"#utility.yul\":515:520   */\n  0x00\n    /* \"#utility.yul\":564:567   */\n  dup3\n    /* \"#utility.yul\":557:561   */\n  0x1f\n    /* \"#utility.yul\":549:555   */\n  dup4\n    /* \"#utility.yul\":545:562   */\n  add\n    /* \"#utility.yul\":541:568   */\n  slt\n    /* \"#utility.yul\":531:653   */\n  tag_48\n  jumpi\n    /* \"#utility.yul\":572:651   */\n  tag_49\n  tag_50\n  jump\t// in\ntag_49:\n    /* \"#utility.yul\":531:653   */\ntag_48:\n    /* \"#utility.yul\":682:688   */\n  dup2\n    /* \"#utility.yul\":676:689   */\n  mload\n    /* \"#utility.yul\":707:797   */\n  tag_51\n    /* \"#utility.yul\":793:796   */\n  dup5\n    /* \"#utility.yul\":785:791   */\n  dup3\n    /* \"#utility.yul\":778:782   */\n  0x20\n    /* \"#utility.yul\":770:776   */\n  dup7\n    /* \"#utility.yul\":766:783   */\n  add\n    /* \"#utility.yul\":707:797   */\n  tag_35\n  jump\t// in\ntag_51:\n    /* \"#utility.yul\":698:797   */\n  swap2\n  pop\n    /* \"#utility.yul\":521:803   */\n  pop\n    /* \"#utility.yul\":448:803   */\n  swap3\n  swap2\n  pop\n  pop\n  jump\t// out\n    /* \"#utility.yul\":809:952   */\ntag_52:\n    /* \"#utility.yul\":866:871   */\n  0x00\n    /* \"#utility.yul\":897:903   */\n  dup2\n    /* \"#utility.yul\":891:904   */\n  mload\n    /* \"#utility.yul\":882:904   */\n  swap1\n  pop\n    /* \"#utility.yul\":913:946   */\n  tag_54\n    /* \"#utility.yul\":940:945   */\n  dup2\n    /* \"#utility.yul\":913:946   */\n  tag_55\n  jump\t// in\ntag_54:\n    /* \"#utility.yul\":809:952   */\n  swap3\n  swap2\n  pop\n  pop\n  jump\t// out\n    /* \"#utility.yul\":958:2124   */\ntag_3:\n    /* \"#utility.yul\":1075:1081   */\n  0x00\n    /* \"#utility.yul\":1083:1089   */\n  dup1\n    /* \"#utility.yul\":1091:1097   */\n  0x00\n    /* \"#utility.yul\":1099:1105   */\n  dup1\n    /* \"#utility.yul\":1148:1151   */\n  0x80\n    /* \"#utility.yul\":1136:1145   */\n  dup6\n    /* \"#utility.yul\":1127:1134   */\n  dup8\n    /* \"#utility.yul\":1123:1146   */\n  sub\n    /* \"#utility.yul\":1119:1152   */\n  slt\n    /* \"#utility.yul\":1116:1236   */\n  iszero\n  tag_57\n  jumpi\n    /* \"#utility.yul\":1155:1234   */\n  tag_58\n  tag_59\n  jump\t// in\ntag_58:\n    /* \"#utility.yul\":1116:1236   */\ntag_57:\n    /* \"#utility.yul\":1296:1297   */\n  0x00\n    /* \"#utility.yul\":1285:1294   */\n  dup6\n    /* \"#utility.yul\":1281:1298   */\n  add\n    /* \"#utility.yul\":1275:1299   */\n  mload\n    /* \"#utility.yul\":1326:1344   */\n  0xffffffffffffffff\n    /* \"#utility.yul\":1318:1324   */\n  dup2\n    /* \"#utility.yul\":1315:1345   */\n  gt\n    /* \"#utility.yul\":1312:1429   */\n  iszero\n  tag_60\n  jumpi\n    /* \"#utility.yul\":1348:1427   */\n  tag_61\n  tag_62\n  jump\t// in\ntag_61:\n    /* \"#utility.yul\":1312:1429   */\ntag_60:\n    /* \"#utility.yul\":1453:1527   */\n  tag_63\n    /* \"#utility.yul\":1519:1526   */\n  dup8\n    /* \"#utility.yul\":1510:1516   */\n  dup3\n    /* \"#utility.yul\":1499:1508   */\n  dup9\n    /* \"#utility.yul\":1495:1517   */\n  add\n    /* \"#utility.yul\":1453:1527   */\n  tag_46\n  jump\t// in\ntag_63:\n    /* \"#utility.yul\":1443:1527   */\n  swap5\n  pop\n    /* \"#utility.yul\":1246:1537   */\n  pop\n    /* \"#utility.yul\":1597:1599   */\n  0x20\n    /* \"#utility.yul\":1586:1595   */\n  dup6\n    /* \"#utility.yul\":1582:1600   */\n  add\n    /* \"#utility.yul\":1576:1601   */\n  mload\n    /* \"#utility.yul\":1628:1646   */\n  0xffffffffffffffff\n    /* \"#utility.yul\":1620:1626   */\n  dup2\n    /* \"#utility.yul\":1617:1647   */\n  gt\n    /* \"#utility.yul\":1614:1731   */\n  iszero\n  tag_64\n  jumpi\n    /* \"#utility.yul\":1650:1729   */\n  tag_65\n  tag_62\n  jump\t// in\ntag_65:\n    /* \"#utility.yul\":1614:1731   */\ntag_64:\n    /* \"#utility.yul\":1755:1829   */\n  tag_66\n    /* \"#utility.yul\":1821:1828   */\n  dup8\n    /* \"#utility.yul\":1812:1818   */\n  dup3\n    /* \"#utility.yul\":1801:1810   */\n  dup9\n    /* \"#utility.yul\":1797:1819   */\n  add\n    /* \"#utility.yul\":1755:1829   */\n  tag_46\n  jump\t// in\ntag_66:\n    /* \"#utility.yul\":1745:1829   */\n  swap4\n  pop\n    /* \"#utility.yul\":1547:1839   */\n  pop\n    /* \"#utility.yul\":1878:1880   */\n  0x40\n    /* \"#utility.yul\":1904:1968   */\n  tag_67\n    /* \"#utility.yul\":1960:1967   */\n  dup8\n    /* \"#utility.yul\":1951:1957   */\n  dup3\n    /* \"#utility.yul\":1940:1949   */\n  dup9\n    /* \"#utility.yul\":1936:1958   */\n  add\n    /* \"#utility.yul\":1904:1968   */\n  tag_52\n  jump\t// in\ntag_67:\n    /* \"#utility.yul\":1894:1968   */\n  swap3\n  pop\n    /* \"#utility.yul\":1849:1978   */\n  pop\n    /* \"#utility.yul\":2017:2019   */\n  0x60\n    /* \"#utility.yul\":2043:2107   */\n  tag_68\n    /* \"#utility.yul\":2099:2106   */\n  dup8\n    /* \"#utility.yul\":2090:2096   */\n  dup3\n    /* \"#utility.yul\":2079:2088   */\n  dup9\n    /* \"#utility.yul\":2075:2097   */\n  add\n    /* \"#utility.yul\":2043:2107   */\n  tag_52\n  jump\t// in\ntag_68:\n    /* \"#utility.yul\":2033:2107   */\n  swap2\n  pop\n    /* \"#utility.yul\":1988:2117   */\n  pop\n    /* \"#utility.yul\":958:2124   */\n  swap3\n  swap6\n  swap2\n  swap5\n  pop\n  swap3\n  pop\n  jump\t// out\n    /* \"#utility.yul\":2130:2259   */\ntag_40:\n    /* \"#utility.yul\":2164:2170   */\n  0x00\n    /* \"#utility.yul\":2191:2211   */\n  tag_70\n  tag_71\n  jump\t// in\ntag_70:\n    /* \"#utility.yul\":2181:2211   */\n  swap1\n  pop\n    /* \"#utility.yul\":2220:2253   */\n  tag_72\n    /* \"#utility.yul\":2248:2252   */\n  dup3\n    /* \"#utility.yul\":2240:2246   */\n  dup3\n    /* \"#utility.yul\":2220:2253   */\n  tag_73\n  jump\t// in\ntag_72:\n    /* \"#utility.yul\":2130:2259   */\n  swap2\n  swap1\n  pop\n  jump\t// out\n    /* \"#utility.yul\":2265:2340   */\ntag_71:\n    /* \"#utility.yul\":2298:2304   */\n  0x00\n    /* \"#utility.yul\":2331:2333   */\n  0x40\n    /* \"#utility.yul\":2325:2334   */\n  mload\n    /* \"#utility.yul\":2315:2334   */\n  swap1\n  pop\n    /* \"#utility.yul\":2265:2340   */\n  swap1\n  jump\t// out\n    /* \"#utility.yul\":2346:2654   */\ntag_39:\n    /* \"#utility.yul\":2408:2412   */\n  0x00\n    /* \"#utility.yul\":2498:2516   */\n  0xffffffffffffffff\n    /* \"#utility.yul\":2490:2496   */\n  dup3\n    /* \"#utility.yul\":2487:2517   */\n  gt\n    /* \"#utility.yul\":2484:2540   */\n  iszero\n  tag_76\n  jumpi\n    /* \"#utility.yul\":2520:2538   */\n  tag_77\n  tag_78\n  jump\t// in\ntag_77:\n    /* \"#utility.yul\":2484:2540   */\ntag_76:\n    /* \"#utility.yul\":2558:2587   */\n  tag_79\n    /* \"#utility.yul\":2580:2586   */\n  dup3\n    /* \"#utility.yul\":2558:2587   */\n  tag_80\n  jump\t// in\ntag_79:\n    /* \"#utility.yul\":2550:2587   */\n  swap1\n  pop\n    /* \"#utility.yul\":2642:2646   */\n  0x20\n    /* \"#utility.yul\":2636:2640   */\n  dup2\n    /* \"#utility.yul\":2632:2647   */\n  add\n    /* \"#utility.yul\":2624:2647   */\n  swap1\n  pop\n    /* \"#utility.yul\":2346:2654   */\n  swap2\n  swap1\n  pop\n  jump\t// out\n    /* \"#utility.yul\":2660:2737   */\ntag_81:\n    /* \"#utility.yul\":2697:2704   */\n  0x00\n    /* \"#utility.yul\":2726:2731   */\n  dup2\n    /* \"#utility.yul\":2715:2731   */\n  swap1\n  pop\n    /* \"#utility.yul\":2660:2737   */\n  swap2\n  swap1\n  pop\n  jump\t// out\n    /* \"#utility.yul\":2743:3050   */\ntag_45:\n    /* \"#utility.yul\":2811:2812   */\n  0x00\n    /* \"#utility.yul\":2821:2934   */\ntag_84:\n    /* \"#utility.yul\":2835:2841   */\n  dup4\n    /* \"#utility.yul\":2832:2833   */\n  dup2\n    /* \"#utility.yul\":2829:2842   */\n  lt\n    /* \"#utility.yul\":2821:2934   */\n  iszero\n  tag_86\n  jumpi\n    /* \"#utility.yul\":2920:2921   */\n  dup1\n    /* \"#utility.yul\":2915:2918   */\n  dup3\n    /* \"#utility.yul\":2911:2922   */\n  add\n    /* \"#utility.yul\":2905:2923   */\n  mload\n    /* \"#utility.yul\":2901:2902   */\n  dup2\n    /* \"#utility.yul\":2896:2899   */\n  dup5\n    /* \"#utility.yul\":2892:2903   */\n  add\n    /* \"#utility.yul\":2885:2924   */\n  mstore\n    /* \"#utility.yul\":2857:2859   */\n  0x20\n    /* \"#utility.yul\":2854:2855   */\n  dup2\n    /* \"#utility.yul\":2850:2860   */\n  add\n    /* \"#utility.yul\":2845:2860   */\n  swap1\n  pop\n    /* \"#utility.yul\":2821:2934   */\n  jump(tag_84)\ntag_86:\n    /* \"#utility.yul\":2952:2958   */\n  dup4\n    /* \"#utility.yul\":2949:2950   */\n  dup2\n    /* \"#utility.yul\":2946:2959   */\n  gt\n    /* \"#utility.yul\":2943:3044   */\n  iszero\n  tag_87\n  jumpi\n    /* \"#utility.yul\":3032:3033   */\n  0x00\n    /* \"#utility.yul\":3023:3029   */\n  dup5\n    /* \"#utility.yul\":3018:3021   */\n  dup5\n    /* \"#utility.yul\":3014:3030   */\n  add\n    /* \"#utility.yul\":3007:3034   */\n  mstore\n    /* \"#utility.yul\":2943:3044   */\ntag_87:\n    /* \"#utility.yul\":2792:3050   */\n  pop\n    /* \"#utility.yul\":2743:3050   */\n  pop\n  pop\n  pop\n  jump\t// out\n    /* \"#utility.yul\":3056:3376   */\ntag_24:\n    /* \"#utility.yul\":3100:3106   */\n  0x00\n    /* \"#utility.yul\":3137:3138   */\n  0x02\n    /* \"#utility.yul\":3131:3135   */\n  dup3\n    /* \"#utility.yul\":3127:3139   */\n  div\n    /* \"#utility.yul\":3117:3139   */\n  swap1\n  pop\n    /* \"#utility.yul\":3184:3185   */\n  0x01\n    /* \"#utility.yul\":3178:3182   */\n  dup3\n    /* \"#utility.yul\":3174:3186   */\n  and\n    /* \"#utility.yul\":3205:3223   */\n  dup1\n    /* \"#utility.yul\":3195:3276   */\n  tag_89\n  jumpi\n    /* \"#utility.yul\":3261:3265   */\n  0x7f\n    /* \"#utility.yul\":3253:3259   */\n  dup3\n    /* \"#utility.yul\":3249:3266   */\n  and\n    /* \"#utility.yul\":3239:3266   */\n  swap2\n  pop\n    /* \"#utility.yul\":3195:3276   */\ntag_89:\n    /* \"#utility.yul\":3323:3325   */\n  0x20\n    /* \"#utility.yul\":3315:3321   */\n  dup3\n    /* \"#utility.yul\":3312:3326   */\n  lt\n    /* \"#utility.yul\":3292:3310   */\n  dup2\n    /* \"#utility.yul\":3289:3327   */\n  eq\n    /* \"#utility.yul\":3286:3370   */\n  iszero\n  tag_90\n  jumpi\n    /* \"#utility.yul\":3342:3360   */\n  tag_91\n  tag_92\n  jump\t// in\ntag_91:\n    /* \"#utility.yul\":3286:3370   */\ntag_90:\n    /* \"#utility.yul\":3107:3376   */\n  pop\n    /* \"#utility.yul\":3056:3376   */\n  swap2\n  swap1\n  pop\n  jump\t// out\n    /* \"#utility.yul\":3382:3663   */\ntag_73:\n    /* \"#utility.yul\":3465:3492   */\n  tag_94\n    /* \"#utility.yul\":3487:3491   */\n  dup3\n    /* \"#utility.yul\":3465:3492   */\n  tag_80\n  jump\t// in\ntag_94:\n    /* \"#utility.yul\":3457:3463   */\n  dup2\n    /* \"#utility.yul\":3453:3493   */\n  add\n    /* \"#utility.yul\":3595:3601   */\n  dup2\n    /* \"#utility.yul\":3583:3593   */\n  dup2\n    /* \"#utility.yul\":3580:3602   */\n  lt\n    /* \"#utility.yul\":3559:3577   */\n  0xffffffffffffffff\n    /* \"#utility.yul\":3547:3557   */\n  dup3\n    /* \"#utility.yul\":3544:3578   */\n  gt\n    /* \"#utility.yul\":3541:3603   */\n  or\n    /* \"#utility.yul\":3538:3626   */\n  iszero\n  tag_95\n  jumpi\n    /* \"#utility.yul\":3606:3624   */\n  tag_96\n  tag_78\n  jump\t// in\ntag_96:\n    /* \"#utility.yul\":3538:3626   */\ntag_95:\n    /* \"#utility.yul\":3646:3656   */\n  dup1\n    /* \"#utility.yul\":3642:3644   */\n  0x40\n    /* \"#utility.yul\":3635:3657   */\n  mstore\n    /* \"#utility.yul\":3425:3663   */\n  pop\n    /* \"#utility.yul\":3382:3663   */\n  pop\n  pop\n  jump\t// out\n    /* \"#utility.yul\":3669:3849   */\ntag_92:\n    /* \"#utility.yul\":3717:3794   */\n  0x4e487b7100000000000000000000000000000000000000000000000000000000\n    /* \"#utility.yul\":3714:3715   */\n  0x00\n    /* \"#utility.yul\":3707:3795   */\n  mstore\n    /* \"#utility.yul\":3814:3818   */\n  0x22\n    /* \"#utility.yul\":3811:3812   */\n  0x04\n    /* \"#utility.yul\":3804:3819   */\n  mstore\n    /* \"#utility.yul\":3838:3842   */\n  0x24\n    /* \"#utility.yul\":3835:3836   */\n  0x00\n    /* \"#utility.yul\":3828:3843   */\n  revert\n    /* \"#utility.yul\":3855:4035   */\ntag_8:\n    /* \"#utility.yul\":3903:3980   */\n  0x4e487b7100000000000000000000000000000000000000000000000000000000\n    /* \"#utility.yul\":3900:3901   */\n  0x00\n    /* \"#utility.yul\":3893:3981   */\n  mstore\n    /* \"#utility.yul\":4000:4004   */\n  0x32\n    /* \"#utility.yul\":3997:3998   */\n  0x04\n    /* \"#utility.yul\":3990:4005   */\n  mstore\n    /* \"#utility.yul\":4024:4028   */\n  0x24\n    /* \"#utility.yul\":4021:4022   */\n  0x00\n    /* \"#utility.yul\":4014:4029   */\n  revert\n    /* \"#utility.yul\":4041:4221   */\ntag_78:\n    /* \"#utility.yul\":4089:4166   */\n  0x4e487b7100000000000000000000000000000000000000000000000000000000\n    /* \"#utility.yul\":4086:4087   */\n  0x00\n    /* \"#utility.yul\":4079:4167   */\n  mstore\n    /* \"#utility.yul\":4186:4190   */\n  0x41\n    /* \"#utility.yul\":4183:4184   */\n  0x04\n    /* \"#utility.yul\":4176:4191   */\n  mstore\n    /* \"#utility.yul\":4210:4214   */\n  0x24\n    /* \"#utility.yul\":4207:4208   */\n  0x00\n    /* \"#utility.yul\":4200:4215   */\n  revert\n    /* \"#utility.yul\":4227:4344   */\ntag_50:\n    /* \"#utility.yul\":4336:4337   */\n  0x00\n    /* \"#utility.yul\":4333:4334   */\n  dup1\n    /* \"#utility.yul\":4326:4338   */\n  revert\n    /* \"#utility.yul\":4350:4467   */\ntag_43:\n    /* \"#utility.yul\":4459:4460   */\n  0x00\n    /* \"#utility.yul\":4456:4457   */\n  dup1\n    /* \"#utility.yul\":4449:4461   */\n  revert\n    /* \"#utility.yul\":4473:4590   */\ntag_62:\n    /* \"#utility.yul\":4582:4583   */\n  0x00\n    /* \"#utility.yul\":4579:4580   */\n  dup1\n    /* \"#utility.yul\":4572:4584   */\n  revert\n    /* \"#utility.yul\":4596:4713   */\ntag_59:\n    /* \"#utility.yul\":4705:4706   */\n  0x00\n    /* \"#utility.yul\":4702:4703   */\n  dup1\n    /* \"#utility.yul\":4695:4707   */\n  revert\n    /* \"#utility.yul\":4719:4821   */\ntag_80:\n    /* \"#utility.yul\":4760:4766   */\n  0x00\n    /* \"#utility.yul\":4811:4813   */\n  0x1f\n    /* \"#utility.yul\":4807:4814   */\n  not\n    /* \"#utility.yul\":4802:4804   */\n  0x1f\n    /* \"#utility.yul\":4795:4800   */\n  dup4\n    /* \"#utility.yul\":4791:4805   */\n  add\n    /* \"#utility.yul\":4787:4815   */\n  and\n    /* \"#utility.yul\":4777:4815   */\n  swap1\n  pop\n    /* \"#utility.yul\":4719:4821   */\n  swap2\n  swap1\n  pop\n  jump\t// out\n    /* \"#utility.yul\":4827:4949   */\ntag_55:\n    /* \"#utility.yul\":4900:4924   */\n  tag_106\n    /* \"#utility.yul\":4918:4923   */\n  dup2\n    /* \"#utility.yul\":4900:4924   */\n  tag_81\n  jump\t// in\ntag_106:\n    /* \"#utility.yul\":4893:4898   */\n  dup2\n    /* \"#utility.yul\":4890:4925   */\n  eq\n    /* \"#utility.yul\":4880:4943   */\n  tag_107\n  jumpi\n    /* \"#utility.yul\":4939:4940   */\n  0x00\n    /* \"#utility.yul\":4936:4937   */\n  dup1\n    /* \"#utility.yul\":4929:4941   */\n  revert\n    /* \"#utility.yul\":4880:4943   */\ntag_107:\n    /* \"#utility.yul\":4827:4949   */\n  pop\n  jump\t// out\n    /* \"AsistenciaClase.sol\":27:889  contract CertificadoAsistencia  {\r... */\ntag_22:\n  dataSize(sub_0)\n  dup1\n  dataOffset(sub_0)\n  0x00\n  codecopy\n  0x00\n  return\nstop\n\nsub_0: assembly {\n        /* \"AsistenciaClase.sol\":27:889  contract CertificadoAsistencia  {\r... */\n      mstore(0x40, 0x80)\n      callvalue\n      dup1\n      iszero\n      tag_1\n      jumpi\n      0x00\n      dup1\n      revert\n    tag_1:\n      pop\n      jumpi(tag_2, lt(calldatasize, 0x04))\n      shr(0xe0, calldataload(0x00))\n      dup1\n      0x792c3b11\n      eq\n      tag_3\n      jumpi\n      dup1\n      0xeb620cb2\n      eq\n      tag_4\n      jumpi\n    tag_2:\n      0x00\n      dup1\n      revert\n        /* \"AsistenciaClase.sol\":526:757  function guardarCertificado(string memory nombreE, string memory nombreC, uint codigoE, uint fechaP) public {\r... */\n    tag_3:\n      tag_5\n      0x04\n      dup1\n      calldatasize\n      sub\n      dup2\n      add\n      swap1\n      tag_6\n      swap2\n      swap1\n      tag_7\n      jump\t// in\n    tag_6:\n      tag_8\n      jump\t// in\n    tag_5:\n      stop\n        /* \"AsistenciaClase.sol\":765:886  function cosultarCertificado(uint codigoE) public  view returns (bool) {\r... */\n    tag_4:\n      tag_9\n      0x04\n      dup1\n      calldatasize\n      sub\n      dup2\n      add\n      swap1\n      tag_10\n      swap2\n      swap1\n      tag_11\n      jump\t// in\n    tag_10:\n      tag_12\n      jump\t// in\n    tag_9:\n      mload(0x40)\n      tag_13\n      swap2\n      swap1\n      tag_14\n      jump\t// in\n    tag_13:\n      mload(0x40)\n      dup1\n      swap2\n      sub\n      swap1\n      return\n        /* \"AsistenciaClase.sol\":526:757  function guardarCertificado(string memory nombreE, string memory nombreC, uint codigoE, uint fechaP) public {\r... */\n    tag_8:\n        /* \"AsistenciaClase.sol\":645:669  Alumno memory estudiante */\n      0x00\n        /* \"AsistenciaClase.sol\":672:709  Alumno(nombreE, nombreC, fechaP,true) */\n      mload(0x40)\n      dup1\n      0x80\n      add\n      0x40\n      mstore\n      dup1\n        /* \"AsistenciaClase.sol\":679:686  nombreE */\n      dup7\n        /* \"AsistenciaClase.sol\":672:709  Alumno(nombreE, nombreC, fechaP,true) */\n      dup2\n      mstore\n      0x20\n      add\n        /* \"AsistenciaClase.sol\":688:695  nombreC */\n      dup6\n        /* \"AsistenciaClase.sol\":672:709  Alumno(nombreE, nombreC, fechaP,true) */\n      dup2\n      mstore\n      0x20\n      add\n        /* \"AsistenciaClase.sol\":697:703  fechaP */\n      dup4\n        /* \"AsistenciaClase.sol\":672:709  Alumno(nombreE, nombreC, fechaP,true) */\n      dup2\n      mstore\n      0x20\n      add\n        /* \"AsistenciaClase.sol\":704:708  true */\n      0x01\n        /* \"AsistenciaClase.sol\":672:709  Alumno(nombreE, nombreC, fechaP,true) */\n      iszero\n      iszero\n      dup2\n      mstore\n      pop\n        /* \"AsistenciaClase.sol\":645:709  Alumno memory estudiante = Alumno(nombreE, nombreC, fechaP,true) */\n      swap1\n      pop\n        /* \"AsistenciaClase.sol\":739:749  estudiante */\n      dup1\n        /* \"AsistenciaClase.sol\":720:727  alumnos */\n      0x00\n        /* \"AsistenciaClase.sol\":728:735  codigoE */\n      dup5\n        /* \"AsistenciaClase.sol\":720:736  alumnos[codigoE] */\n      0x1e\n      dup2\n      lt\n      tag_16\n      jumpi\n      tag_17\n      tag_18\n      jump\t// in\n    tag_17:\n    tag_16:\n      0x04\n      mul\n      add\n        /* \"AsistenciaClase.sol\":720:749  alumnos[codigoE] = estudiante */\n      0x00\n      dup3\n      add\n      mload\n      dup2\n      0x00\n      add\n      swap1\n      dup1\n      mload\n      swap1\n      0x20\n      add\n      swap1\n      tag_20\n      swap3\n      swap2\n      swap1\n      tag_21\n      jump\t// in\n    tag_20:\n      pop\n      0x20\n      dup3\n      add\n      mload\n      dup2\n      0x01\n      add\n      swap1\n      dup1\n      mload\n      swap1\n      0x20\n      add\n      swap1\n      tag_22\n      swap3\n      swap2\n      swap1\n      tag_21\n      jump\t// in\n    tag_22:\n      pop\n      0x40\n      dup3\n      add\n      mload\n      dup2\n      0x02\n      add\n      sstore\n      0x60\n      dup3\n      add\n      mload\n      dup2\n      0x03\n      add\n      exp(0x0100, 0x00)\n      dup2\n      sload\n      dup2\n      0xff\n      mul\n      not\n      and\n      swap1\n      dup4\n      iszero\n      iszero\n      mul\n      or\n      swap1\n      sstore\n      pop\n      swap1\n      pop\n      pop\n        /* \"AsistenciaClase.sol\":634:757  {\r... */\n      pop\n        /* \"AsistenciaClase.sol\":526:757  function guardarCertificado(string memory nombreE, string memory nombreC, uint codigoE, uint fechaP) public {\r... */\n      pop\n      pop\n      pop\n      pop\n      jump\t// out\n        /* \"AsistenciaClase.sol\":765:886  function cosultarCertificado(uint codigoE) public  view returns (bool) {\r... */\n    tag_12:\n        /* \"AsistenciaClase.sol\":830:834  bool */\n      0x00\n        /* \"AsistenciaClase.sol\":854:861  alumnos */\n      dup1\n        /* \"AsistenciaClase.sol\":862:869  codigoE */\n      dup3\n        /* \"AsistenciaClase.sol\":854:870  alumnos[codigoE] */\n      0x1e\n      dup2\n      lt\n      tag_24\n      jumpi\n      tag_25\n      tag_18\n      jump\t// in\n    tag_25:\n    tag_24:\n      0x04\n      mul\n      add\n        /* \"AsistenciaClase.sol\":854:878  alumnos[codigoE].asistio */\n      0x03\n      add\n      0x00\n      swap1\n      sload\n      swap1\n      0x0100\n      exp\n      swap1\n      div\n      0xff\n      and\n        /* \"AsistenciaClase.sol\":847:878  return alumnos[codigoE].asistio */\n      swap1\n      pop\n        /* \"AsistenciaClase.sol\":765:886  function cosultarCertificado(uint codigoE) public  view returns (bool) {\r... */\n      swap2\n      swap1\n      pop\n      jump\t// out\n    tag_21:\n      dup3\n      dup1\n      sload\n      tag_27\n      swap1\n      tag_28\n      jump\t// in\n    tag_27:\n      swap1\n      0x00\n      mstore\n      keccak256(0x00, 0x20)\n      swap1\n      0x1f\n      add\n      0x20\n      swap1\n      div\n      dup2\n      add\n      swap3\n      dup3\n      tag_30\n      jumpi\n      0x00\n      dup6\n      sstore\n      jump(tag_29)\n    tag_30:\n      dup3\n      0x1f\n      lt\n      tag_31\n      jumpi\n      dup1\n      mload\n      not(0xff)\n      and\n      dup4\n      dup1\n      add\n      or\n      dup6\n      sstore\n      jump(tag_29)\n    tag_31:\n      dup3\n      dup1\n      add\n      0x01\n      add\n      dup6\n      sstore\n      dup3\n      iszero\n      tag_29\n      jumpi\n      swap2\n      dup3\n      add\n    tag_32:\n      dup3\n      dup2\n      gt\n      iszero\n      tag_33\n      jumpi\n      dup3\n      mload\n      dup3\n      sstore\n      swap2\n      0x20\n      add\n      swap2\n      swap1\n      0x01\n      add\n      swap1\n      jump(tag_32)\n    tag_33:\n    tag_29:\n      pop\n      swap1\n      pop\n      tag_34\n      swap2\n      swap1\n      tag_35\n      jump\t// in\n    tag_34:\n      pop\n      swap1\n      jump\t// out\n    tag_35:\n    tag_36:\n      dup1\n      dup3\n      gt\n      iszero\n      tag_37\n      jumpi\n      0x00\n      dup2\n      0x00\n      swap1\n      sstore\n      pop\n      0x01\n      add\n      jump(tag_36)\n    tag_37:\n      pop\n      swap1\n      jump\t// out\n        /* \"#utility.yul\":7:419   */\n    tag_39:\n        /* \"#utility.yul\":85:90   */\n      0x00\n        /* \"#utility.yul\":110:176   */\n      tag_41\n        /* \"#utility.yul\":126:175   */\n      tag_42\n        /* \"#utility.yul\":168:174   */\n      dup5\n        /* \"#utility.yul\":126:175   */\n      tag_43\n      jump\t// in\n    tag_42:\n        /* \"#utility.yul\":110:176   */\n      tag_44\n      jump\t// in\n    tag_41:\n        /* \"#utility.yul\":101:176   */\n      swap1\n      pop\n        /* \"#utility.yul\":199:205   */\n      dup3\n        /* \"#utility.yul\":192:197   */\n      dup2\n        /* \"#utility.yul\":185:206   */\n      mstore\n        /* \"#utility.yul\":237:241   */\n      0x20\n        /* \"#utility.yul\":230:235   */\n      dup2\n        /* \"#utility.yul\":226:242   */\n      add\n        /* \"#utility.yul\":275:278   */\n      dup5\n        /* \"#utility.yul\":266:272   */\n      dup5\n        /* \"#utility.yul\":261:264   */\n      dup5\n        /* \"#utility.yul\":257:273   */\n      add\n        /* \"#utility.yul\":254:279   */\n      gt\n        /* \"#utility.yul\":251:363   */\n      iszero\n      tag_45\n      jumpi\n        /* \"#utility.yul\":282:361   */\n      tag_46\n      tag_47\n      jump\t// in\n    tag_46:\n        /* \"#utility.yul\":251:363   */\n    tag_45:\n        /* \"#utility.yul\":372:413   */\n      tag_48\n        /* \"#utility.yul\":406:412   */\n      dup5\n        /* \"#utility.yul\":401:404   */\n      dup3\n        /* \"#utility.yul\":396:399   */\n      dup6\n        /* \"#utility.yul\":372:413   */\n      tag_49\n      jump\t// in\n    tag_48:\n        /* \"#utility.yul\":91:419   */\n      pop\n        /* \"#utility.yul\":7:419   */\n      swap4\n      swap3\n      pop\n      pop\n      pop\n      jump\t// out\n        /* \"#utility.yul\":439:779   */\n    tag_50:\n        /* \"#utility.yul\":495:500   */\n      0x00\n        /* \"#utility.yul\":544:547   */\n      dup3\n        /* \"#utility.yul\":537:541   */\n      0x1f\n        /* \"#utility.yul\":529:535   */\n      dup4\n        /* \"#utility.yul\":525:542   */\n      add\n        /* \"#utility.yul\":521:548   */\n      slt\n        /* \"#utility.yul\":511:633   */\n      tag_52\n      jumpi\n        /* \"#utility.yul\":552:631   */\n      tag_53\n      tag_54\n      jump\t// in\n    tag_53:\n        /* \"#utility.yul\":511:633   */\n    tag_52:\n        /* \"#utility.yul\":669:675   */\n      dup2\n        /* \"#utility.yul\":656:676   */\n      calldataload\n        /* \"#utility.yul\":694:773   */\n      tag_55\n        /* \"#utility.yul\":769:772   */\n      dup5\n        /* \"#utility.yul\":761:767   */\n      dup3\n        /* \"#utility.yul\":754:758   */\n      0x20\n        /* \"#utility.yul\":746:752   */\n      dup7\n        /* \"#utility.yul\":742:759   */\n      add\n        /* \"#utility.yul\":694:773   */\n      tag_39\n      jump\t// in\n    tag_55:\n        /* \"#utility.yul\":685:773   */\n      swap2\n      pop\n        /* \"#utility.yul\":501:779   */\n      pop\n        /* \"#utility.yul\":439:779   */\n      swap3\n      swap2\n      pop\n      pop\n      jump\t// out\n        /* \"#utility.yul\":785:924   */\n    tag_56:\n        /* \"#utility.yul\":831:836   */\n      0x00\n        /* \"#utility.yul\":869:875   */\n      dup2\n        /* \"#utility.yul\":856:876   */\n      calldataload\n        /* \"#utility.yul\":847:876   */\n      swap1\n      pop\n        /* \"#utility.yul\":885:918   */\n      tag_58\n        /* \"#utility.yul\":912:917   */\n      dup2\n        /* \"#utility.yul\":885:918   */\n      tag_59\n      jump\t// in\n    tag_58:\n        /* \"#utility.yul\":785:924   */\n      swap3\n      swap2\n      pop\n      pop\n      jump\t// out\n        /* \"#utility.yul\":930:2055   */\n    tag_7:\n        /* \"#utility.yul\":1036:1042   */\n      0x00\n        /* \"#utility.yul\":1044:1050   */\n      dup1\n        /* \"#utility.yul\":1052:1058   */\n      0x00\n        /* \"#utility.yul\":1060:1066   */\n      dup1\n        /* \"#utility.yul\":1109:1112   */\n      0x80\n        /* \"#utility.yul\":1097:1106   */\n      dup6\n        /* \"#utility.yul\":1088:1095   */\n      dup8\n        /* \"#utility.yul\":1084:1107   */\n      sub\n        /* \"#utility.yul\":1080:1113   */\n      slt\n        /* \"#utility.yul\":1077:1197   */\n      iszero\n      tag_61\n      jumpi\n        /* \"#utility.yul\":1116:1195   */\n      tag_62\n      tag_63\n      jump\t// in\n    tag_62:\n        /* \"#utility.yul\":1077:1197   */\n    tag_61:\n        /* \"#utility.yul\":1264:1265   */\n      0x00\n        /* \"#utility.yul\":1253:1262   */\n      dup6\n        /* \"#utility.yul\":1249:1266   */\n      add\n        /* \"#utility.yul\":1236:1267   */\n      calldataload\n        /* \"#utility.yul\":1294:1312   */\n      0xffffffffffffffff\n        /* \"#utility.yul\":1286:1292   */\n      dup2\n        /* \"#utility.yul\":1283:1313   */\n      gt\n        /* \"#utility.yul\":1280:1397   */\n      iszero\n      tag_64\n      jumpi\n        /* \"#utility.yul\":1316:1395   */\n      tag_65\n      tag_66\n      jump\t// in\n    tag_65:\n        /* \"#utility.yul\":1280:1397   */\n    tag_64:\n        /* \"#utility.yul\":1421:1484   */\n      tag_67\n        /* \"#utility.yul\":1476:1483   */\n      dup8\n        /* \"#utility.yul\":1467:1473   */\n      dup3\n        /* \"#utility.yul\":1456:1465   */\n      dup9\n        /* \"#utility.yul\":1452:1474   */\n      add\n        /* \"#utility.yul\":1421:1484   */\n      tag_50\n      jump\t// in\n    tag_67:\n        /* \"#utility.yul\":1411:1484   */\n      swap5\n      pop\n        /* \"#utility.yul\":1207:1494   */\n      pop\n        /* \"#utility.yul\":1561:1563   */\n      0x20\n        /* \"#utility.yul\":1550:1559   */\n      dup6\n        /* \"#utility.yul\":1546:1564   */\n      add\n        /* \"#utility.yul\":1533:1565   */\n      calldataload\n        /* \"#utility.yul\":1592:1610   */\n      0xffffffffffffffff\n        /* \"#utility.yul\":1584:1590   */\n      dup2\n        /* \"#utility.yul\":1581:1611   */\n      gt\n        /* \"#utility.yul\":1578:1695   */\n      iszero\n      tag_68\n      jumpi\n        /* \"#utility.yul\":1614:1693   */\n      tag_69\n      tag_66\n      jump\t// in\n    tag_69:\n        /* \"#utility.yul\":1578:1695   */\n    tag_68:\n        /* \"#utility.yul\":1719:1782   */\n      tag_70\n        /* \"#utility.yul\":1774:1781   */\n      dup8\n        /* \"#utility.yul\":1765:1771   */\n      dup3\n        /* \"#utility.yul\":1754:1763   */\n      dup9\n        /* \"#utility.yul\":1750:1772   */\n      add\n        /* \"#utility.yul\":1719:1782   */\n      tag_50\n      jump\t// in\n    tag_70:\n        /* \"#utility.yul\":1709:1782   */\n      swap4\n      pop\n        /* \"#utility.yul\":1504:1792   */\n      pop\n        /* \"#utility.yul\":1831:1833   */\n      0x40\n        /* \"#utility.yul\":1857:1910   */\n      tag_71\n        /* \"#utility.yul\":1902:1909   */\n      dup8\n        /* \"#utility.yul\":1893:1899   */\n      dup3\n        /* \"#utility.yul\":1882:1891   */\n      dup9\n        /* \"#utility.yul\":1878:1900   */\n      add\n        /* \"#utility.yul\":1857:1910   */\n      tag_56\n      jump\t// in\n    tag_71:\n        /* \"#utility.yul\":1847:1910   */\n      swap3\n      pop\n        /* \"#utility.yul\":1802:1920   */\n      pop\n        /* \"#utility.yul\":1959:1961   */\n      0x60\n        /* \"#utility.yul\":1985:2038   */\n      tag_72\n        /* \"#utility.yul\":2030:2037   */\n      dup8\n        /* \"#utility.yul\":2021:2027   */\n      dup3\n        /* \"#utility.yul\":2010:2019   */\n      dup9\n        /* \"#utility.yul\":2006:2028   */\n      add\n        /* \"#utility.yul\":1985:2038   */\n      tag_56\n      jump\t// in\n    tag_72:\n        /* \"#utility.yul\":1975:2038   */\n      swap2\n      pop\n        /* \"#utility.yul\":1930:2048   */\n      pop\n        /* \"#utility.yul\":930:2055   */\n      swap3\n      swap6\n      swap2\n      swap5\n      pop\n      swap3\n      pop\n      jump\t// out\n        /* \"#utility.yul\":2061:2390   */\n    tag_11:\n        /* \"#utility.yul\":2120:2126   */\n      0x00\n        /* \"#utility.yul\":2169:2171   */\n      0x20\n        /* \"#utility.yul\":2157:2166   */\n      dup3\n        /* \"#utility.yul\":2148:2155   */\n      dup5\n        /* \"#utility.yul\":2144:2167   */\n      sub\n        /* \"#utility.yul\":2140:2172   */\n      slt\n        /* \"#utility.yul\":2137:2256   */\n      iszero\n      tag_74\n      jumpi\n        /* \"#utility.yul\":2175:2254   */\n      tag_75\n      tag_63\n      jump\t// in\n    tag_75:\n        /* \"#utility.yul\":2137:2256   */\n    tag_74:\n        /* \"#utility.yul\":2295:2296   */\n      0x00\n        /* \"#utility.yul\":2320:2373   */\n      tag_76\n        /* \"#utility.yul\":2365:2372   */\n      dup5\n        /* \"#utility.yul\":2356:2362   */\n      dup3\n        /* \"#utility.yul\":2345:2354   */\n      dup6\n        /* \"#utility.yul\":2341:2363   */\n      add\n        /* \"#utility.yul\":2320:2373   */\n      tag_56\n      jump\t// in\n    tag_76:\n        /* \"#utility.yul\":2310:2373   */\n      swap2\n      pop\n        /* \"#utility.yul\":2266:2383   */\n      pop\n        /* \"#utility.yul\":2061:2390   */\n      swap3\n      swap2\n      pop\n      pop\n      jump\t// out\n        /* \"#utility.yul\":2396:2505   */\n    tag_77:\n        /* \"#utility.yul\":2477:2498   */\n      tag_79\n        /* \"#utility.yul\":2492:2497   */\n      dup2\n        /* \"#utility.yul\":2477:2498   */\n      tag_80\n      jump\t// in\n    tag_79:\n        /* \"#utility.yul\":2472:2475   */\n      dup3\n        /* \"#utility.yul\":2465:2499   */\n      mstore\n        /* \"#utility.yul\":2396:2505   */\n      pop\n      pop\n      jump\t// out\n        /* \"#utility.yul\":2511:2721   */\n    tag_14:\n        /* \"#utility.yul\":2598:2602   */\n      0x00\n        /* \"#utility.yul\":2636:2638   */\n      0x20\n        /* \"#utility.yul\":2625:2634   */\n      dup3\n        /* \"#utility.yul\":2621:2639   */\n      add\n        /* \"#utility.yul\":2613:2639   */\n      swap1\n      pop\n        /* \"#utility.yul\":2649:2714   */\n      tag_82\n        /* \"#utility.yul\":2711:2712   */\n      0x00\n        /* \"#utility.yul\":2700:2709   */\n      dup4\n        /* \"#utility.yul\":2696:2713   */\n      add\n        /* \"#utility.yul\":2687:2693   */\n      dup5\n        /* \"#utility.yul\":2649:2714   */\n      tag_77\n      jump\t// in\n    tag_82:\n        /* \"#utility.yul\":2511:2721   */\n      swap3\n      swap2\n      pop\n      pop\n      jump\t// out\n        /* \"#utility.yul\":2727:2856   */\n    tag_44:\n        /* \"#utility.yul\":2761:2767   */\n      0x00\n        /* \"#utility.yul\":2788:2808   */\n      tag_84\n      tag_85\n      jump\t// in\n    tag_84:\n        /* \"#utility.yul\":2778:2808   */\n      swap1\n      pop\n        /* \"#utility.yul\":2817:2850   */\n      tag_86\n        /* \"#utility.yul\":2845:2849   */\n      dup3\n        /* \"#utility.yul\":2837:2843   */\n      dup3\n        /* \"#utility.yul\":2817:2850   */\n      tag_87\n      jump\t// in\n    tag_86:\n        /* \"#utility.yul\":2727:2856   */\n      swap2\n      swap1\n      pop\n      jump\t// out\n        /* \"#utility.yul\":2862:2937   */\n    tag_85:\n        /* \"#utility.yul\":2895:2901   */\n      0x00\n        /* \"#utility.yul\":2928:2930   */\n      0x40\n        /* \"#utility.yul\":2922:2931   */\n      mload\n        /* \"#utility.yul\":2912:2931   */\n      swap1\n      pop\n        /* \"#utility.yul\":2862:2937   */\n      swap1\n      jump\t// out\n        /* \"#utility.yul\":2943:3251   */\n    tag_43:\n        /* \"#utility.yul\":3005:3009   */\n      0x00\n        /* \"#utility.yul\":3095:3113   */\n      0xffffffffffffffff\n        /* \"#utility.yul\":3087:3093   */\n      dup3\n        /* \"#utility.yul\":3084:3114   */\n      gt\n        /* \"#utility.yul\":3081:3137   */\n      iszero\n      tag_90\n      jumpi\n        /* \"#utility.yul\":3117:3135   */\n      tag_91\n      tag_92\n      jump\t// in\n    tag_91:\n        /* \"#utility.yul\":3081:3137   */\n    tag_90:\n        /* \"#utility.yul\":3155:3184   */\n      tag_93\n        /* \"#utility.yul\":3177:3183   */\n      dup3\n        /* \"#utility.yul\":3155:3184   */\n      tag_94\n      jump\t// in\n    tag_93:\n        /* \"#utility.yul\":3147:3184   */\n      swap1\n      pop\n        /* \"#utility.yul\":3239:3243   */\n      0x20\n        /* \"#utility.yul\":3233:3237   */\n      dup2\n        /* \"#utility.yul\":3229:3244   */\n      add\n        /* \"#utility.yul\":3221:3244   */\n      swap1\n      pop\n        /* \"#utility.yul\":2943:3251   */\n      swap2\n      swap1\n      pop\n      jump\t// out\n        /* \"#utility.yul\":3257:3347   */\n    tag_80:\n        /* \"#utility.yul\":3291:3298   */\n      0x00\n        /* \"#utility.yul\":3334:3339   */\n      dup2\n        /* \"#utility.yul\":3327:3340   */\n      iszero\n        /* \"#utility.yul\":3320:3341   */\n      iszero\n        /* \"#utility.yul\":3309:3341   */\n      swap1\n      pop\n        /* \"#utility.yul\":3257:3347   */\n      swap2\n      swap1\n      pop\n      jump\t// out\n        /* \"#utility.yul\":3353:3430   */\n    tag_96:\n        /* \"#utility.yul\":3390:3397   */\n      0x00\n        /* \"#utility.yul\":3419:3424   */\n      dup2\n        /* \"#utility.yul\":3408:3424   */\n      swap1\n      pop\n        /* \"#utility.yul\":3353:3430   */\n      swap2\n      swap1\n      pop\n      jump\t// out\n        /* \"#utility.yul\":3436:3590   */\n    tag_49:\n        /* \"#utility.yul\":3520:3526   */\n      dup3\n        /* \"#utility.yul\":3515:3518   */\n      dup2\n        /* \"#utility.yul\":3510:3513   */\n      dup4\n        /* \"#utility.yul\":3497:3527   */\n      calldatacopy\n        /* \"#utility.yul\":3582:3583   */\n      0x00\n        /* \"#utility.yul\":3573:3579   */\n      dup4\n        /* \"#utility.yul\":3568:3571   */\n      dup4\n        /* \"#utility.yul\":3564:3580   */\n      add\n        /* \"#utility.yul\":3557:3584   */\n      mstore\n        /* \"#utility.yul\":3436:3590   */\n      pop\n      pop\n      pop\n      jump\t// out\n        /* \"#utility.yul\":3596:3916   */\n    tag_28:\n        /* \"#utility.yul\":3640:3646   */\n      0x00\n        /* \"#utility.yul\":3677:3678   */\n      0x02\n        /* \"#utility.yul\":3671:3675   */\n      dup3\n        /* \"#utility.yul\":3667:3679   */\n      div\n        /* \"#utility.yul\":3657:3679   */\n      swap1\n      pop\n        /* \"#utility.yul\":3724:3725   */\n      0x01\n        /* \"#utility.yul\":3718:3722   */\n      dup3\n        /* \"#utility.yul\":3714:3726   */\n      and\n        /* \"#utility.yul\":3745:3763   */\n      dup1\n        /* \"#utility.yul\":3735:3816   */\n      tag_100\n      jumpi\n        /* \"#utility.yul\":3801:3805   */\n      0x7f\n        /* \"#utility.yul\":3793:3799   */\n      dup3\n        /* \"#utility.yul\":3789:3806   */\n      and\n        /* \"#utility.yul\":3779:3806   */\n      swap2\n      pop\n        /* \"#utility.yul\":3735:3816   */\n    tag_100:\n        /* \"#utility.yul\":3863:3865   */\n      0x20\n        /* \"#utility.yul\":3855:3861   */\n      dup3\n        /* \"#utility.yul\":3852:3866   */\n      lt\n        /* \"#utility.yul\":3832:3850   */\n      dup2\n        /* \"#utility.yul\":3829:3867   */\n      eq\n        /* \"#utility.yul\":3826:3910   */\n      iszero\n      tag_101\n      jumpi\n        /* \"#utility.yul\":3882:3900   */\n      tag_102\n      tag_103\n      jump\t// in\n    tag_102:\n        /* \"#utility.yul\":3826:3910   */\n    tag_101:\n        /* \"#utility.yul\":3647:3916   */\n      pop\n        /* \"#utility.yul\":3596:3916   */\n      swap2\n      swap1\n      pop\n      jump\t// out\n        /* \"#utility.yul\":3922:4203   */\n    tag_87:\n        /* \"#utility.yul\":4005:4032   */\n      tag_105\n        /* \"#utility.yul\":4027:4031   */\n      dup3\n        /* \"#utility.yul\":4005:4032   */\n      tag_94\n      jump\t// in\n    tag_105:\n        /* \"#utility.yul\":3997:4003   */\n      dup2\n        /* \"#utility.yul\":3993:4033   */\n      add\n        /* \"#utility.yul\":4135:4141   */\n      dup2\n        /* \"#utility.yul\":4123:4133   */\n      dup2\n        /* \"#utility.yul\":4120:4142   */\n      lt\n        /* \"#utility.yul\":4099:4117   */\n      0xffffffffffffffff\n        /* \"#utility.yul\":4087:4097   */\n      dup3\n        /* \"#utility.yul\":4084:4118   */\n      gt\n        /* \"#utility.yul\":4081:4143   */\n      or\n        /* \"#utility.yul\":4078:4166   */\n      iszero\n      tag_106\n      jumpi\n        /* \"#utility.yul\":4146:4164   */\n      tag_107\n      tag_92\n      jump\t// in\n    tag_107:\n        /* \"#utility.yul\":4078:4166   */\n    tag_106:\n        /* \"#utility.yul\":4186:4196   */\n      dup1\n        /* \"#utility.yul\":4182:4184   */\n      0x40\n        /* \"#utility.yul\":4175:4197   */\n      mstore\n        /* \"#utility.yul\":3965:4203   */\n      pop\n        /* \"#utility.yul\":3922:4203   */\n      pop\n      pop\n      jump\t// out\n        /* \"#utility.yul\":4209:4389   */\n    tag_103:\n        /* \"#utility.yul\":4257:4334   */\n      0x4e487b7100000000000000000000000000000000000000000000000000000000\n        /* \"#utility.yul\":4254:4255   */\n      0x00\n        /* \"#utility.yul\":4247:4335   */\n      mstore\n        /* \"#utility.yul\":4354:4358   */\n      0x22\n        /* \"#utility.yul\":4351:4352   */\n      0x04\n        /* \"#utility.yul\":4344:4359   */\n      mstore\n        /* \"#utility.yul\":4378:4382   */\n      0x24\n        /* \"#utility.yul\":4375:4376   */\n      0x00\n        /* \"#utility.yul\":4368:4383   */\n      revert\n        /* \"#utility.yul\":4395:4575   */\n    tag_18:\n        /* \"#utility.yul\":4443:4520   */\n      0x4e487b7100000000000000000000000000000000000000000000000000000000\n        /* \"#utility.yul\":4440:4441   */\n      0x00\n        /* \"#utility.yul\":4433:4521   */\n      mstore\n        /* \"#utility.yul\":4540:4544   */\n      0x32\n        /* \"#utility.yul\":4537:4538   */\n      0x04\n        /* \"#utility.yul\":4530:4545   */\n      mstore\n        /* \"#utility.yul\":4564:4568   */\n      0x24\n        /* \"#utility.yul\":4561:4562   */\n      0x00\n        /* \"#utility.yul\":4554:4569   */\n      revert\n        /* \"#utility.yul\":4581:4761   */\n    tag_92:\n        /* \"#utility.yul\":4629:4706   */\n      0x4e487b7100000000000000000000000000000000000000000000000000000000\n        /* \"#utility.yul\":4626:4627   */\n      0x00\n        /* \"#utility.yul\":4619:4707   */\n      mstore\n        /* \"#utility.yul\":4726:4730   */\n      0x41\n        /* \"#utility.yul\":4723:4724   */\n      0x04\n        /* \"#utility.yul\":4716:4731   */\n      mstore\n        /* \"#utility.yul\":4750:4754   */\n      0x24\n        /* \"#utility.yul\":4747:4748   */\n      0x00\n        /* \"#utility.yul\":4740:4755   */\n      revert\n        /* \"#utility.yul\":4767:4884   */\n    tag_54:\n        /* \"#utility.yul\":4876:4877   */\n      0x00\n        /* \"#utility.yul\":4873:4874   */\n      dup1\n        /* \"#utility.yul\":4866:4878   */\n      revert\n        /* \"#utility.yul\":4890:5007   */\n    tag_47:\n        /* \"#utility.yul\":4999:5000   */\n      0x00\n        /* \"#utility.yul\":4996:4997   */\n      dup1\n        /* \"#utility.yul\":4989:5001   */\n      revert\n        /* \"#utility.yul\":5013:5130   */\n    tag_66:\n        /* \"#utility.yul\":5122:5123   */\n      0x00\n        /* \"#utility.yul\":5119:5120   */\n      dup1\n        /* \"#utility.yul\":5112:5124   */\n      revert\n        /* \"#utility.yul\":5136:5253   */\n    tag_63:\n        /* \"#utility.yul\":5245:5246   */\n      0x00\n        /* \"#utility.yul\":5242:5243   */\n      dup1\n        /* \"#utility.yul\":5235:5247   */\n      revert\n        /* \"#utility.yul\":5259:5361   */\n    tag_94:\n        /* \"#utility.yul\":5300:5306   */\n      0x00\n        /* \"#utility.yul\":5351:5353   */\n      0x1f\n        /* \"#utility.yul\":5347:5354   */\n      not\n        /* \"#utility.yul\":5342:5344   */\n      0x1f\n        /* \"#utility.yul\":5335:5340   */\n      dup4\n        /* \"#utility.yul\":5331:5345   */\n      add\n        /* \"#utility.yul\":5327:5355   */\n      and\n        /* \"#utility.yul\":5317:5355   */\n      swap1\n      pop\n        /* \"#utility.yul\":5259:5361   */\n      swap2\n      swap1\n      pop\n      jump\t// out\n        /* \"#utility.yul\":5367:5489   */\n    tag_59:\n        /* \"#utility.yul\":5440:5464   */\n      tag_117\n        /* \"#utility.yul\":5458:5463   */\n      dup2\n        /* \"#utility.yul\":5440:5464   */\n      tag_96\n      jump\t// in\n    tag_117:\n        /* \"#utility.yul\":5433:5438   */\n      dup2\n        /* \"#utility.yul\":5430:5465   */\n      eq\n        /* \"#utility.yul\":5420:5483   */\n      tag_118\n      jumpi\n        /* \"#utility.yul\":5479:5480   */\n      0x00\n        /* \"#utility.yul\":5476:5477   */\n      dup1\n        /* \"#utility.yul\":5469:5481   */\n      revert\n        /* \"#utility.yul\":5420:5483   */\n    tag_118:\n        /* \"#utility.yul\":5367:5489   */\n      pop\n      jump\t// out\n\n    auxdata: 0xa2646970667358221220572b48b87ec8721664412c99dead4eb0a536e79357f1cac58225431c399774f564736f6c63430008070033\n}\n",
				"bytecode": {
					"linkReferences": {},
					"object": "60806040523480156200001157600080fd5b5060405162000a4238038062000a42833981810160405281019062000037919062000249565b83600083601e81106200004f576200004e62000433565b5b6004020160000190805190602001906200006b92919062000104565b5082600083601e811062000084576200008362000433565b5b600402016001019080519060200190620000a092919062000104565b5080600083601e8110620000b957620000b862000433565b5b600402016002018190555060008083601e8110620000dc57620000db62000433565b5b6004020160030160006101000a81548160ff02191690831515021790555050505050620004d0565b828054620001129062000398565b90600052602060002090601f01602090048101928262000136576000855562000182565b82601f106200015157805160ff191683800117855562000182565b8280016001018555821562000182579182015b828111156200018157825182559160200191906001019062000164565b5b50905062000191919062000195565b5090565b5b80821115620001b057600081600090555060010162000196565b5090565b6000620001cb620001c58462000322565b620002f9565b905082815260208101848484011115620001ea57620001e962000496565b5b620001f784828562000362565b509392505050565b600082601f83011262000217576200021662000491565b5b815162000229848260208601620001b4565b91505092915050565b6000815190506200024381620004b6565b92915050565b60008060008060808587031215620002665762000265620004a0565b5b600085015167ffffffffffffffff8111156200028757620002866200049b565b5b6200029587828801620001ff565b945050602085015167ffffffffffffffff811115620002b957620002b86200049b565b5b620002c787828801620001ff565b9350506040620002da8782880162000232565b9250506060620002ed8782880162000232565b91505092959194509250565b60006200030562000318565b9050620003138282620003ce565b919050565b6000604051905090565b600067ffffffffffffffff82111562000340576200033f62000462565b5b6200034b82620004a5565b9050602081019050919050565b6000819050919050565b60005b838110156200038257808201518184015260208101905062000365565b8381111562000392576000848401525b50505050565b60006002820490506001821680620003b157607f821691505b60208210811415620003c857620003c762000404565b5b50919050565b620003d982620004a5565b810181811067ffffffffffffffff82111715620003fb57620003fa62000462565b5b80604052505050565b7f4e487b7100000000000000000000000000000000000000000000000000000000600052602260045260246000fd5b7f4e487b7100000000000000000000000000000000000000000000000000000000600052603260045260246000fd5b7f4e487b7100000000000000000000000000000000000000000000000000000000600052604160045260246000fd5b600080fd5b600080fd5b600080fd5b600080fd5b6000601f19601f8301169050919050565b620004c18162000358565b8114620004cd57600080fd5b50565b61056280620004e06000396000f3fe608060405234801561001057600080fd5b50600436106100365760003560e01c8063792c3b111461003b578063eb620cb214610057575b600080fd5b6100556004803603810190610050919061028f565b610087565b005b610071600480360381019061006c919061032e565b610136565b60405161007e919061036a565b60405180910390f35b6000604051806080016040528086815260200185815260200183815260200160011515815250905080600084601e81106100c4576100c3610492565b5b6004020160008201518160000190805190602001906100e4929190610167565b506020820151816001019080519060200190610101929190610167565b506040820151816002015560608201518160030160006101000a81548160ff0219169083151502179055509050505050505050565b60008082601e811061014b5761014a610492565b5b6004020160030160009054906101000a900460ff169050919050565b82805461017390610400565b90600052602060002090601f01602090048101928261019557600085556101dc565b82601f106101ae57805160ff19168380011785556101dc565b828001600101855582156101dc579182015b828111156101db5782518255916020019190600101906101c0565b5b5090506101e991906101ed565b5090565b5b808211156102065760008160009055506001016101ee565b5090565b600061021d610218846103aa565b610385565b905082815260208101848484011115610239576102386104f5565b5b6102448482856103f1565b509392505050565b600082601f830112610261576102606104f0565b5b813561027184826020860161020a565b91505092915050565b60008135905061028981610515565b92915050565b600080600080608085870312156102a9576102a86104ff565b5b600085013567ffffffffffffffff8111156102c7576102c66104fa565b5b6102d38782880161024c565b945050602085013567ffffffffffffffff8111156102f4576102f36104fa565b5b6103008782880161024c565b93505060406103118782880161027a565b92505060606103228782880161027a565b91505092959194509250565b600060208284031215610344576103436104ff565b5b60006103528482850161027a565b91505092915050565b610364816103db565b82525050565b600060208201905061037f600083018461035b565b92915050565b600061038f6103a0565b905061039b8282610432565b919050565b6000604051905090565b600067ffffffffffffffff8211156103c5576103c46104c1565b5b6103ce82610504565b9050602081019050919050565b60008115159050919050565b6000819050919050565b82818337600083830152505050565b6000600282049050600182168061041857607f821691505b6020821081141561042c5761042b610463565b5b50919050565b61043b82610504565b810181811067ffffffffffffffff8211171561045a576104596104c1565b5b80604052505050565b7f4e487b7100000000000000000000000000000000000000000000000000000000600052602260045260246000fd5b7f4e487b7100000000000000000000000000000000000000000000000000000000600052603260045260246000fd5b7f4e487b7100000000000000000000000000000000000000000000000000000000600052604160045260246000fd5b600080fd5b600080fd5b600080fd5b600080fd5b6000601f19601f8301169050919050565b61051e816103e7565b811461052957600080fd5b5056fea2646970667358221220572b48b87ec8721664412c99dead4eb0a536e79357f1cac58225431c399774f564736f6c63430008070033",
					"opcodes": "PUSH1 0x80 PUSH1 0x40 MSTORE CALLVALUE DUP1 ISZERO PUSH3 0x11 JUMPI PUSH1 0x0 DUP1 REVERT JUMPDEST POP PUSH1 0x40 MLOAD PUSH3 0xA42 CODESIZE SUB DUP1 PUSH3 0xA42 DUP4 CODECOPY DUP2 DUP2 ADD PUSH1 0x40 MSTORE DUP2 ADD SWAP1 PUSH3 0x37 SWAP2 SWAP1 PUSH3 0x249 JUMP JUMPDEST DUP4 PUSH1 0x0 DUP4 PUSH1 0x1E DUP2 LT PUSH3 0x4F JUMPI PUSH3 0x4E PUSH3 0x433 JUMP JUMPDEST JUMPDEST PUSH1 0x4 MUL ADD PUSH1 0x0 ADD SWAP1 DUP1 MLOAD SWAP1 PUSH1 0x20 ADD SWAP1 PUSH3 0x6B SWAP3 SWAP2 SWAP1 PUSH3 0x104 JUMP JUMPDEST POP DUP3 PUSH1 0x0 DUP4 PUSH1 0x1E DUP2 LT PUSH3 0x84 JUMPI PUSH3 0x83 PUSH3 0x433 JUMP JUMPDEST JUMPDEST PUSH1 0x4 MUL ADD PUSH1 0x1 ADD SWAP1 DUP1 MLOAD SWAP1 PUSH1 0x20 ADD SWAP1 PUSH3 0xA0 SWAP3 SWAP2 SWAP1 PUSH3 0x104 JUMP JUMPDEST POP DUP1 PUSH1 0x0 DUP4 PUSH1 0x1E DUP2 LT PUSH3 0xB9 JUMPI PUSH3 0xB8 PUSH3 0x433 JUMP JUMPDEST JUMPDEST PUSH1 0x4 MUL ADD PUSH1 0x2 ADD DUP2 SWAP1 SSTORE POP PUSH1 0x0 DUP1 DUP4 PUSH1 0x1E DUP2 LT PUSH3 0xDC JUMPI PUSH3 0xDB PUSH3 0x433 JUMP JUMPDEST JUMPDEST PUSH1 0x4 MUL ADD PUSH1 0x3 ADD PUSH1 0x0 PUSH2 0x100 EXP DUP2 SLOAD DUP2 PUSH1 0xFF MUL NOT AND SWAP1 DUP4 ISZERO ISZERO MUL OR SWAP1 SSTORE POP POP POP POP POP PUSH3 0x4D0 JUMP JUMPDEST DUP3 DUP1 SLOAD PUSH3 0x112 SWAP1 PUSH3 0x398 JUMP JUMPDEST SWAP1 PUSH1 0x0 MSTORE PUSH1 0x20 PUSH1 0x0 KECCAK256 SWAP1 PUSH1 0x1F ADD PUSH1 0x20 SWAP1 DIV DUP2 ADD SWAP3 DUP3 PUSH3 0x136 JUMPI PUSH1 0x0 DUP6 SSTORE PUSH3 0x182 JUMP JUMPDEST DUP3 PUSH1 0x1F LT PUSH3 0x151 JUMPI DUP1 MLOAD PUSH1 0xFF NOT AND DUP4 DUP1 ADD OR DUP6 SSTORE PUSH3 0x182 JUMP JUMPDEST DUP3 DUP1 ADD PUSH1 0x1 ADD DUP6 SSTORE DUP3 ISZERO PUSH3 0x182 JUMPI SWAP2 DUP3 ADD JUMPDEST DUP3 DUP2 GT ISZERO PUSH3 0x181 JUMPI DUP3 MLOAD DUP3 SSTORE SWAP2 PUSH1 0x20 ADD SWAP2 SWAP1 PUSH1 0x1 ADD SWAP1 PUSH3 0x164 JUMP JUMPDEST JUMPDEST POP SWAP1 POP PUSH3 0x191 SWAP2 SWAP1 PUSH3 0x195 JUMP JUMPDEST POP SWAP1 JUMP JUMPDEST JUMPDEST DUP1 DUP3 GT ISZERO PUSH3 0x1B0 JUMPI PUSH1 0x0 DUP2 PUSH1 0x0 SWAP1 SSTORE POP PUSH1 0x1 ADD PUSH3 0x196 JUMP JUMPDEST POP SWAP1 JUMP JUMPDEST PUSH1 0x0 PUSH3 0x1CB PUSH3 0x1C5 DUP5 PUSH3 0x322 JUMP JUMPDEST PUSH3 0x2F9 JUMP JUMPDEST SWAP1 POP DUP3 DUP2 MSTORE PUSH1 0x20 DUP2 ADD DUP5 DUP5 DUP5 ADD GT ISZERO PUSH3 0x1EA JUMPI PUSH3 0x1E9 PUSH3 0x496 JUMP JUMPDEST JUMPDEST PUSH3 0x1F7 DUP5 DUP3 DUP6 PUSH3 0x362 JUMP JUMPDEST POP SWAP4 SWAP3 POP POP POP JUMP JUMPDEST PUSH1 0x0 DUP3 PUSH1 0x1F DUP4 ADD SLT PUSH3 0x217 JUMPI PUSH3 0x216 PUSH3 0x491 JUMP JUMPDEST JUMPDEST DUP2 MLOAD PUSH3 0x229 DUP5 DUP3 PUSH1 0x20 DUP7 ADD PUSH3 0x1B4 JUMP JUMPDEST SWAP2 POP POP SWAP3 SWAP2 POP POP JUMP JUMPDEST PUSH1 0x0 DUP2 MLOAD SWAP1 POP PUSH3 0x243 DUP2 PUSH3 0x4B6 JUMP JUMPDEST SWAP3 SWAP2 POP POP JUMP JUMPDEST PUSH1 0x0 DUP1 PUSH1 0x0 DUP1 PUSH1 0x80 DUP6 DUP8 SUB SLT ISZERO PUSH3 0x266 JUMPI PUSH3 0x265 PUSH3 0x4A0 JUMP JUMPDEST JUMPDEST PUSH1 0x0 DUP6 ADD MLOAD PUSH8 0xFFFFFFFFFFFFFFFF DUP2 GT ISZERO PUSH3 0x287 JUMPI PUSH3 0x286 PUSH3 0x49B JUMP JUMPDEST JUMPDEST PUSH3 0x295 DUP8 DUP3 DUP9 ADD PUSH3 0x1FF JUMP JUMPDEST SWAP5 POP POP PUSH1 0x20 DUP6 ADD MLOAD PUSH8 0xFFFFFFFFFFFFFFFF DUP2 GT ISZERO PUSH3 0x2B9 JUMPI PUSH3 0x2B8 PUSH3 0x49B JUMP JUMPDEST JUMPDEST PUSH3 0x2C7 DUP8 DUP3 DUP9 ADD PUSH3 0x1FF JUMP JUMPDEST SWAP4 POP POP PUSH1 0x40 PUSH3 0x2DA DUP8 DUP3 DUP9 ADD PUSH3 0x232 JUMP JUMPDEST SWAP3 POP POP PUSH1 0x60 PUSH3 0x2ED DUP8 DUP3 DUP9 ADD PUSH3 0x232 JUMP JUMPDEST SWAP2 POP POP SWAP3 SWAP6 SWAP2 SWAP5 POP SWAP3 POP JUMP JUMPDEST PUSH1 0x0 PUSH3 0x305 PUSH3 0x318 JUMP JUMPDEST SWAP1 POP PUSH3 0x313 DUP3 DUP3 PUSH3 0x3CE JUMP JUMPDEST SWAP2 SWAP1 POP JUMP JUMPDEST PUSH1 0x0 PUSH1 0x40 MLOAD SWAP1 POP SWAP1 JUMP JUMPDEST PUSH1 0x0 PUSH8 0xFFFFFFFFFFFFFFFF DUP3 GT ISZERO PUSH3 0x340 JUMPI PUSH3 0x33F PUSH3 0x462 JUMP JUMPDEST JUMPDEST PUSH3 0x34B DUP3 PUSH3 0x4A5 JUMP JUMPDEST SWAP1 POP PUSH1 0x20 DUP2 ADD SWAP1 POP SWAP2 SWAP1 POP JUMP JUMPDEST PUSH1 0x0 DUP2 SWAP1 POP SWAP2 SWAP1 POP JUMP JUMPDEST PUSH1 0x0 JUMPDEST DUP4 DUP2 LT ISZERO PUSH3 0x382 JUMPI DUP1 DUP3 ADD MLOAD DUP2 DUP5 ADD MSTORE PUSH1 0x20 DUP2 ADD SWAP1 POP PUSH3 0x365 JUMP JUMPDEST DUP4 DUP2 GT ISZERO PUSH3 0x392 JUMPI PUSH1 0x0 DUP5 DUP5 ADD MSTORE JUMPDEST POP POP POP POP JUMP JUMPDEST PUSH1 0x0 PUSH1 0x2 DUP3 DIV SWAP1 POP PUSH1 0x1 DUP3 AND DUP1 PUSH3 0x3B1 JUMPI PUSH1 0x7F DUP3 AND SWAP2 POP JUMPDEST PUSH1 0x20 DUP3 LT DUP2 EQ ISZERO PUSH3 0x3C8 JUMPI PUSH3 0x3C7 PUSH3 0x404 JUMP JUMPDEST JUMPDEST POP SWAP2 SWAP1 POP JUMP JUMPDEST PUSH3 0x3D9 DUP3 PUSH3 0x4A5 JUMP JUMPDEST DUP2 ADD DUP2 DUP2 LT PUSH8 0xFFFFFFFFFFFFFFFF DUP3 GT OR ISZERO PUSH3 0x3FB JUMPI PUSH3 0x3FA PUSH3 0x462 JUMP JUMPDEST JUMPDEST DUP1 PUSH1 0x40 MSTORE POP POP POP JUMP JUMPDEST PUSH32 0x4E487B7100000000000000000000000000000000000000000000000000000000 PUSH1 0x0 MSTORE PUSH1 0x22 PUSH1 0x4 MSTORE PUSH1 0x24 PUSH1 0x0 REVERT JUMPDEST PUSH32 0x4E487B7100000000000000000000000000000000000000000000000000000000 PUSH1 0x0 MSTORE PUSH1 0x32 PUSH1 0x4 MSTORE PUSH1 0x24 PUSH1 0x0 REVERT JUMPDEST PUSH32 0x4E487B7100000000000000000000000000000000000000000000000000000000 PUSH1 0x0 MSTORE PUSH1 0x41 PUSH1 0x4 MSTORE PUSH1 0x24 PUSH1 0x0 REVERT JUMPDEST PUSH1 0x0 DUP1 REVERT JUMPDEST PUSH1 0x0 DUP1 REVERT JUMPDEST PUSH1 0x0 DUP1 REVERT JUMPDEST PUSH1 0x0 DUP1 REVERT JUMPDEST PUSH1 0x0 PUSH1 0x1F NOT PUSH1 0x1F DUP4 ADD AND SWAP1 POP SWAP2 SWAP1 POP JUMP JUMPDEST PUSH3 0x4C1 DUP2 PUSH3 0x358 JUMP JUMPDEST DUP2 EQ PUSH3 0x4CD JUMPI PUSH1 0x0 DUP1 REVERT JUMPDEST POP JUMP JUMPDEST PUSH2 0x562 DUP1 PUSH3 0x4E0 PUSH1 0x0 CODECOPY PUSH1 0x0 RETURN INVALID PUSH1 0x80 PUSH1 0x40 MSTORE CALLVALUE DUP1 ISZERO PUSH2 0x10 JUMPI PUSH1 0x0 DUP1 REVERT JUMPDEST POP PUSH1 0x4 CALLDATASIZE LT PUSH2 0x36 JUMPI PUSH1 0x0 CALLDATALOAD PUSH1 0xE0 SHR DUP1 PUSH4 0x792C3B11 EQ PUSH2 0x3B JUMPI DUP1 PUSH4 0xEB620CB2 EQ PUSH2 0x57 JUMPI JUMPDEST PUSH1 0x0 DUP1 REVERT JUMPDEST PUSH2 0x55 PUSH1 0x4 DUP1 CALLDATASIZE SUB DUP2 ADD SWAP1 PUSH2 0x50 SWAP2 SWAP1 PUSH2 0x28F JUMP JUMPDEST PUSH2 0x87 JUMP JUMPDEST STOP JUMPDEST PUSH2 0x71 PUSH1 0x4 DUP1 CALLDATASIZE SUB DUP2 ADD SWAP1 PUSH2 0x6C SWAP2 SWAP1 PUSH2 0x32E JUMP JUMPDEST PUSH2 0x136 JUMP JUMPDEST PUSH1 0x40 MLOAD PUSH2 0x7E SWAP2 SWAP1 PUSH2 0x36A JUMP JUMPDEST PUSH1 0x40 MLOAD DUP1 SWAP2 SUB SWAP1 RETURN JUMPDEST PUSH1 0x0 PUSH1 0x40 MLOAD DUP1 PUSH1 0x80 ADD PUSH1 0x40 MSTORE DUP1 DUP7 DUP2 MSTORE PUSH1 0x20 ADD DUP6 DUP2 MSTORE PUSH1 0x20 ADD DUP4 DUP2 MSTORE PUSH1 0x20 ADD PUSH1 0x1 ISZERO ISZERO DUP2 MSTORE POP SWAP1 POP DUP1 PUSH1 0x0 DUP5 PUSH1 0x1E DUP2 LT PUSH2 0xC4 JUMPI PUSH2 0xC3 PUSH2 0x492 JUMP JUMPDEST JUMPDEST PUSH1 0x4 MUL ADD PUSH1 0x0 DUP3 ADD MLOAD DUP2 PUSH1 0x0 ADD SWAP1 DUP1 MLOAD SWAP1 PUSH1 0x20 ADD SWAP1 PUSH2 0xE4 SWAP3 SWAP2 SWAP1 PUSH2 0x167 JUMP JUMPDEST POP PUSH1 0x20 DUP3 ADD MLOAD DUP2 PUSH1 0x1 ADD SWAP1 DUP1 MLOAD SWAP1 PUSH1 0x20 ADD SWAP1 PUSH2 0x101 SWAP3 SWAP2 SWAP1 PUSH2 0x167 JUMP JUMPDEST POP PUSH1 0x40 DUP3 ADD MLOAD DUP2 PUSH1 0x2 ADD SSTORE PUSH1 0x60 DUP3 ADD MLOAD DUP2 PUSH1 0x3 ADD PUSH1 0x0 PUSH2 0x100 EXP DUP2 SLOAD DUP2 PUSH1 0xFF MUL NOT AND SWAP1 DUP4 ISZERO ISZERO MUL OR SWAP1 SSTORE POP SWAP1 POP POP POP POP POP POP POP JUMP JUMPDEST PUSH1 0x0 DUP1 DUP3 PUSH1 0x1E DUP2 LT PUSH2 0x14B JUMPI PUSH2 0x14A PUSH2 0x492 JUMP JUMPDEST JUMPDEST PUSH1 0x4 MUL ADD PUSH1 0x3 ADD PUSH1 0x0 SWAP1 SLOAD SWAP1 PUSH2 0x100 EXP SWAP1 DIV PUSH1 0xFF AND SWAP1 POP SWAP2 SWAP1 POP JUMP JUMPDEST DUP3 DUP1 SLOAD PUSH2 0x173 SWAP1 PUSH2 0x400 JUMP JUMPDEST SWAP1 PUSH1 0x0 MSTORE PUSH1 0x20 PUSH1 0x0 KECCAK256 SWAP1 PUSH1 0x1F ADD PUSH1 0x20 SWAP1 DIV DUP2 ADD SWAP3 DUP3 PUSH2 0x195 JUMPI PUSH1 0x0 DUP6 SSTORE PUSH2 0x1DC JUMP JUMPDEST DUP3 PUSH1 0x1F LT PUSH2 0x1AE JUMPI DUP1 MLOAD PUSH1 0xFF NOT AND DUP4 DUP1 ADD OR DUP6 SSTORE PUSH2 0x1DC JUMP JUMPDEST DUP3 DUP1 ADD PUSH1 0x1 ADD DUP6 SSTORE DUP3 ISZERO PUSH2 0x1DC JUMPI SWAP2 DUP3 ADD JUMPDEST DUP3 DUP2 GT ISZERO PUSH2 0x1DB JUMPI DUP3 MLOAD DUP3 SSTORE SWAP2 PUSH1 0x20 ADD SWAP2 SWAP1 PUSH1 0x1 ADD SWAP1 PUSH2 0x1C0 JUMP JUMPDEST JUMPDEST POP SWAP1 POP PUSH2 0x1E9 SWAP2 SWAP1 PUSH2 0x1ED JUMP JUMPDEST POP SWAP1 JUMP JUMPDEST JUMPDEST DUP1 DUP3 GT ISZERO PUSH2 0x206 JUMPI PUSH1 0x0 DUP2 PUSH1 0x0 SWAP1 SSTORE POP PUSH1 0x1 ADD PUSH2 0x1EE JUMP JUMPDEST POP SWAP1 JUMP JUMPDEST PUSH1 0x0 PUSH2 0x21D PUSH2 0x218 DUP5 PUSH2 0x3AA JUMP JUMPDEST PUSH2 0x385 JUMP JUMPDEST SWAP1 POP DUP3 DUP2 MSTORE PUSH1 0x20 DUP2 ADD DUP5 DUP5 DUP5 ADD GT ISZERO PUSH2 0x239 JUMPI PUSH2 0x238 PUSH2 0x4F5 JUMP JUMPDEST JUMPDEST PUSH2 0x244 DUP5 DUP3 DUP6 PUSH2 0x3F1 JUMP JUMPDEST POP SWAP4 SWAP3 POP POP POP JUMP JUMPDEST PUSH1 0x0 DUP3 PUSH1 0x1F DUP4 ADD SLT PUSH2 0x261 JUMPI PUSH2 0x260 PUSH2 0x4F0 JUMP JUMPDEST JUMPDEST DUP2 CALLDATALOAD PUSH2 0x271 DUP5 DUP3 PUSH1 0x20 DUP7 ADD PUSH2 0x20A JUMP JUMPDEST SWAP2 POP POP SWAP3 SWAP2 POP POP JUMP JUMPDEST PUSH1 0x0 DUP2 CALLDATALOAD SWAP1 POP PUSH2 0x289 DUP2 PUSH2 0x515 JUMP JUMPDEST SWAP3 SWAP2 POP POP JUMP JUMPDEST PUSH1 0x0 DUP1 PUSH1 0x0 DUP1 PUSH1 0x80 DUP6 DUP8 SUB SLT ISZERO PUSH2 0x2A9 JUMPI PUSH2 0x2A8 PUSH2 0x4FF JUMP JUMPDEST JUMPDEST PUSH1 0x0 DUP6 ADD CALLDATALOAD PUSH8 0xFFFFFFFFFFFFFFFF DUP2 GT ISZERO PUSH2 0x2C7 JUMPI PUSH2 0x2C6 PUSH2 0x4FA JUMP JUMPDEST JUMPDEST PUSH2 0x2D3 DUP8 DUP3 DUP9 ADD PUSH2 0x24C JUMP JUMPDEST SWAP5 POP POP PUSH1 0x20 DUP6 ADD CALLDATALOAD PUSH8 0xFFFFFFFFFFFFFFFF DUP2 GT ISZERO PUSH2 0x2F4 JUMPI PUSH2 0x2F3 PUSH2 0x4FA JUMP JUMPDEST JUMPDEST PUSH2 0x300 DUP8 DUP3 DUP9 ADD PUSH2 0x24C JUMP JUMPDEST SWAP4 POP POP PUSH1 0x40 PUSH2 0x311 DUP8 DUP3 DUP9 ADD PUSH2 0x27A JUMP JUMPDEST SWAP3 POP POP PUSH1 0x60 PUSH2 0x322 DUP8 DUP3 DUP9 ADD PUSH2 0x27A JUMP JUMPDEST SWAP2 POP POP SWAP3 SWAP6 SWAP2 SWAP5 POP SWAP3 POP JUMP JUMPDEST PUSH1 0x0 PUSH1 0x20 DUP3 DUP5 SUB SLT ISZERO PUSH2 0x344 JUMPI PUSH2 0x343 PUSH2 0x4FF JUMP JUMPDEST JUMPDEST PUSH1 0x0 PUSH2 0x352 DUP5 DUP3 DUP6 ADD PUSH2 0x27A JUMP JUMPDEST SWAP2 POP POP SWAP3 SWAP2 POP POP JUMP JUMPDEST PUSH2 0x364 DUP2 PUSH2 0x3DB JUMP JUMPDEST DUP3 MSTORE POP POP JUMP JUMPDEST PUSH1 0x0 PUSH1 0x20 DUP3 ADD SWAP1 POP PUSH2 0x37F PUSH1 0x0 DUP4 ADD DUP5 PUSH2 0x35B JUMP JUMPDEST SWAP3 SWAP2 POP POP JUMP JUMPDEST PUSH1 0x0 PUSH2 0x38F PUSH2 0x3A0 JUMP JUMPDEST SWAP1 POP PUSH2 0x39B DUP3 DUP3 PUSH2 0x432 JUMP JUMPDEST SWAP2 SWAP1 POP JUMP JUMPDEST PUSH1 0x0 PUSH1 0x40 MLOAD SWAP1 POP SWAP1 JUMP JUMPDEST PUSH1 0x0 PUSH8 0xFFFFFFFFFFFFFFFF DUP3 GT ISZERO PUSH2 0x3C5 JUMPI PUSH2 0x3C4 PUSH2 0x4C1 JUMP JUMPDEST JUMPDEST PUSH2 0x3CE DUP3 PUSH2 0x504 JUMP JUMPDEST SWAP1 POP PUSH1 0x20 DUP2 ADD SWAP1 POP SWAP2 SWAP1 POP JUMP JUMPDEST PUSH1 0x0 DUP2 ISZERO ISZERO SWAP1 POP SWAP2 SWAP1 POP JUMP JUMPDEST PUSH1 0x0 DUP2 SWAP1 POP SWAP2 SWAP1 POP JUMP JUMPDEST DUP3 DUP2 DUP4 CALLDATACOPY PUSH1 0x0 DUP4 DUP4 ADD MSTORE POP POP POP JUMP JUMPDEST PUSH1 0x0 PUSH1 0x2 DUP3 DIV SWAP1 POP PUSH1 0x1 DUP3 AND DUP1 PUSH2 0x418 JUMPI PUSH1 0x7F DUP3 AND SWAP2 POP JUMPDEST PUSH1 0x20 DUP3 LT DUP2 EQ ISZERO PUSH2 0x42C JUMPI PUSH2 0x42B PUSH2 0x463 JUMP JUMPDEST JUMPDEST POP SWAP2 SWAP1 POP JUMP JUMPDEST PUSH2 0x43B DUP3 PUSH2 0x504 JUMP JUMPDEST DUP2 ADD DUP2 DUP2 LT PUSH8 0xFFFFFFFFFFFFFFFF DUP3 GT OR ISZERO PUSH2 0x45A JUMPI PUSH2 0x459 PUSH2 0x4C1 JUMP JUMPDEST JUMPDEST DUP1 PUSH1 0x40 MSTORE POP POP POP JUMP JUMPDEST PUSH32 0x4E487B7100000000000000000000000000000000000000000000000000000000 PUSH1 0x0 MSTORE PUSH1 0x22 PUSH1 0x4 MSTORE PUSH1 0x24 PUSH1 0x0 REVERT JUMPDEST PUSH32 0x4E487B7100000000000000000000000000000000000000000000000000000000 PUSH1 0x0 MSTORE PUSH1 0x32 PUSH1 0x4 MSTORE PUSH1 0x24 PUSH1 0x0 REVERT JUMPDEST PUSH32 0x4E487B7100000000000000000000000000000000000000000000000000000000 PUSH1 0x0 MSTORE PUSH1 0x41 PUSH1 0x4 MSTORE PUSH1 0x24 PUSH1 0x0 REVERT JUMPDEST PUSH1 0x0 DUP1 REVERT JUMPDEST PUSH1 0x0 DUP1 REVERT JUMPDEST PUSH1 0x0 DUP1 REVERT JUMPDEST PUSH1 0x0 DUP1 REVERT JUMPDEST PUSH1 0x0 PUSH1 0x1F NOT PUSH1 0x1F DUP4 ADD AND SWAP1 POP SWAP2 SWAP1 POP JUMP JUMPDEST PUSH2 0x51E DUP2 PUSH2 0x3E7 JUMP JUMPDEST DUP2 EQ PUSH2 0x529 JUMPI PUSH1 0x0 DUP1 REVERT JUMPDEST POP JUMP INVALID LOG2 PUSH5 0x6970667358 0x22 SLT KECCAK256 JUMPI 0x2B BASEFEE 0xB8 PUSH31 0xC8721664412C99DEAD4EB0A536E79357F1CAC58225431C399774F564736F6C PUSH4 0x43000807 STOP CALLER "
				},
				"gasEstimates": {
					"creation": {
						"codeDepositCost": "275600",
						"executionCost": "infinite",
						"totalCost": "infinite"
					},
					"external": {
						"cosultarCertificado(uint256)": "2787",
						"guardarCertificado(string,string,uint256,uint256)": "infinite"
					}
				},
				"methodIdentifiers": {
					"cosultarCertificado(uint256)": "eb620cb2",
					"guardarCertificado(string,string,uint256,uint256)": "792c3b11"
				}
			},
			"storageLayout": {
				"storage": [
					{
						"astId": 15,
						"contract": "AsistenciaClase.sol:CertificadoAsistencia",
						"label": "alumnos",
						"offset": 0,
						"slot": "0",
						"type": "t_array(t_struct(Alumno)10_storage)30_storage"
					}
				],
				"types": {
					"t_array(t_struct(Alumno)10_storage)30_storage": {
						"base": "t_struct(Alumno)10_storage",
						"encoding": "inplace",
						"label": "struct CertificadoAsistencia.Alumno[30]",
						"numberOfBytes": "3840"
					},
					"t_bool": {
						"encoding": "inplace",
						"label": "bool",
						"numberOfBytes": "1"
					},
					"t_string_storage": {
						"encoding": "bytes",
						"label": "string",
						"numberOfBytes": "32"
					},
					"t_struct(Alumno)10_storage": {
						"encoding": "inplace",
						"label": "struct CertificadoAsistencia.Alumno",
						"members": [
							{
								"astId": 3,
								"contract": "AsistenciaClase.sol:CertificadoAsistencia",
								"label": "nombreEst",
								"offset": 0,
								"slot": "0",
								"type": "t_string_storage"
							},
							{
								"astId": 5,
								"contract": "AsistenciaClase.sol:CertificadoAsistencia",
								"label": "nombreCls",
								"offset": 0,
								"slot": "1",
								"type": "t_string_storage"
							},
							{
								"astId": 7,
								"contract": "AsistenciaClase.sol:CertificadoAsistencia",
								"label": "fechaParticipacion",
								"offset": 0,
								"slot": "2",
								"type": "t_uint256"
							},
							{
								"astId": 9,
								"contract": "AsistenciaClase.sol:CertificadoAsistencia",
								"label": "asistio",
								"offset": 0,
								"slot": "3",
								"type": "t_bool"
							}
						],
						"numberOfBytes": "128"
					},
					"t_uint256": {
						"encoding": "inplace",
						"label": "uint256",
						"numberOfBytes": "32"
					}
				}
			},
			"userdoc": {
				"kind": "user",
				"methods": {},
				"version": 1
			}
		}
	}
}