{
	"Asistencia.sol": {
		"CertificadoAsistencia": {
			"abi": [
				{
					"inputs": [
						{
							"internalType": "string",
							"name": "nombreC",
							"type": "string"
						}
					],
					"stateMutability": "nonpayable",
					"type": "constructor"
				},
				{
					"inputs": [
						{
							"internalType": "uint256",
							"name": "",
							"type": "uint256"
						}
					],
					"name": "alumnos",
					"outputs": [
						{
							"internalType": "string",
							"name": "nombreEst",
							"type": "string"
						},
						{
							"internalType": "uint256",
							"name": "fechaParticipacion",
							"type": "uint256"
						},
						{
							"internalType": "bool",
							"name": "asistio",
							"type": "bool"
						}
					],
					"stateMutability": "view",
					"type": "function"
				},
				{
					"inputs": [
						{
							"internalType": "uint256",
							"name": "codigoE",
							"type": "uint256"
						}
					],
					"name": "cosultarCertificado",
					"outputs": [
						{
							"components": [
								{
									"internalType": "string",
									"name": "nombreEst",
									"type": "string"
								},
								{
									"internalType": "uint256",
									"name": "fechaParticipacion",
									"type": "uint256"
								},
								{
									"internalType": "bool",
									"name": "asistio",
									"type": "bool"
								}
							],
							"internalType": "struct CertificadoAsistencia.Alumno",
							"name": "",
							"type": "tuple"
						}
					],
					"stateMutability": "view",
					"type": "function"
				},
				{
					"inputs": [],
					"name": "fechaCurso",
					"outputs": [
						{
							"internalType": "uint256",
							"name": "",
							"type": "uint256"
						}
					],
					"stateMutability": "view",
					"type": "function"
				},
				{
					"inputs": [
						{
							"internalType": "string",
							"name": "nombreE",
							"type": "string"
						},
						{
							"internalType": "uint256",
							"name": "codigoE",
							"type": "uint256"
						}
					],
					"name": "guardarCertificado",
					"outputs": [],
					"stateMutability": "nonpayable",
					"type": "function"
				},
				{
					"inputs": [],
					"name": "nombreCls",
					"outputs": [
						{
							"internalType": "string",
							"name": "",
							"type": "string"
						}
					],
					"stateMutability": "view",
					"type": "function"
				}
			],
			"devdoc": {
				"kind": "dev",
				"methods": {},
				"version": 1
			},
			"evm": {
				"assembly": "    /* \"Asistencia.sol\":60:819  contract CertificadoAsistencia {\r... */\n  mstore(0x40, 0x80)\n    /* \"Asistencia.sol\":320:487  constructor(string memory nombreC){\r... */\n  callvalue\n  dup1\n  iszero\n  tag_1\n  jumpi\n  0x00\n  dup1\n  revert\ntag_1:\n  pop\n  mload(0x40)\n  sub(codesize, bytecodeSize)\n  dup1\n  bytecodeSize\n  dup4\n  codecopy\n  dup2\n  dup2\n  add\n  0x40\n  mstore\n  dup2\n  add\n  swap1\n  tag_2\n  swap2\n  swap1\n  tag_3\n  jump\t// in\ntag_2:\n    /* \"Asistencia.sol\":377:384  nombreC */\n  dup1\n    /* \"Asistencia.sol\":365:374  nombreCls */\n  0x01\n    /* \"Asistencia.sol\":365:384  nombreCls = nombreC */\n  swap1\n  dup1\n  mload\n  swap1\n  0x20\n  add\n  swap1\n  tag_6\n  swap3\n  swap2\n  swap1\n  tag_7\n  jump\t// in\ntag_6:\n  pop\n    /* \"Asistencia.sol\":447:462  block.timestamp */\n  timestamp\n    /* \"Asistencia.sol\":434:444  fechaCurso */\n  0x02\n    /* \"Asistencia.sol\":434:462  fechaCurso = block.timestamp */\n  dup2\n  swap1\n  sstore\n  pop\n    /* \"Asistencia.sol\":320:487  constructor(string memory nombreC){\r... */\n  pop\n    /* \"Asistencia.sol\":60:819  contract CertificadoAsistencia {\r... */\n  jump(tag_8)\ntag_7:\n  dup3\n  dup1\n  sload\n  tag_9\n  swap1\n  tag_10\n  jump\t// in\ntag_9:\n  swap1\n  0x00\n  mstore\n  keccak256(0x00, 0x20)\n  swap1\n  0x1f\n  add\n  0x20\n  swap1\n  div\n  dup2\n  add\n  swap3\n  dup3\n  tag_12\n  jumpi\n  0x00\n  dup6\n  sstore\n  jump(tag_11)\ntag_12:\n  dup3\n  0x1f\n  lt\n  tag_13\n  jumpi\n  dup1\n  mload\n  not(0xff)\n  and\n  dup4\n  dup1\n  add\n  or\n  dup6\n  sstore\n  jump(tag_11)\ntag_13:\n  dup3\n  dup1\n  add\n  0x01\n  add\n  dup6\n  sstore\n  dup3\n  iszero\n  tag_11\n  jumpi\n  swap2\n  dup3\n  add\ntag_14:\n  dup3\n  dup2\n  gt\n  iszero\n  tag_15\n  jumpi\n  dup3\n  mload\n  dup3\n  sstore\n  swap2\n  0x20\n  add\n  swap2\n  swap1\n  0x01\n  add\n  swap1\n  jump(tag_14)\ntag_15:\ntag_11:\n  pop\n  swap1\n  pop\n  tag_16\n  swap2\n  swap1\n  tag_17\n  jump\t// in\ntag_16:\n  pop\n  swap1\n  jump\t// out\ntag_17:\ntag_18:\n  dup1\n  dup3\n  gt\n  iszero\n  tag_19\n  jumpi\n  0x00\n  dup2\n  0x00\n  swap1\n  sstore\n  pop\n  0x01\n  add\n  jump(tag_18)\ntag_19:\n  pop\n  swap1\n  jump\t// out\n    /* \"#utility.yul\":7:361   */\ntag_21:\n    /* \"#utility.yul\":96:101   */\n  0x00\n    /* \"#utility.yul\":121:187   */\n  tag_23\n    /* \"#utility.yul\":137:186   */\n  tag_24\n    /* \"#utility.yul\":179:185   */\n  dup5\n    /* \"#utility.yul\":137:186   */\n  tag_25\n  jump\t// in\ntag_24:\n    /* \"#utility.yul\":121:187   */\n  tag_26\n  jump\t// in\ntag_23:\n    /* \"#utility.yul\":112:187   */\n  swap1\n  pop\n    /* \"#utility.yul\":210:216   */\n  dup3\n    /* \"#utility.yul\":203:208   */\n  dup2\n    /* \"#utility.yul\":196:217   */\n  mstore\n    /* \"#utility.yul\":248:252   */\n  0x20\n    /* \"#utility.yul\":241:246   */\n  dup2\n    /* \"#utility.yul\":237:253   */\n  add\n    /* \"#utility.yul\":286:289   */\n  dup5\n    /* \"#utility.yul\":277:283   */\n  dup5\n    /* \"#utility.yul\":272:275   */\n  dup5\n    /* \"#utility.yul\":268:284   */\n  add\n    /* \"#utility.yul\":265:290   */\n  gt\n    /* \"#utility.yul\":262:264   */\n  iszero\n  tag_27\n  jumpi\n    /* \"#utility.yul\":303:304   */\n  0x00\n    /* \"#utility.yul\":300:301   */\n  dup1\n    /* \"#utility.yul\":293:305   */\n  revert\n    /* \"#utility.yul\":262:264   */\ntag_27:\n    /* \"#utility.yul\":316:355   */\n  tag_28\n    /* \"#utility.yul\":348:354   */\n  dup5\n    /* \"#utility.yul\":343:346   */\n  dup3\n    /* \"#utility.yul\":338:341   */\n  dup6\n    /* \"#utility.yul\":316:355   */\n  tag_29\n  jump\t// in\ntag_28:\n    /* \"#utility.yul\":102:361   */\n  pop\n  swap4\n  swap3\n  pop\n  pop\n  pop\n  jump\t// out\n    /* \"#utility.yul\":381:669   */\ntag_30:\n    /* \"#utility.yul\":448:453   */\n  0x00\n    /* \"#utility.yul\":497:500   */\n  dup3\n    /* \"#utility.yul\":490:494   */\n  0x1f\n    /* \"#utility.yul\":482:488   */\n  dup4\n    /* \"#utility.yul\":478:495   */\n  add\n    /* \"#utility.yul\":474:501   */\n  slt\n    /* \"#utility.yul\":464:466   */\n  tag_32\n  jumpi\n    /* \"#utility.yul\":515:516   */\n  0x00\n    /* \"#utility.yul\":512:513   */\n  dup1\n    /* \"#utility.yul\":505:517   */\n  revert\n    /* \"#utility.yul\":464:466   */\ntag_32:\n    /* \"#utility.yul\":548:554   */\n  dup2\n    /* \"#utility.yul\":542:555   */\n  mload\n    /* \"#utility.yul\":573:663   */\n  tag_33\n    /* \"#utility.yul\":659:662   */\n  dup5\n    /* \"#utility.yul\":651:657   */\n  dup3\n    /* \"#utility.yul\":644:648   */\n  0x20\n    /* \"#utility.yul\":636:642   */\n  dup7\n    /* \"#utility.yul\":632:649   */\n  add\n    /* \"#utility.yul\":573:663   */\n  tag_21\n  jump\t// in\ntag_33:\n    /* \"#utility.yul\":564:663   */\n  swap2\n  pop\n    /* \"#utility.yul\":454:669   */\n  pop\n  swap3\n  swap2\n  pop\n  pop\n  jump\t// out\n    /* \"#utility.yul\":675:1065   */\ntag_3:\n    /* \"#utility.yul\":755:761   */\n  0x00\n    /* \"#utility.yul\":804:806   */\n  0x20\n    /* \"#utility.yul\":792:801   */\n  dup3\n    /* \"#utility.yul\":783:790   */\n  dup5\n    /* \"#utility.yul\":779:802   */\n  sub\n    /* \"#utility.yul\":775:807   */\n  slt\n    /* \"#utility.yul\":772:774   */\n  iszero\n  tag_35\n  jumpi\n    /* \"#utility.yul\":820:821   */\n  0x00\n    /* \"#utility.yul\":817:818   */\n  dup1\n    /* \"#utility.yul\":810:822   */\n  revert\n    /* \"#utility.yul\":772:774   */\ntag_35:\n    /* \"#utility.yul\":884:885   */\n  0x00\n    /* \"#utility.yul\":873:882   */\n  dup3\n    /* \"#utility.yul\":869:886   */\n  add\n    /* \"#utility.yul\":863:887   */\n  mload\n    /* \"#utility.yul\":914:932   */\n  0xffffffffffffffff\n    /* \"#utility.yul\":906:912   */\n  dup2\n    /* \"#utility.yul\":903:933   */\n  gt\n    /* \"#utility.yul\":900:902   */\n  iszero\n  tag_36\n  jumpi\n    /* \"#utility.yul\":946:947   */\n  0x00\n    /* \"#utility.yul\":943:944   */\n  dup1\n    /* \"#utility.yul\":936:948   */\n  revert\n    /* \"#utility.yul\":900:902   */\ntag_36:\n    /* \"#utility.yul\":974:1048   */\n  tag_37\n    /* \"#utility.yul\":1040:1047   */\n  dup5\n    /* \"#utility.yul\":1031:1037   */\n  dup3\n    /* \"#utility.yul\":1020:1029   */\n  dup6\n    /* \"#utility.yul\":1016:1038   */\n  add\n    /* \"#utility.yul\":974:1048   */\n  tag_30\n  jump\t// in\ntag_37:\n    /* \"#utility.yul\":964:1048   */\n  swap2\n  pop\n    /* \"#utility.yul\":834:1058   */\n  pop\n    /* \"#utility.yul\":762:1065   */\n  swap3\n  swap2\n  pop\n  pop\n  jump\t// out\n    /* \"#utility.yul\":1071:1200   */\ntag_26:\n    /* \"#utility.yul\":1105:1111   */\n  0x00\n    /* \"#utility.yul\":1132:1152   */\n  tag_39\n  tag_40\n  jump\t// in\ntag_39:\n    /* \"#utility.yul\":1122:1152   */\n  swap1\n  pop\n    /* \"#utility.yul\":1161:1194   */\n  tag_41\n    /* \"#utility.yul\":1189:1193   */\n  dup3\n    /* \"#utility.yul\":1181:1187   */\n  dup3\n    /* \"#utility.yul\":1161:1194   */\n  tag_42\n  jump\t// in\ntag_41:\n    /* \"#utility.yul\":1112:1200   */\n  swap2\n  swap1\n  pop\n  jump\t// out\n    /* \"#utility.yul\":1206:1281   */\ntag_40:\n    /* \"#utility.yul\":1239:1245   */\n  0x00\n    /* \"#utility.yul\":1272:1274   */\n  0x40\n    /* \"#utility.yul\":1266:1275   */\n  mload\n    /* \"#utility.yul\":1256:1275   */\n  swap1\n  pop\n    /* \"#utility.yul\":1246:1281   */\n  swap1\n  jump\t// out\n    /* \"#utility.yul\":1287:1595   */\ntag_25:\n    /* \"#utility.yul\":1349:1353   */\n  0x00\n    /* \"#utility.yul\":1439:1457   */\n  0xffffffffffffffff\n    /* \"#utility.yul\":1431:1437   */\n  dup3\n    /* \"#utility.yul\":1428:1458   */\n  gt\n    /* \"#utility.yul\":1425:1427   */\n  iszero\n  tag_45\n  jumpi\n    /* \"#utility.yul\":1461:1479   */\n  tag_46\n  tag_47\n  jump\t// in\ntag_46:\n    /* \"#utility.yul\":1425:1427   */\ntag_45:\n    /* \"#utility.yul\":1499:1528   */\n  tag_48\n    /* \"#utility.yul\":1521:1527   */\n  dup3\n    /* \"#utility.yul\":1499:1528   */\n  tag_49\n  jump\t// in\ntag_48:\n    /* \"#utility.yul\":1491:1528   */\n  swap1\n  pop\n    /* \"#utility.yul\":1583:1587   */\n  0x20\n    /* \"#utility.yul\":1577:1581   */\n  dup2\n    /* \"#utility.yul\":1573:1588   */\n  add\n    /* \"#utility.yul\":1565:1588   */\n  swap1\n  pop\n    /* \"#utility.yul\":1354:1595   */\n  swap2\n  swap1\n  pop\n  jump\t// out\n    /* \"#utility.yul\":1601:1908   */\ntag_29:\n    /* \"#utility.yul\":1669:1670   */\n  0x00\n    /* \"#utility.yul\":1679:1792   */\ntag_51:\n    /* \"#utility.yul\":1693:1699   */\n  dup4\n    /* \"#utility.yul\":1690:1691   */\n  dup2\n    /* \"#utility.yul\":1687:1700   */\n  lt\n    /* \"#utility.yul\":1679:1792   */\n  iszero\n  tag_53\n  jumpi\n    /* \"#utility.yul\":1778:1779   */\n  dup1\n    /* \"#utility.yul\":1773:1776   */\n  dup3\n    /* \"#utility.yul\":1769:1780   */\n  add\n    /* \"#utility.yul\":1763:1781   */\n  mload\n    /* \"#utility.yul\":1759:1760   */\n  dup2\n    /* \"#utility.yul\":1754:1757   */\n  dup5\n    /* \"#utility.yul\":1750:1761   */\n  add\n    /* \"#utility.yul\":1743:1782   */\n  mstore\n    /* \"#utility.yul\":1715:1717   */\n  0x20\n    /* \"#utility.yul\":1712:1713   */\n  dup2\n    /* \"#utility.yul\":1708:1718   */\n  add\n    /* \"#utility.yul\":1703:1718   */\n  swap1\n  pop\n    /* \"#utility.yul\":1679:1792   */\n  jump(tag_51)\ntag_53:\n    /* \"#utility.yul\":1810:1816   */\n  dup4\n    /* \"#utility.yul\":1807:1808   */\n  dup2\n    /* \"#utility.yul\":1804:1817   */\n  gt\n    /* \"#utility.yul\":1801:1803   */\n  iszero\n  tag_54\n  jumpi\n    /* \"#utility.yul\":1890:1891   */\n  0x00\n    /* \"#utility.yul\":1881:1887   */\n  dup5\n    /* \"#utility.yul\":1876:1879   */\n  dup5\n    /* \"#utility.yul\":1872:1888   */\n  add\n    /* \"#utility.yul\":1865:1892   */\n  mstore\n    /* \"#utility.yul\":1801:1803   */\ntag_54:\n    /* \"#utility.yul\":1650:1908   */\n  pop\n  pop\n  pop\n  pop\n  jump\t// out\n    /* \"#utility.yul\":1914:2234   */\ntag_10:\n    /* \"#utility.yul\":1958:1964   */\n  0x00\n    /* \"#utility.yul\":1995:1996   */\n  0x02\n    /* \"#utility.yul\":1989:1993   */\n  dup3\n    /* \"#utility.yul\":1985:1997   */\n  div\n    /* \"#utility.yul\":1975:1997   */\n  swap1\n  pop\n    /* \"#utility.yul\":2042:2043   */\n  0x01\n    /* \"#utility.yul\":2036:2040   */\n  dup3\n    /* \"#utility.yul\":2032:2044   */\n  and\n    /* \"#utility.yul\":2063:2081   */\n  dup1\n    /* \"#utility.yul\":2053:2055   */\n  tag_56\n  jumpi\n    /* \"#utility.yul\":2119:2123   */\n  0x7f\n    /* \"#utility.yul\":2111:2117   */\n  dup3\n    /* \"#utility.yul\":2107:2124   */\n  and\n    /* \"#utility.yul\":2097:2124   */\n  swap2\n  pop\n    /* \"#utility.yul\":2053:2055   */\ntag_56:\n    /* \"#utility.yul\":2181:2183   */\n  0x20\n    /* \"#utility.yul\":2173:2179   */\n  dup3\n    /* \"#utility.yul\":2170:2184   */\n  lt\n    /* \"#utility.yul\":2150:2168   */\n  dup2\n    /* \"#utility.yul\":2147:2185   */\n  eq\n    /* \"#utility.yul\":2144:2146   */\n  iszero\n  tag_57\n  jumpi\n    /* \"#utility.yul\":2200:2218   */\n  tag_58\n  tag_59\n  jump\t// in\ntag_58:\n    /* \"#utility.yul\":2144:2146   */\ntag_57:\n    /* \"#utility.yul\":1965:2234   */\n  pop\n  swap2\n  swap1\n  pop\n  jump\t// out\n    /* \"#utility.yul\":2240:2521   */\ntag_42:\n    /* \"#utility.yul\":2323:2350   */\n  tag_61\n    /* \"#utility.yul\":2345:2349   */\n  dup3\n    /* \"#utility.yul\":2323:2350   */\n  tag_49\n  jump\t// in\ntag_61:\n    /* \"#utility.yul\":2315:2321   */\n  dup2\n    /* \"#utility.yul\":2311:2351   */\n  add\n    /* \"#utility.yul\":2453:2459   */\n  dup2\n    /* \"#utility.yul\":2441:2451   */\n  dup2\n    /* \"#utility.yul\":2438:2460   */\n  lt\n    /* \"#utility.yul\":2417:2435   */\n  0xffffffffffffffff\n    /* \"#utility.yul\":2405:2415   */\n  dup3\n    /* \"#utility.yul\":2402:2436   */\n  gt\n    /* \"#utility.yul\":2399:2461   */\n  or\n    /* \"#utility.yul\":2396:2398   */\n  iszero\n  tag_62\n  jumpi\n    /* \"#utility.yul\":2464:2482   */\n  tag_63\n  tag_47\n  jump\t// in\ntag_63:\n    /* \"#utility.yul\":2396:2398   */\ntag_62:\n    /* \"#utility.yul\":2504:2514   */\n  dup1\n    /* \"#utility.yul\":2500:2502   */\n  0x40\n    /* \"#utility.yul\":2493:2515   */\n  mstore\n    /* \"#utility.yul\":2283:2521   */\n  pop\n  pop\n  pop\n  jump\t// out\n    /* \"#utility.yul\":2527:2707   */\ntag_59:\n    /* \"#utility.yul\":2575:2652   */\n  0x4e487b7100000000000000000000000000000000000000000000000000000000\n    /* \"#utility.yul\":2572:2573   */\n  0x00\n    /* \"#utility.yul\":2565:2653   */\n  mstore\n    /* \"#utility.yul\":2672:2676   */\n  0x22\n    /* \"#utility.yul\":2669:2670   */\n  0x04\n    /* \"#utility.yul\":2662:2677   */\n  mstore\n    /* \"#utility.yul\":2696:2700   */\n  0x24\n    /* \"#utility.yul\":2693:2694   */\n  0x00\n    /* \"#utility.yul\":2686:2701   */\n  revert\n    /* \"#utility.yul\":2713:2893   */\ntag_47:\n    /* \"#utility.yul\":2761:2838   */\n  0x4e487b7100000000000000000000000000000000000000000000000000000000\n    /* \"#utility.yul\":2758:2759   */\n  0x00\n    /* \"#utility.yul\":2751:2839   */\n  mstore\n    /* \"#utility.yul\":2858:2862   */\n  0x41\n    /* \"#utility.yul\":2855:2856   */\n  0x04\n    /* \"#utility.yul\":2848:2863   */\n  mstore\n    /* \"#utility.yul\":2882:2886   */\n  0x24\n    /* \"#utility.yul\":2879:2880   */\n  0x00\n    /* \"#utility.yul\":2872:2887   */\n  revert\n    /* \"#utility.yul\":2899:3001   */\ntag_49:\n    /* \"#utility.yul\":2940:2946   */\n  0x00\n    /* \"#utility.yul\":2991:2993   */\n  0x1f\n    /* \"#utility.yul\":2987:2994   */\n  not\n    /* \"#utility.yul\":2982:2984   */\n  0x1f\n    /* \"#utility.yul\":2975:2980   */\n  dup4\n    /* \"#utility.yul\":2971:2985   */\n  add\n    /* \"#utility.yul\":2967:2995   */\n  and\n    /* \"#utility.yul\":2957:2995   */\n  swap1\n  pop\n    /* \"#utility.yul\":2947:3001   */\n  swap2\n  swap1\n  pop\n  jump\t// out\n    /* \"Asistencia.sol\":60:819  contract CertificadoAsistencia {\r... */\ntag_8:\n  dataSize(sub_0)\n  dup1\n  dataOffset(sub_0)\n  0x00\n  codecopy\n  0x00\n  return\nstop\n\nsub_0: assembly {\n        /* \"Asistencia.sol\":60:819  contract CertificadoAsistencia {\r... */\n      mstore(0x40, 0x80)\n      callvalue\n      dup1\n      iszero\n      tag_1\n      jumpi\n      0x00\n      dup1\n      revert\n    tag_1:\n      pop\n      jumpi(tag_2, lt(calldatasize, 0x04))\n      shr(0xe0, calldataload(0x00))\n      dup1\n      0x10d6f418\n      eq\n      tag_3\n      jumpi\n      dup1\n      0x392eda78\n      eq\n      tag_4\n      jumpi\n      dup1\n      0x69ddcade\n      eq\n      tag_5\n      jumpi\n      dup1\n      0xaec1ef49\n      eq\n      tag_6\n      jumpi\n      dup1\n      0xeb620cb2\n      eq\n      tag_7\n      jumpi\n    tag_2:\n      0x00\n      dup1\n      revert\n        /* \"Asistencia.sol\":495:686  function guardarCertificado(string memory nombreE, uint codigoE) public {\r... */\n    tag_3:\n      tag_8\n      0x04\n      dup1\n      calldatasize\n      sub\n      dup2\n      add\n      swap1\n      tag_9\n      swap2\n      swap1\n      tag_10\n      jump\t// in\n    tag_9:\n      tag_11\n      jump\t// in\n    tag_8:\n      stop\n        /* \"Asistencia.sol\":259:282  string public nombreCls */\n    tag_4:\n      tag_12\n      tag_13\n      jump\t// in\n    tag_12:\n      mload(0x40)\n      tag_14\n      swap2\n      swap1\n      tag_15\n      jump\t// in\n    tag_14:\n      mload(0x40)\n      dup1\n      swap2\n      sub\n      swap1\n      return\n        /* \"Asistencia.sol\":206:251  mapping (\r... */\n    tag_5:\n      tag_16\n      0x04\n      dup1\n      calldatasize\n      sub\n      dup2\n      add\n      swap1\n      tag_17\n      swap2\n      swap1\n      tag_18\n      jump\t// in\n    tag_17:\n      tag_19\n      jump\t// in\n    tag_16:\n      mload(0x40)\n      tag_20\n      swap4\n      swap3\n      swap2\n      swap1\n      tag_21\n      jump\t// in\n    tag_20:\n      mload(0x40)\n      dup1\n      swap2\n      sub\n      swap1\n      return\n        /* \"Asistencia.sol\":289:311  uint public fechaCurso */\n    tag_6:\n      tag_22\n      tag_23\n      jump\t// in\n    tag_22:\n      mload(0x40)\n      tag_24\n      swap2\n      swap1\n      tag_25\n      jump\t// in\n    tag_24:\n      mload(0x40)\n      dup1\n      swap2\n      sub\n      swap1\n      return\n        /* \"Asistencia.sol\":694:816  function cosultarCertificado(uint codigoE) public  view returns (Alumno memory) {\r... */\n    tag_7:\n      tag_26\n      0x04\n      dup1\n      calldatasize\n      sub\n      dup2\n      add\n      swap1\n      tag_27\n      swap2\n      swap1\n      tag_18\n      jump\t// in\n    tag_27:\n      tag_28\n      jump\t// in\n    tag_26:\n      mload(0x40)\n      tag_29\n      swap2\n      swap1\n      tag_30\n      jump\t// in\n    tag_29:\n      mload(0x40)\n      dup1\n      swap2\n      sub\n      swap1\n      return\n        /* \"Asistencia.sol\":495:686  function guardarCertificado(string memory nombreE, uint codigoE) public {\r... */\n    tag_11:\n        /* \"Asistencia.sol\":578:602  Alumno memory estudiante */\n      0x00\n        /* \"Asistencia.sol\":605:638  Alumno(nombreE, fechaCurso, true) */\n      mload(0x40)\n      dup1\n      0x60\n      add\n      0x40\n      mstore\n      dup1\n        /* \"Asistencia.sol\":612:619  nombreE */\n      dup5\n        /* \"Asistencia.sol\":605:638  Alumno(nombreE, fechaCurso, true) */\n      dup2\n      mstore\n      0x20\n      add\n        /* \"Asistencia.sol\":621:631  fechaCurso */\n      sload(0x02)\n        /* \"Asistencia.sol\":605:638  Alumno(nombreE, fechaCurso, true) */\n      dup2\n      mstore\n      0x20\n      add\n        /* \"Asistencia.sol\":633:637  true */\n      0x01\n        /* \"Asistencia.sol\":605:638  Alumno(nombreE, fechaCurso, true) */\n      iszero\n      iszero\n      dup2\n      mstore\n      pop\n        /* \"Asistencia.sol\":578:638  Alumno memory estudiante = Alumno(nombreE, fechaCurso, true) */\n      swap1\n      pop\n        /* \"Asistencia.sol\":668:678  estudiante */\n      dup1\n        /* \"Asistencia.sol\":649:656  alumnos */\n      0x00\n        /* \"Asistencia.sol\":649:665  alumnos[codigoE] */\n      dup1\n        /* \"Asistencia.sol\":657:664  codigoE */\n      dup5\n        /* \"Asistencia.sol\":649:665  alumnos[codigoE] */\n      dup2\n      mstore\n      0x20\n      add\n      swap1\n      dup2\n      mstore\n      0x20\n      add\n      0x00\n      keccak256\n        /* \"Asistencia.sol\":649:678  alumnos[codigoE] = estudiante */\n      0x00\n      dup3\n      add\n      mload\n      dup2\n      0x00\n      add\n      swap1\n      dup1\n      mload\n      swap1\n      0x20\n      add\n      swap1\n      tag_32\n      swap3\n      swap2\n      swap1\n      tag_33\n      jump\t// in\n    tag_32:\n      pop\n      0x20\n      dup3\n      add\n      mload\n      dup2\n      0x01\n      add\n      sstore\n      0x40\n      dup3\n      add\n      mload\n      dup2\n      0x02\n      add\n      exp(0x0100, 0x00)\n      dup2\n      sload\n      dup2\n      0xff\n      mul\n      not\n      and\n      swap1\n      dup4\n      iszero\n      iszero\n      mul\n      or\n      swap1\n      sstore\n      pop\n      swap1\n      pop\n      pop\n        /* \"Asistencia.sol\":495:686  function guardarCertificado(string memory nombreE, uint codigoE) public {\r... */\n      pop\n      pop\n      pop\n      jump\t// out\n        /* \"Asistencia.sol\":259:282  string public nombreCls */\n    tag_13:\n      0x01\n      dup1\n      sload\n      tag_34\n      swap1\n      tag_35\n      jump\t// in\n    tag_34:\n      dup1\n      0x1f\n      add\n      0x20\n      dup1\n      swap2\n      div\n      mul\n      0x20\n      add\n      mload(0x40)\n      swap1\n      dup2\n      add\n      0x40\n      mstore\n      dup1\n      swap3\n      swap2\n      swap1\n      dup2\n      dup2\n      mstore\n      0x20\n      add\n      dup3\n      dup1\n      sload\n      tag_36\n      swap1\n      tag_35\n      jump\t// in\n    tag_36:\n      dup1\n      iszero\n      tag_37\n      jumpi\n      dup1\n      0x1f\n      lt\n      tag_38\n      jumpi\n      0x0100\n      dup1\n      dup4\n      sload\n      div\n      mul\n      dup4\n      mstore\n      swap2\n      0x20\n      add\n      swap2\n      jump(tag_37)\n    tag_38:\n      dup3\n      add\n      swap2\n      swap1\n      0x00\n      mstore\n      keccak256(0x00, 0x20)\n      swap1\n    tag_39:\n      dup2\n      sload\n      dup2\n      mstore\n      swap1\n      0x01\n      add\n      swap1\n      0x20\n      add\n      dup1\n      dup4\n      gt\n      tag_39\n      jumpi\n      dup3\n      swap1\n      sub\n      0x1f\n      and\n      dup3\n      add\n      swap2\n    tag_37:\n      pop\n      pop\n      pop\n      pop\n      pop\n      dup2\n      jump\t// out\n        /* \"Asistencia.sol\":206:251  mapping (\r... */\n    tag_19:\n      mstore(0x20, 0x00)\n      dup1\n      0x00\n      mstore\n      keccak256(0x00, 0x40)\n      0x00\n      swap2\n      pop\n      swap1\n      pop\n      dup1\n      0x00\n      add\n      dup1\n      sload\n      tag_40\n      swap1\n      tag_35\n      jump\t// in\n    tag_40:\n      dup1\n      0x1f\n      add\n      0x20\n      dup1\n      swap2\n      div\n      mul\n      0x20\n      add\n      mload(0x40)\n      swap1\n      dup2\n      add\n      0x40\n      mstore\n      dup1\n      swap3\n      swap2\n      swap1\n      dup2\n      dup2\n      mstore\n      0x20\n      add\n      dup3\n      dup1\n      sload\n      tag_41\n      swap1\n      tag_35\n      jump\t// in\n    tag_41:\n      dup1\n      iszero\n      tag_42\n      jumpi\n      dup1\n      0x1f\n      lt\n      tag_43\n      jumpi\n      0x0100\n      dup1\n      dup4\n      sload\n      div\n      mul\n      dup4\n      mstore\n      swap2\n      0x20\n      add\n      swap2\n      jump(tag_42)\n    tag_43:\n      dup3\n      add\n      swap2\n      swap1\n      0x00\n      mstore\n      keccak256(0x00, 0x20)\n      swap1\n    tag_44:\n      dup2\n      sload\n      dup2\n      mstore\n      swap1\n      0x01\n      add\n      swap1\n      0x20\n      add\n      dup1\n      dup4\n      gt\n      tag_44\n      jumpi\n      dup3\n      swap1\n      sub\n      0x1f\n      and\n      dup3\n      add\n      swap2\n    tag_42:\n      pop\n      pop\n      pop\n      pop\n      pop\n      swap1\n      dup1\n      0x01\n      add\n      sload\n      swap1\n      dup1\n      0x02\n      add\n      0x00\n      swap1\n      sload\n      swap1\n      0x0100\n      exp\n      swap1\n      div\n      0xff\n      and\n      swap1\n      pop\n      dup4\n      jump\t// out\n        /* \"Asistencia.sol\":289:311  uint public fechaCurso */\n    tag_23:\n      sload(0x02)\n      dup2\n      jump\t// out\n        /* \"Asistencia.sol\":694:816  function cosultarCertificado(uint codigoE) public  view returns (Alumno memory) {\r... */\n    tag_28:\n        /* \"Asistencia.sol\":759:772  Alumno memory */\n      tag_45\n      tag_46\n      jump\t// in\n    tag_45:\n        /* \"Asistencia.sol\":792:799  alumnos */\n      0x00\n        /* \"Asistencia.sol\":792:808  alumnos[codigoE] */\n      dup1\n        /* \"Asistencia.sol\":800:807  codigoE */\n      dup4\n        /* \"Asistencia.sol\":792:808  alumnos[codigoE] */\n      dup2\n      mstore\n      0x20\n      add\n      swap1\n      dup2\n      mstore\n      0x20\n      add\n      0x00\n      keccak256\n        /* \"Asistencia.sol\":785:808  return alumnos[codigoE] */\n      mload(0x40)\n      dup1\n      0x60\n      add\n      0x40\n      mstore\n      swap1\n      dup2\n      0x00\n      dup3\n      add\n      dup1\n      sload\n      tag_48\n      swap1\n      tag_35\n      jump\t// in\n    tag_48:\n      dup1\n      0x1f\n      add\n      0x20\n      dup1\n      swap2\n      div\n      mul\n      0x20\n      add\n      mload(0x40)\n      swap1\n      dup2\n      add\n      0x40\n      mstore\n      dup1\n      swap3\n      swap2\n      swap1\n      dup2\n      dup2\n      mstore\n      0x20\n      add\n      dup3\n      dup1\n      sload\n      tag_49\n      swap1\n      tag_35\n      jump\t// in\n    tag_49:\n      dup1\n      iszero\n      tag_50\n      jumpi\n      dup1\n      0x1f\n      lt\n      tag_51\n      jumpi\n      0x0100\n      dup1\n      dup4\n      sload\n      div\n      mul\n      dup4\n      mstore\n      swap2\n      0x20\n      add\n      swap2\n      jump(tag_50)\n    tag_51:\n      dup3\n      add\n      swap2\n      swap1\n      0x00\n      mstore\n      keccak256(0x00, 0x20)\n      swap1\n    tag_52:\n      dup2\n      sload\n      dup2\n      mstore\n      swap1\n      0x01\n      add\n      swap1\n      0x20\n      add\n      dup1\n      dup4\n      gt\n      tag_52\n      jumpi\n      dup3\n      swap1\n      sub\n      0x1f\n      and\n      dup3\n      add\n      swap2\n    tag_50:\n      pop\n      pop\n      pop\n      pop\n      pop\n      dup2\n      mstore\n      0x20\n      add\n      0x01\n      dup3\n      add\n      sload\n      dup2\n      mstore\n      0x20\n      add\n      0x02\n      dup3\n      add\n      0x00\n      swap1\n      sload\n      swap1\n      0x0100\n      exp\n      swap1\n      div\n      0xff\n      and\n      iszero\n      iszero\n      iszero\n      iszero\n      dup2\n      mstore\n      pop\n      pop\n      swap1\n      pop\n        /* \"Asistencia.sol\":694:816  function cosultarCertificado(uint codigoE) public  view returns (Alumno memory) {\r... */\n      swap2\n      swap1\n      pop\n      jump\t// out\n    tag_33:\n      dup3\n      dup1\n      sload\n      tag_53\n      swap1\n      tag_35\n      jump\t// in\n    tag_53:\n      swap1\n      0x00\n      mstore\n      keccak256(0x00, 0x20)\n      swap1\n      0x1f\n      add\n      0x20\n      swap1\n      div\n      dup2\n      add\n      swap3\n      dup3\n      tag_55\n      jumpi\n      0x00\n      dup6\n      sstore\n      jump(tag_54)\n    tag_55:\n      dup3\n      0x1f\n      lt\n      tag_56\n      jumpi\n      dup1\n      mload\n      not(0xff)\n      and\n      dup4\n      dup1\n      add\n      or\n      dup6\n      sstore\n      jump(tag_54)\n    tag_56:\n      dup3\n      dup1\n      add\n      0x01\n      add\n      dup6\n      sstore\n      dup3\n      iszero\n      tag_54\n      jumpi\n      swap2\n      dup3\n      add\n    tag_57:\n      dup3\n      dup2\n      gt\n      iszero\n      tag_58\n      jumpi\n      dup3\n      mload\n      dup3\n      sstore\n      swap2\n      0x20\n      add\n      swap2\n      swap1\n      0x01\n      add\n      swap1\n      jump(tag_57)\n    tag_58:\n    tag_54:\n      pop\n      swap1\n      pop\n      tag_59\n      swap2\n      swap1\n      tag_60\n      jump\t// in\n    tag_59:\n      pop\n      swap1\n      jump\t// out\n    tag_46:\n      mload(0x40)\n      dup1\n      0x60\n      add\n      0x40\n      mstore\n      dup1\n      0x60\n      dup2\n      mstore\n      0x20\n      add\n      0x00\n      dup2\n      mstore\n      0x20\n      add\n      iszero(iszero(0x00))\n      dup2\n      mstore\n      pop\n      swap1\n      jump\t// out\n    tag_60:\n    tag_61:\n      dup1\n      dup3\n      gt\n      iszero\n      tag_62\n      jumpi\n      0x00\n      dup2\n      0x00\n      swap1\n      sstore\n      pop\n      0x01\n      add\n      jump(tag_61)\n    tag_62:\n      pop\n      swap1\n      jump\t// out\n        /* \"#utility.yul\":7:352   */\n    tag_64:\n        /* \"#utility.yul\":85:90   */\n      0x00\n        /* \"#utility.yul\":110:176   */\n      tag_66\n        /* \"#utility.yul\":126:175   */\n      tag_67\n        /* \"#utility.yul\":168:174   */\n      dup5\n        /* \"#utility.yul\":126:175   */\n      tag_68\n      jump\t// in\n    tag_67:\n        /* \"#utility.yul\":110:176   */\n      tag_69\n      jump\t// in\n    tag_66:\n        /* \"#utility.yul\":101:176   */\n      swap1\n      pop\n        /* \"#utility.yul\":199:205   */\n      dup3\n        /* \"#utility.yul\":192:197   */\n      dup2\n        /* \"#utility.yul\":185:206   */\n      mstore\n        /* \"#utility.yul\":237:241   */\n      0x20\n        /* \"#utility.yul\":230:235   */\n      dup2\n        /* \"#utility.yul\":226:242   */\n      add\n        /* \"#utility.yul\":275:278   */\n      dup5\n        /* \"#utility.yul\":266:272   */\n      dup5\n        /* \"#utility.yul\":261:264   */\n      dup5\n        /* \"#utility.yul\":257:273   */\n      add\n        /* \"#utility.yul\":254:279   */\n      gt\n        /* \"#utility.yul\":251:253   */\n      iszero\n      tag_70\n      jumpi\n        /* \"#utility.yul\":292:293   */\n      0x00\n        /* \"#utility.yul\":289:290   */\n      dup1\n        /* \"#utility.yul\":282:294   */\n      revert\n        /* \"#utility.yul\":251:253   */\n    tag_70:\n        /* \"#utility.yul\":305:346   */\n      tag_71\n        /* \"#utility.yul\":339:345   */\n      dup5\n        /* \"#utility.yul\":334:337   */\n      dup3\n        /* \"#utility.yul\":329:332   */\n      dup6\n        /* \"#utility.yul\":305:346   */\n      tag_72\n      jump\t// in\n    tag_71:\n        /* \"#utility.yul\":91:352   */\n      pop\n      swap4\n      swap3\n      pop\n      pop\n      pop\n      jump\t// out\n        /* \"#utility.yul\":372:645   */\n    tag_73:\n        /* \"#utility.yul\":428:433   */\n      0x00\n        /* \"#utility.yul\":477:480   */\n      dup3\n        /* \"#utility.yul\":470:474   */\n      0x1f\n        /* \"#utility.yul\":462:468   */\n      dup4\n        /* \"#utility.yul\":458:475   */\n      add\n        /* \"#utility.yul\":454:481   */\n      slt\n        /* \"#utility.yul\":444:446   */\n      tag_75\n      jumpi\n        /* \"#utility.yul\":495:496   */\n      0x00\n        /* \"#utility.yul\":492:493   */\n      dup1\n        /* \"#utility.yul\":485:497   */\n      revert\n        /* \"#utility.yul\":444:446   */\n    tag_75:\n        /* \"#utility.yul\":535:541   */\n      dup2\n        /* \"#utility.yul\":522:542   */\n      calldataload\n        /* \"#utility.yul\":560:639   */\n      tag_76\n        /* \"#utility.yul\":635:638   */\n      dup5\n        /* \"#utility.yul\":627:633   */\n      dup3\n        /* \"#utility.yul\":620:624   */\n      0x20\n        /* \"#utility.yul\":612:618   */\n      dup7\n        /* \"#utility.yul\":608:625   */\n      add\n        /* \"#utility.yul\":560:639   */\n      tag_64\n      jump\t// in\n    tag_76:\n        /* \"#utility.yul\":551:639   */\n      swap2\n      pop\n        /* \"#utility.yul\":434:645   */\n      pop\n      swap3\n      swap2\n      pop\n      pop\n      jump\t// out\n        /* \"#utility.yul\":651:790   */\n    tag_77:\n        /* \"#utility.yul\":697:702   */\n      0x00\n        /* \"#utility.yul\":735:741   */\n      dup2\n        /* \"#utility.yul\":722:742   */\n      calldataload\n        /* \"#utility.yul\":713:742   */\n      swap1\n      pop\n        /* \"#utility.yul\":751:784   */\n      tag_79\n        /* \"#utility.yul\":778:783   */\n      dup2\n        /* \"#utility.yul\":751:784   */\n      tag_80\n      jump\t// in\n    tag_79:\n        /* \"#utility.yul\":703:790   */\n      swap3\n      swap2\n      pop\n      pop\n      jump\t// out\n        /* \"#utility.yul\":796:1316   */\n    tag_10:\n        /* \"#utility.yul\":874:880   */\n      0x00\n        /* \"#utility.yul\":882:888   */\n      dup1\n        /* \"#utility.yul\":931:933   */\n      0x40\n        /* \"#utility.yul\":919:928   */\n      dup4\n        /* \"#utility.yul\":910:917   */\n      dup6\n        /* \"#utility.yul\":906:929   */\n      sub\n        /* \"#utility.yul\":902:934   */\n      slt\n        /* \"#utility.yul\":899:901   */\n      iszero\n      tag_82\n      jumpi\n        /* \"#utility.yul\":947:948   */\n      0x00\n        /* \"#utility.yul\":944:945   */\n      dup1\n        /* \"#utility.yul\":937:949   */\n      revert\n        /* \"#utility.yul\":899:901   */\n    tag_82:\n        /* \"#utility.yul\":1018:1019   */\n      0x00\n        /* \"#utility.yul\":1007:1016   */\n      dup4\n        /* \"#utility.yul\":1003:1020   */\n      add\n        /* \"#utility.yul\":990:1021   */\n      calldataload\n        /* \"#utility.yul\":1048:1066   */\n      0xffffffffffffffff\n        /* \"#utility.yul\":1040:1046   */\n      dup2\n        /* \"#utility.yul\":1037:1067   */\n      gt\n        /* \"#utility.yul\":1034:1036   */\n      iszero\n      tag_83\n      jumpi\n        /* \"#utility.yul\":1080:1081   */\n      0x00\n        /* \"#utility.yul\":1077:1078   */\n      dup1\n        /* \"#utility.yul\":1070:1082   */\n      revert\n        /* \"#utility.yul\":1034:1036   */\n    tag_83:\n        /* \"#utility.yul\":1108:1171   */\n      tag_84\n        /* \"#utility.yul\":1163:1170   */\n      dup6\n        /* \"#utility.yul\":1154:1160   */\n      dup3\n        /* \"#utility.yul\":1143:1152   */\n      dup7\n        /* \"#utility.yul\":1139:1161   */\n      add\n        /* \"#utility.yul\":1108:1171   */\n      tag_73\n      jump\t// in\n    tag_84:\n        /* \"#utility.yul\":1098:1171   */\n      swap3\n      pop\n        /* \"#utility.yul\":961:1181   */\n      pop\n        /* \"#utility.yul\":1220:1222   */\n      0x20\n        /* \"#utility.yul\":1246:1299   */\n      tag_85\n        /* \"#utility.yul\":1291:1298   */\n      dup6\n        /* \"#utility.yul\":1282:1288   */\n      dup3\n        /* \"#utility.yul\":1271:1280   */\n      dup7\n        /* \"#utility.yul\":1267:1289   */\n      add\n        /* \"#utility.yul\":1246:1299   */\n      tag_77\n      jump\t// in\n    tag_85:\n        /* \"#utility.yul\":1236:1299   */\n      swap2\n      pop\n        /* \"#utility.yul\":1191:1309   */\n      pop\n        /* \"#utility.yul\":889:1316   */\n      swap3\n      pop\n      swap3\n      swap1\n      pop\n      jump\t// out\n        /* \"#utility.yul\":1322:1584   */\n    tag_18:\n        /* \"#utility.yul\":1381:1387   */\n      0x00\n        /* \"#utility.yul\":1430:1432   */\n      0x20\n        /* \"#utility.yul\":1418:1427   */\n      dup3\n        /* \"#utility.yul\":1409:1416   */\n      dup5\n        /* \"#utility.yul\":1405:1428   */\n      sub\n        /* \"#utility.yul\":1401:1433   */\n      slt\n        /* \"#utility.yul\":1398:1400   */\n      iszero\n      tag_87\n      jumpi\n        /* \"#utility.yul\":1446:1447   */\n      0x00\n        /* \"#utility.yul\":1443:1444   */\n      dup1\n        /* \"#utility.yul\":1436:1448   */\n      revert\n        /* \"#utility.yul\":1398:1400   */\n    tag_87:\n        /* \"#utility.yul\":1489:1490   */\n      0x00\n        /* \"#utility.yul\":1514:1567   */\n      tag_88\n        /* \"#utility.yul\":1559:1566   */\n      dup5\n        /* \"#utility.yul\":1550:1556   */\n      dup3\n        /* \"#utility.yul\":1539:1548   */\n      dup6\n        /* \"#utility.yul\":1535:1557   */\n      add\n        /* \"#utility.yul\":1514:1567   */\n      tag_77\n      jump\t// in\n    tag_88:\n        /* \"#utility.yul\":1504:1567   */\n      swap2\n      pop\n        /* \"#utility.yul\":1460:1577   */\n      pop\n        /* \"#utility.yul\":1388:1584   */\n      swap3\n      swap2\n      pop\n      pop\n      jump\t// out\n        /* \"#utility.yul\":1590:1689   */\n    tag_89:\n        /* \"#utility.yul\":1661:1682   */\n      tag_91\n        /* \"#utility.yul\":1676:1681   */\n      dup2\n        /* \"#utility.yul\":1661:1682   */\n      tag_92\n      jump\t// in\n    tag_91:\n        /* \"#utility.yul\":1656:1659   */\n      dup3\n        /* \"#utility.yul\":1649:1683   */\n      mstore\n        /* \"#utility.yul\":1639:1689   */\n      pop\n      pop\n      jump\t// out\n        /* \"#utility.yul\":1695:1804   */\n    tag_93:\n        /* \"#utility.yul\":1776:1797   */\n      tag_95\n        /* \"#utility.yul\":1791:1796   */\n      dup2\n        /* \"#utility.yul\":1776:1797   */\n      tag_92\n      jump\t// in\n    tag_95:\n        /* \"#utility.yul\":1771:1774   */\n      dup3\n        /* \"#utility.yul\":1764:1798   */\n      mstore\n        /* \"#utility.yul\":1754:1804   */\n      pop\n      pop\n      jump\t// out\n        /* \"#utility.yul\":1810:2154   */\n    tag_96:\n        /* \"#utility.yul\":1888:1891   */\n      0x00\n        /* \"#utility.yul\":1916:1955   */\n      tag_98\n        /* \"#utility.yul\":1949:1954   */\n      dup3\n        /* \"#utility.yul\":1916:1955   */\n      tag_99\n      jump\t// in\n    tag_98:\n        /* \"#utility.yul\":1971:2032   */\n      tag_100\n        /* \"#utility.yul\":2025:2031   */\n      dup2\n        /* \"#utility.yul\":2020:2023   */\n      dup6\n        /* \"#utility.yul\":1971:2032   */\n      tag_101\n      jump\t// in\n    tag_100:\n        /* \"#utility.yul\":1964:2032   */\n      swap4\n      pop\n        /* \"#utility.yul\":2041:2093   */\n      tag_102\n        /* \"#utility.yul\":2086:2092   */\n      dup2\n        /* \"#utility.yul\":2081:2084   */\n      dup6\n        /* \"#utility.yul\":2074:2078   */\n      0x20\n        /* \"#utility.yul\":2067:2072   */\n      dup7\n        /* \"#utility.yul\":2063:2079   */\n      add\n        /* \"#utility.yul\":2041:2093   */\n      tag_103\n      jump\t// in\n    tag_102:\n        /* \"#utility.yul\":2118:2147   */\n      tag_104\n        /* \"#utility.yul\":2140:2146   */\n      dup2\n        /* \"#utility.yul\":2118:2147   */\n      tag_105\n      jump\t// in\n    tag_104:\n        /* \"#utility.yul\":2113:2116   */\n      dup5\n        /* \"#utility.yul\":2109:2148   */\n      add\n        /* \"#utility.yul\":2102:2148   */\n      swap2\n      pop\n        /* \"#utility.yul\":1892:2154   */\n      pop\n      swap3\n      swap2\n      pop\n      pop\n      jump\t// out\n        /* \"#utility.yul\":2160:2524   */\n    tag_106:\n        /* \"#utility.yul\":2248:2251   */\n      0x00\n        /* \"#utility.yul\":2276:2315   */\n      tag_108\n        /* \"#utility.yul\":2309:2314   */\n      dup3\n        /* \"#utility.yul\":2276:2315   */\n      tag_99\n      jump\t// in\n    tag_108:\n        /* \"#utility.yul\":2331:2402   */\n      tag_109\n        /* \"#utility.yul\":2395:2401   */\n      dup2\n        /* \"#utility.yul\":2390:2393   */\n      dup6\n        /* \"#utility.yul\":2331:2402   */\n      tag_110\n      jump\t// in\n    tag_109:\n        /* \"#utility.yul\":2324:2402   */\n      swap4\n      pop\n        /* \"#utility.yul\":2411:2463   */\n      tag_111\n        /* \"#utility.yul\":2456:2462   */\n      dup2\n        /* \"#utility.yul\":2451:2454   */\n      dup6\n        /* \"#utility.yul\":2444:2448   */\n      0x20\n        /* \"#utility.yul\":2437:2442   */\n      dup7\n        /* \"#utility.yul\":2433:2449   */\n      add\n        /* \"#utility.yul\":2411:2463   */\n      tag_103\n      jump\t// in\n    tag_111:\n        /* \"#utility.yul\":2488:2517   */\n      tag_112\n        /* \"#utility.yul\":2510:2516   */\n      dup2\n        /* \"#utility.yul\":2488:2517   */\n      tag_105\n      jump\t// in\n    tag_112:\n        /* \"#utility.yul\":2483:2486   */\n      dup5\n        /* \"#utility.yul\":2479:2518   */\n      add\n        /* \"#utility.yul\":2472:2518   */\n      swap2\n      pop\n        /* \"#utility.yul\":2252:2524   */\n      pop\n      swap3\n      swap2\n      pop\n      pop\n      jump\t// out\n        /* \"#utility.yul\":2612:3400   */\n    tag_113:\n        /* \"#utility.yul\":2723:2726   */\n      0x00\n        /* \"#utility.yul\":2759:2763   */\n      0x60\n        /* \"#utility.yul\":2754:2757   */\n      dup4\n        /* \"#utility.yul\":2750:2764   */\n      add\n        /* \"#utility.yul\":2851:2855   */\n      0x00\n        /* \"#utility.yul\":2844:2849   */\n      dup4\n        /* \"#utility.yul\":2840:2856   */\n      add\n        /* \"#utility.yul\":2834:2857   */\n      mload\n        /* \"#utility.yul\":2904:2907   */\n      dup5\n        /* \"#utility.yul\":2898:2902   */\n      dup3\n        /* \"#utility.yul\":2894:2908   */\n      sub\n        /* \"#utility.yul\":2887:2891   */\n      0x00\n        /* \"#utility.yul\":2882:2885   */\n      dup7\n        /* \"#utility.yul\":2878:2892   */\n      add\n        /* \"#utility.yul\":2871:2909   */\n      mstore\n        /* \"#utility.yul\":2930:3003   */\n      tag_115\n        /* \"#utility.yul\":2998:3002   */\n      dup3\n        /* \"#utility.yul\":2984:2996   */\n      dup3\n        /* \"#utility.yul\":2930:3003   */\n      tag_96\n      jump\t// in\n    tag_115:\n        /* \"#utility.yul\":2922:3003   */\n      swap2\n      pop\n        /* \"#utility.yul\":2774:3014   */\n      pop\n        /* \"#utility.yul\":3110:3114   */\n      0x20\n        /* \"#utility.yul\":3103:3108   */\n      dup4\n        /* \"#utility.yul\":3099:3115   */\n      add\n        /* \"#utility.yul\":3093:3116   */\n      mload\n        /* \"#utility.yul\":3129:3192   */\n      tag_116\n        /* \"#utility.yul\":3186:3190   */\n      0x20\n        /* \"#utility.yul\":3181:3184   */\n      dup7\n        /* \"#utility.yul\":3177:3191   */\n      add\n        /* \"#utility.yul\":3163:3175   */\n      dup3\n        /* \"#utility.yul\":3129:3192   */\n      tag_117\n      jump\t// in\n    tag_116:\n        /* \"#utility.yul\":3024:3202   */\n      pop\n        /* \"#utility.yul\":3287:3291   */\n      0x40\n        /* \"#utility.yul\":3280:3285   */\n      dup4\n        /* \"#utility.yul\":3276:3292   */\n      add\n        /* \"#utility.yul\":3270:3293   */\n      mload\n        /* \"#utility.yul\":3306:3363   */\n      tag_118\n        /* \"#utility.yul\":3357:3361   */\n      0x40\n        /* \"#utility.yul\":3352:3355   */\n      dup7\n        /* \"#utility.yul\":3348:3362   */\n      add\n        /* \"#utility.yul\":3334:3346   */\n      dup3\n        /* \"#utility.yul\":3306:3363   */\n      tag_89\n      jump\t// in\n    tag_118:\n        /* \"#utility.yul\":3212:3373   */\n      pop\n        /* \"#utility.yul\":3390:3394   */\n      dup1\n        /* \"#utility.yul\":3383:3394   */\n      swap2\n      pop\n        /* \"#utility.yul\":2728:3400   */\n      pop\n      swap3\n      swap2\n      pop\n      pop\n      jump\t// out\n        /* \"#utility.yul\":3406:3514   */\n    tag_117:\n        /* \"#utility.yul\":3483:3507   */\n      tag_120\n        /* \"#utility.yul\":3501:3506   */\n      dup2\n        /* \"#utility.yul\":3483:3507   */\n      tag_121\n      jump\t// in\n    tag_120:\n        /* \"#utility.yul\":3478:3481   */\n      dup3\n        /* \"#utility.yul\":3471:3508   */\n      mstore\n        /* \"#utility.yul\":3461:3514   */\n      pop\n      pop\n      jump\t// out\n        /* \"#utility.yul\":3520:3638   */\n    tag_122:\n        /* \"#utility.yul\":3607:3631   */\n      tag_124\n        /* \"#utility.yul\":3625:3630   */\n      dup2\n        /* \"#utility.yul\":3607:3631   */\n      tag_121\n      jump\t// in\n    tag_124:\n        /* \"#utility.yul\":3602:3605   */\n      dup3\n        /* \"#utility.yul\":3595:3632   */\n      mstore\n        /* \"#utility.yul\":3585:3638   */\n      pop\n      pop\n      jump\t// out\n        /* \"#utility.yul\":3644:3957   */\n    tag_15:\n        /* \"#utility.yul\":3757:3761   */\n      0x00\n        /* \"#utility.yul\":3795:3797   */\n      0x20\n        /* \"#utility.yul\":3784:3793   */\n      dup3\n        /* \"#utility.yul\":3780:3798   */\n      add\n        /* \"#utility.yul\":3772:3798   */\n      swap1\n      pop\n        /* \"#utility.yul\":3844:3853   */\n      dup2\n        /* \"#utility.yul\":3838:3842   */\n      dup2\n        /* \"#utility.yul\":3834:3854   */\n      sub\n        /* \"#utility.yul\":3830:3831   */\n      0x00\n        /* \"#utility.yul\":3819:3828   */\n      dup4\n        /* \"#utility.yul\":3815:3832   */\n      add\n        /* \"#utility.yul\":3808:3855   */\n      mstore\n        /* \"#utility.yul\":3872:3950   */\n      tag_126\n        /* \"#utility.yul\":3945:3949   */\n      dup2\n        /* \"#utility.yul\":3936:3942   */\n      dup5\n        /* \"#utility.yul\":3872:3950   */\n      tag_106\n      jump\t// in\n    tag_126:\n        /* \"#utility.yul\":3864:3950   */\n      swap1\n      pop\n        /* \"#utility.yul\":3762:3957   */\n      swap3\n      swap2\n      pop\n      pop\n      jump\t// out\n        /* \"#utility.yul\":3963:4484   */\n    tag_21:\n        /* \"#utility.yul\":4126:4130   */\n      0x00\n        /* \"#utility.yul\":4164:4166   */\n      0x60\n        /* \"#utility.yul\":4153:4162   */\n      dup3\n        /* \"#utility.yul\":4149:4167   */\n      add\n        /* \"#utility.yul\":4141:4167   */\n      swap1\n      pop\n        /* \"#utility.yul\":4213:4222   */\n      dup2\n        /* \"#utility.yul\":4207:4211   */\n      dup2\n        /* \"#utility.yul\":4203:4223   */\n      sub\n        /* \"#utility.yul\":4199:4200   */\n      0x00\n        /* \"#utility.yul\":4188:4197   */\n      dup4\n        /* \"#utility.yul\":4184:4201   */\n      add\n        /* \"#utility.yul\":4177:4224   */\n      mstore\n        /* \"#utility.yul\":4241:4319   */\n      tag_128\n        /* \"#utility.yul\":4314:4318   */\n      dup2\n        /* \"#utility.yul\":4305:4311   */\n      dup7\n        /* \"#utility.yul\":4241:4319   */\n      tag_106\n      jump\t// in\n    tag_128:\n        /* \"#utility.yul\":4233:4319   */\n      swap1\n      pop\n        /* \"#utility.yul\":4329:4401   */\n      tag_129\n        /* \"#utility.yul\":4397:4399   */\n      0x20\n        /* \"#utility.yul\":4386:4395   */\n      dup4\n        /* \"#utility.yul\":4382:4400   */\n      add\n        /* \"#utility.yul\":4373:4379   */\n      dup6\n        /* \"#utility.yul\":4329:4401   */\n      tag_122\n      jump\t// in\n    tag_129:\n        /* \"#utility.yul\":4411:4477   */\n      tag_130\n        /* \"#utility.yul\":4473:4475   */\n      0x40\n        /* \"#utility.yul\":4462:4471   */\n      dup4\n        /* \"#utility.yul\":4458:4476   */\n      add\n        /* \"#utility.yul\":4449:4455   */\n      dup5\n        /* \"#utility.yul\":4411:4477   */\n      tag_93\n      jump\t// in\n    tag_130:\n        /* \"#utility.yul\":4131:4484   */\n      swap5\n      swap4\n      pop\n      pop\n      pop\n      pop\n      jump\t// out\n        /* \"#utility.yul\":4490:4847   */\n    tag_30:\n        /* \"#utility.yul\":4625:4629   */\n      0x00\n        /* \"#utility.yul\":4663:4665   */\n      0x20\n        /* \"#utility.yul\":4652:4661   */\n      dup3\n        /* \"#utility.yul\":4648:4666   */\n      add\n        /* \"#utility.yul\":4640:4666   */\n      swap1\n      pop\n        /* \"#utility.yul\":4712:4721   */\n      dup2\n        /* \"#utility.yul\":4706:4710   */\n      dup2\n        /* \"#utility.yul\":4702:4722   */\n      sub\n        /* \"#utility.yul\":4698:4699   */\n      0x00\n        /* \"#utility.yul\":4687:4696   */\n      dup4\n        /* \"#utility.yul\":4683:4700   */\n      add\n        /* \"#utility.yul\":4676:4723   */\n      mstore\n        /* \"#utility.yul\":4740:4840   */\n      tag_132\n        /* \"#utility.yul\":4835:4839   */\n      dup2\n        /* \"#utility.yul\":4826:4832   */\n      dup5\n        /* \"#utility.yul\":4740:4840   */\n      tag_113\n      jump\t// in\n    tag_132:\n        /* \"#utility.yul\":4732:4840   */\n      swap1\n      pop\n        /* \"#utility.yul\":4630:4847   */\n      swap3\n      swap2\n      pop\n      pop\n      jump\t// out\n        /* \"#utility.yul\":4853:5075   */\n    tag_25:\n        /* \"#utility.yul\":4946:4950   */\n      0x00\n        /* \"#utility.yul\":4984:4986   */\n      0x20\n        /* \"#utility.yul\":4973:4982   */\n      dup3\n        /* \"#utility.yul\":4969:4987   */\n      add\n        /* \"#utility.yul\":4961:4987   */\n      swap1\n      pop\n        /* \"#utility.yul\":4997:5068   */\n      tag_134\n        /* \"#utility.yul\":5065:5066   */\n      0x00\n        /* \"#utility.yul\":5054:5063   */\n      dup4\n        /* \"#utility.yul\":5050:5067   */\n      add\n        /* \"#utility.yul\":5041:5047   */\n      dup5\n        /* \"#utility.yul\":4997:5068   */\n      tag_122\n      jump\t// in\n    tag_134:\n        /* \"#utility.yul\":4951:5075   */\n      swap3\n      swap2\n      pop\n      pop\n      jump\t// out\n        /* \"#utility.yul\":5081:5210   */\n    tag_69:\n        /* \"#utility.yul\":5115:5121   */\n      0x00\n        /* \"#utility.yul\":5142:5162   */\n      tag_136\n      tag_137\n      jump\t// in\n    tag_136:\n        /* \"#utility.yul\":5132:5162   */\n      swap1\n      pop\n        /* \"#utility.yul\":5171:5204   */\n      tag_138\n        /* \"#utility.yul\":5199:5203   */\n      dup3\n        /* \"#utility.yul\":5191:5197   */\n      dup3\n        /* \"#utility.yul\":5171:5204   */\n      tag_139\n      jump\t// in\n    tag_138:\n        /* \"#utility.yul\":5122:5210   */\n      swap2\n      swap1\n      pop\n      jump\t// out\n        /* \"#utility.yul\":5216:5291   */\n    tag_137:\n        /* \"#utility.yul\":5249:5255   */\n      0x00\n        /* \"#utility.yul\":5282:5284   */\n      0x40\n        /* \"#utility.yul\":5276:5285   */\n      mload\n        /* \"#utility.yul\":5266:5285   */\n      swap1\n      pop\n        /* \"#utility.yul\":5256:5291   */\n      swap1\n      jump\t// out\n        /* \"#utility.yul\":5297:5605   */\n    tag_68:\n        /* \"#utility.yul\":5359:5363   */\n      0x00\n        /* \"#utility.yul\":5449:5467   */\n      0xffffffffffffffff\n        /* \"#utility.yul\":5441:5447   */\n      dup3\n        /* \"#utility.yul\":5438:5468   */\n      gt\n        /* \"#utility.yul\":5435:5437   */\n      iszero\n      tag_142\n      jumpi\n        /* \"#utility.yul\":5471:5489   */\n      tag_143\n      tag_144\n      jump\t// in\n    tag_143:\n        /* \"#utility.yul\":5435:5437   */\n    tag_142:\n        /* \"#utility.yul\":5509:5538   */\n      tag_145\n        /* \"#utility.yul\":5531:5537   */\n      dup3\n        /* \"#utility.yul\":5509:5538   */\n      tag_105\n      jump\t// in\n    tag_145:\n        /* \"#utility.yul\":5501:5538   */\n      swap1\n      pop\n        /* \"#utility.yul\":5593:5597   */\n      0x20\n        /* \"#utility.yul\":5587:5591   */\n      dup2\n        /* \"#utility.yul\":5583:5598   */\n      add\n        /* \"#utility.yul\":5575:5598   */\n      swap1\n      pop\n        /* \"#utility.yul\":5364:5605   */\n      swap2\n      swap1\n      pop\n      jump\t// out\n        /* \"#utility.yul\":5611:5710   */\n    tag_99:\n        /* \"#utility.yul\":5663:5669   */\n      0x00\n        /* \"#utility.yul\":5697:5702   */\n      dup2\n        /* \"#utility.yul\":5691:5703   */\n      mload\n        /* \"#utility.yul\":5681:5703   */\n      swap1\n      pop\n        /* \"#utility.yul\":5670:5710   */\n      swap2\n      swap1\n      pop\n      jump\t// out\n        /* \"#utility.yul\":5716:5875   */\n    tag_101:\n        /* \"#utility.yul\":5790:5801   */\n      0x00\n        /* \"#utility.yul\":5824:5830   */\n      dup3\n        /* \"#utility.yul\":5819:5822   */\n      dup3\n        /* \"#utility.yul\":5812:5831   */\n      mstore\n        /* \"#utility.yul\":5864:5868   */\n      0x20\n        /* \"#utility.yul\":5859:5862   */\n      dup3\n        /* \"#utility.yul\":5855:5869   */\n      add\n        /* \"#utility.yul\":5840:5869   */\n      swap1\n      pop\n        /* \"#utility.yul\":5802:5875   */\n      swap3\n      swap2\n      pop\n      pop\n      jump\t// out\n        /* \"#utility.yul\":5881:6050   */\n    tag_110:\n        /* \"#utility.yul\":5965:5976   */\n      0x00\n        /* \"#utility.yul\":5999:6005   */\n      dup3\n        /* \"#utility.yul\":5994:5997   */\n      dup3\n        /* \"#utility.yul\":5987:6006   */\n      mstore\n        /* \"#utility.yul\":6039:6043   */\n      0x20\n        /* \"#utility.yul\":6034:6037   */\n      dup3\n        /* \"#utility.yul\":6030:6044   */\n      add\n        /* \"#utility.yul\":6015:6044   */\n      swap1\n      pop\n        /* \"#utility.yul\":5977:6050   */\n      swap3\n      swap2\n      pop\n      pop\n      jump\t// out\n        /* \"#utility.yul\":6056:6146   */\n    tag_92:\n        /* \"#utility.yul\":6090:6097   */\n      0x00\n        /* \"#utility.yul\":6133:6138   */\n      dup2\n        /* \"#utility.yul\":6126:6139   */\n      iszero\n        /* \"#utility.yul\":6119:6140   */\n      iszero\n        /* \"#utility.yul\":6108:6140   */\n      swap1\n      pop\n        /* \"#utility.yul\":6098:6146   */\n      swap2\n      swap1\n      pop\n      jump\t// out\n        /* \"#utility.yul\":6152:6229   */\n    tag_121:\n        /* \"#utility.yul\":6189:6196   */\n      0x00\n        /* \"#utility.yul\":6218:6223   */\n      dup2\n        /* \"#utility.yul\":6207:6223   */\n      swap1\n      pop\n        /* \"#utility.yul\":6197:6229   */\n      swap2\n      swap1\n      pop\n      jump\t// out\n        /* \"#utility.yul\":6235:6389   */\n    tag_72:\n        /* \"#utility.yul\":6319:6325   */\n      dup3\n        /* \"#utility.yul\":6314:6317   */\n      dup2\n        /* \"#utility.yul\":6309:6312   */\n      dup4\n        /* \"#utility.yul\":6296:6326   */\n      calldatacopy\n        /* \"#utility.yul\":6381:6382   */\n      0x00\n        /* \"#utility.yul\":6372:6378   */\n      dup4\n        /* \"#utility.yul\":6367:6370   */\n      dup4\n        /* \"#utility.yul\":6363:6379   */\n      add\n        /* \"#utility.yul\":6356:6383   */\n      mstore\n        /* \"#utility.yul\":6286:6389   */\n      pop\n      pop\n      pop\n      jump\t// out\n        /* \"#utility.yul\":6395:6702   */\n    tag_103:\n        /* \"#utility.yul\":6463:6464   */\n      0x00\n        /* \"#utility.yul\":6473:6586   */\n    tag_153:\n        /* \"#utility.yul\":6487:6493   */\n      dup4\n        /* \"#utility.yul\":6484:6485   */\n      dup2\n        /* \"#utility.yul\":6481:6494   */\n      lt\n        /* \"#utility.yul\":6473:6586   */\n      iszero\n      tag_155\n      jumpi\n        /* \"#utility.yul\":6572:6573   */\n      dup1\n        /* \"#utility.yul\":6567:6570   */\n      dup3\n        /* \"#utility.yul\":6563:6574   */\n      add\n        /* \"#utility.yul\":6557:6575   */\n      mload\n        /* \"#utility.yul\":6553:6554   */\n      dup2\n        /* \"#utility.yul\":6548:6551   */\n      dup5\n        /* \"#utility.yul\":6544:6555   */\n      add\n        /* \"#utility.yul\":6537:6576   */\n      mstore\n        /* \"#utility.yul\":6509:6511   */\n      0x20\n        /* \"#utility.yul\":6506:6507   */\n      dup2\n        /* \"#utility.yul\":6502:6512   */\n      add\n        /* \"#utility.yul\":6497:6512   */\n      swap1\n      pop\n        /* \"#utility.yul\":6473:6586   */\n      jump(tag_153)\n    tag_155:\n        /* \"#utility.yul\":6604:6610   */\n      dup4\n        /* \"#utility.yul\":6601:6602   */\n      dup2\n        /* \"#utility.yul\":6598:6611   */\n      gt\n        /* \"#utility.yul\":6595:6597   */\n      iszero\n      tag_156\n      jumpi\n        /* \"#utility.yul\":6684:6685   */\n      0x00\n        /* \"#utility.yul\":6675:6681   */\n      dup5\n        /* \"#utility.yul\":6670:6673   */\n      dup5\n        /* \"#utility.yul\":6666:6682   */\n      add\n        /* \"#utility.yul\":6659:6686   */\n      mstore\n        /* \"#utility.yul\":6595:6597   */\n    tag_156:\n        /* \"#utility.yul\":6444:6702   */\n      pop\n      pop\n      pop\n      pop\n      jump\t// out\n        /* \"#utility.yul\":6708:7028   */\n    tag_35:\n        /* \"#utility.yul\":6752:6758   */\n      0x00\n        /* \"#utility.yul\":6789:6790   */\n      0x02\n        /* \"#utility.yul\":6783:6787   */\n      dup3\n        /* \"#utility.yul\":6779:6791   */\n      div\n        /* \"#utility.yul\":6769:6791   */\n      swap1\n      pop\n        /* \"#utility.yul\":6836:6837   */\n      0x01\n        /* \"#utility.yul\":6830:6834   */\n      dup3\n        /* \"#utility.yul\":6826:6838   */\n      and\n        /* \"#utility.yul\":6857:6875   */\n      dup1\n        /* \"#utility.yul\":6847:6849   */\n      tag_158\n      jumpi\n        /* \"#utility.yul\":6913:6917   */\n      0x7f\n        /* \"#utility.yul\":6905:6911   */\n      dup3\n        /* \"#utility.yul\":6901:6918   */\n      and\n        /* \"#utility.yul\":6891:6918   */\n      swap2\n      pop\n        /* \"#utility.yul\":6847:6849   */\n    tag_158:\n        /* \"#utility.yul\":6975:6977   */\n      0x20\n        /* \"#utility.yul\":6967:6973   */\n      dup3\n        /* \"#utility.yul\":6964:6978   */\n      lt\n        /* \"#utility.yul\":6944:6962   */\n      dup2\n        /* \"#utility.yul\":6941:6979   */\n      eq\n        /* \"#utility.yul\":6938:6940   */\n      iszero\n      tag_159\n      jumpi\n        /* \"#utility.yul\":6994:7012   */\n      tag_160\n      tag_161\n      jump\t// in\n    tag_160:\n        /* \"#utility.yul\":6938:6940   */\n    tag_159:\n        /* \"#utility.yul\":6759:7028   */\n      pop\n      swap2\n      swap1\n      pop\n      jump\t// out\n        /* \"#utility.yul\":7034:7315   */\n    tag_139:\n        /* \"#utility.yul\":7117:7144   */\n      tag_163\n        /* \"#utility.yul\":7139:7143   */\n      dup3\n        /* \"#utility.yul\":7117:7144   */\n      tag_105\n      jump\t// in\n    tag_163:\n        /* \"#utility.yul\":7109:7115   */\n      dup2\n        /* \"#utility.yul\":7105:7145   */\n      add\n        /* \"#utility.yul\":7247:7253   */\n      dup2\n        /* \"#utility.yul\":7235:7245   */\n      dup2\n        /* \"#utility.yul\":7232:7254   */\n      lt\n        /* \"#utility.yul\":7211:7229   */\n      0xffffffffffffffff\n        /* \"#utility.yul\":7199:7209   */\n      dup3\n        /* \"#utility.yul\":7196:7230   */\n      gt\n        /* \"#utility.yul\":7193:7255   */\n      or\n        /* \"#utility.yul\":7190:7192   */\n      iszero\n      tag_164\n      jumpi\n        /* \"#utility.yul\":7258:7276   */\n      tag_165\n      tag_144\n      jump\t// in\n    tag_165:\n        /* \"#utility.yul\":7190:7192   */\n    tag_164:\n        /* \"#utility.yul\":7298:7308   */\n      dup1\n        /* \"#utility.yul\":7294:7296   */\n      0x40\n        /* \"#utility.yul\":7287:7309   */\n      mstore\n        /* \"#utility.yul\":7077:7315   */\n      pop\n      pop\n      pop\n      jump\t// out\n        /* \"#utility.yul\":7321:7501   */\n    tag_161:\n        /* \"#utility.yul\":7369:7446   */\n      0x4e487b7100000000000000000000000000000000000000000000000000000000\n        /* \"#utility.yul\":7366:7367   */\n      0x00\n        /* \"#utility.yul\":7359:7447   */\n      mstore\n        /* \"#utility.yul\":7466:7470   */\n      0x22\n        /* \"#utility.yul\":7463:7464   */\n      0x04\n        /* \"#utility.yul\":7456:7471   */\n      mstore\n        /* \"#utility.yul\":7490:7494   */\n      0x24\n        /* \"#utility.yul\":7487:7488   */\n      0x00\n        /* \"#utility.yul\":7480:7495   */\n      revert\n        /* \"#utility.yul\":7507:7687   */\n    tag_144:\n        /* \"#utility.yul\":7555:7632   */\n      0x4e487b7100000000000000000000000000000000000000000000000000000000\n        /* \"#utility.yul\":7552:7553   */\n      0x00\n        /* \"#utility.yul\":7545:7633   */\n      mstore\n        /* \"#utility.yul\":7652:7656   */\n      0x41\n        /* \"#utility.yul\":7649:7650   */\n      0x04\n        /* \"#utility.yul\":7642:7657   */\n      mstore\n        /* \"#utility.yul\":7676:7680   */\n      0x24\n        /* \"#utility.yul\":7673:7674   */\n      0x00\n        /* \"#utility.yul\":7666:7681   */\n      revert\n        /* \"#utility.yul\":7693:7795   */\n    tag_105:\n        /* \"#utility.yul\":7734:7740   */\n      0x00\n        /* \"#utility.yul\":7785:7787   */\n      0x1f\n        /* \"#utility.yul\":7781:7788   */\n      not\n        /* \"#utility.yul\":7776:7778   */\n      0x1f\n        /* \"#utility.yul\":7769:7774   */\n      dup4\n        /* \"#utility.yul\":7765:7779   */\n      add\n        /* \"#utility.yul\":7761:7789   */\n      and\n        /* \"#utility.yul\":7751:7789   */\n      swap1\n      pop\n        /* \"#utility.yul\":7741:7795   */\n      swap2\n      swap1\n      pop\n      jump\t// out\n        /* \"#utility.yul\":7801:7923   */\n    tag_80:\n        /* \"#utility.yul\":7874:7898   */\n      tag_170\n        /* \"#utility.yul\":7892:7897   */\n      dup2\n        /* \"#utility.yul\":7874:7898   */\n      tag_121\n      jump\t// in\n    tag_170:\n        /* \"#utility.yul\":7867:7872   */\n      dup2\n        /* \"#utility.yul\":7864:7899   */\n      eq\n        /* \"#utility.yul\":7854:7856   */\n      tag_171\n      jumpi\n        /* \"#utility.yul\":7913:7914   */\n      0x00\n        /* \"#utility.yul\":7910:7911   */\n      dup1\n        /* \"#utility.yul\":7903:7915   */\n      revert\n        /* \"#utility.yul\":7854:7856   */\n    tag_171:\n        /* \"#utility.yul\":7844:7923   */\n      pop\n      jump\t// out\n\n    auxdata: 0xa26469706673582212203e073cf86659f8de5f3c476e8b7b68918f4be34e668210a1bda55e71acc835ff64736f6c63430008040033\n}\n",
				"bytecode": {
					"linkReferences": {},
					"object": "60806040523480156200001157600080fd5b5060405162000c6c38038062000c6c833981810160405281019062000037919062000180565b80600190805190602001906200004f9291906200005e565b50426002819055505062000335565b8280546200006c906200025a565b90600052602060002090601f016020900481019282620000905760008555620000dc565b82601f10620000ab57805160ff1916838001178555620000dc565b82800160010185558215620000dc579182015b82811115620000db578251825591602001919060010190620000be565b5b509050620000eb9190620000ef565b5090565b5b808211156200010a576000816000905550600101620000f0565b5090565b6000620001256200011f84620001ee565b620001c5565b9050828152602081018484840111156200013e57600080fd5b6200014b84828562000224565b509392505050565b600082601f8301126200016557600080fd5b8151620001778482602086016200010e565b91505092915050565b6000602082840312156200019357600080fd5b600082015167ffffffffffffffff811115620001ae57600080fd5b620001bc8482850162000153565b91505092915050565b6000620001d1620001e4565b9050620001df828262000290565b919050565b6000604051905090565b600067ffffffffffffffff8211156200020c576200020b620002f5565b5b620002178262000324565b9050602081019050919050565b60005b838110156200024457808201518184015260208101905062000227565b8381111562000254576000848401525b50505050565b600060028204905060018216806200027357607f821691505b602082108114156200028a5762000289620002c6565b5b50919050565b6200029b8262000324565b810181811067ffffffffffffffff82111715620002bd57620002bc620002f5565b5b80604052505050565b7f4e487b7100000000000000000000000000000000000000000000000000000000600052602260045260246000fd5b7f4e487b7100000000000000000000000000000000000000000000000000000000600052604160045260246000fd5b6000601f19601f8301169050919050565b61092780620003456000396000f3fe608060405234801561001057600080fd5b50600436106100575760003560e01c806310d6f4181461005c578063392eda781461007857806369ddcade14610096578063aec1ef49146100c8578063eb620cb2146100e6575b600080fd5b61007660048036038101906100719190610515565b610116565b005b61008061019c565b60405161008d9190610690565b60405180910390f35b6100b060048036038101906100ab9190610569565b61022a565b6040516100bf939291906106b2565b60405180910390f35b6100d06102e9565b6040516100dd9190610712565b60405180910390f35b61010060048036038101906100fb9190610569565b6102ef565b60405161010d91906106f0565b60405180910390f35b6000604051806060016040528084815260200160025481526020016001151581525090508060008084815260200190815260200160002060008201518160000190805190602001906101699291906103d2565b506020820151816001015560408201518160020160006101000a81548160ff021916908315150217905550905050505050565b600180546101a990610808565b80601f01602080910402602001604051908101604052809291908181526020018280546101d590610808565b80156102225780601f106101f757610100808354040283529160200191610222565b820191906000526020600020905b81548152906001019060200180831161020557829003601f168201915b505050505081565b600060205280600052604060002060009150905080600001805461024d90610808565b80601f016020809104026020016040519081016040528092919081815260200182805461027990610808565b80156102c65780601f1061029b576101008083540402835291602001916102c6565b820191906000526020600020905b8154815290600101906020018083116102a957829003601f168201915b5050505050908060010154908060020160009054906101000a900460ff16905083565b60025481565b6102f7610458565b60008083815260200190815260200160002060405180606001604052908160008201805461032490610808565b80601f016020809104026020016040519081016040528092919081815260200182805461035090610808565b801561039d5780601f106103725761010080835404028352916020019161039d565b820191906000526020600020905b81548152906001019060200180831161038057829003601f168201915b50505050508152602001600182015481526020016002820160009054906101000a900460ff1615151515815250509050919050565b8280546103de90610808565b90600052602060002090601f0160209004810192826104005760008555610447565b82601f1061041957805160ff1916838001178555610447565b82800160010185558215610447579182015b8281111561044657825182559160200191906001019061042b565b5b509050610454919061047b565b5090565b604051806060016040528060608152602001600081526020016000151581525090565b5b8082111561049457600081600090555060010161047c565b5090565b60006104ab6104a684610752565b61072d565b9050828152602081018484840111156104c357600080fd5b6104ce8482856107c6565b509392505050565b600082601f8301126104e757600080fd5b81356104f7848260208601610498565b91505092915050565b60008135905061050f816108da565b92915050565b6000806040838503121561052857600080fd5b600083013567ffffffffffffffff81111561054257600080fd5b61054e858286016104d6565b925050602061055f85828601610500565b9150509250929050565b60006020828403121561057b57600080fd5b600061058984828501610500565b91505092915050565b61059b816107b0565b82525050565b6105aa816107b0565b82525050565b60006105bb82610783565b6105c5818561078e565b93506105d58185602086016107d5565b6105de816108c9565b840191505092915050565b60006105f482610783565b6105fe818561079f565b935061060e8185602086016107d5565b610617816108c9565b840191505092915050565b6000606083016000830151848203600086015261063f82826105b0565b91505060208301516106546020860182610672565b5060408301516106676040860182610592565b508091505092915050565b61067b816107bc565b82525050565b61068a816107bc565b82525050565b600060208201905081810360008301526106aa81846105e9565b905092915050565b600060608201905081810360008301526106cc81866105e9565b90506106db6020830185610681565b6106e860408301846105a1565b949350505050565b6000602082019050818103600083015261070a8184610622565b905092915050565b60006020820190506107276000830184610681565b92915050565b6000610737610748565b9050610743828261083a565b919050565b6000604051905090565b600067ffffffffffffffff82111561076d5761076c61089a565b5b610776826108c9565b9050602081019050919050565b600081519050919050565b600082825260208201905092915050565b600082825260208201905092915050565b60008115159050919050565b6000819050919050565b82818337600083830152505050565b60005b838110156107f35780820151818401526020810190506107d8565b83811115610802576000848401525b50505050565b6000600282049050600182168061082057607f821691505b602082108114156108345761083361086b565b5b50919050565b610843826108c9565b810181811067ffffffffffffffff821117156108625761086161089a565b5b80604052505050565b7f4e487b7100000000000000000000000000000000000000000000000000000000600052602260045260246000fd5b7f4e487b7100000000000000000000000000000000000000000000000000000000600052604160045260246000fd5b6000601f19601f8301169050919050565b6108e3816107bc565b81146108ee57600080fd5b5056fea26469706673582212203e073cf86659f8de5f3c476e8b7b68918f4be34e668210a1bda55e71acc835ff64736f6c63430008040033",
					"opcodes": "PUSH1 0x80 PUSH1 0x40 MSTORE CALLVALUE DUP1 ISZERO PUSH3 0x11 JUMPI PUSH1 0x0 DUP1 REVERT JUMPDEST POP PUSH1 0x40 MLOAD PUSH3 0xC6C CODESIZE SUB DUP1 PUSH3 0xC6C DUP4 CODECOPY DUP2 DUP2 ADD PUSH1 0x40 MSTORE DUP2 ADD SWAP1 PUSH3 0x37 SWAP2 SWAP1 PUSH3 0x180 JUMP JUMPDEST DUP1 PUSH1 0x1 SWAP1 DUP1 MLOAD SWAP1 PUSH1 0x20 ADD SWAP1 PUSH3 0x4F SWAP3 SWAP2 SWAP1 PUSH3 0x5E JUMP JUMPDEST POP TIMESTAMP PUSH1 0x2 DUP2 SWAP1 SSTORE POP POP PUSH3 0x335 JUMP JUMPDEST DUP3 DUP1 SLOAD PUSH3 0x6C SWAP1 PUSH3 0x25A JUMP JUMPDEST SWAP1 PUSH1 0x0 MSTORE PUSH1 0x20 PUSH1 0x0 KECCAK256 SWAP1 PUSH1 0x1F ADD PUSH1 0x20 SWAP1 DIV DUP2 ADD SWAP3 DUP3 PUSH3 0x90 JUMPI PUSH1 0x0 DUP6 SSTORE PUSH3 0xDC JUMP JUMPDEST DUP3 PUSH1 0x1F LT PUSH3 0xAB JUMPI DUP1 MLOAD PUSH1 0xFF NOT AND DUP4 DUP1 ADD OR DUP6 SSTORE PUSH3 0xDC JUMP JUMPDEST DUP3 DUP1 ADD PUSH1 0x1 ADD DUP6 SSTORE DUP3 ISZERO PUSH3 0xDC JUMPI SWAP2 DUP3 ADD JUMPDEST DUP3 DUP2 GT ISZERO PUSH3 0xDB JUMPI DUP3 MLOAD DUP3 SSTORE SWAP2 PUSH1 0x20 ADD SWAP2 SWAP1 PUSH1 0x1 ADD SWAP1 PUSH3 0xBE JUMP JUMPDEST JUMPDEST POP SWAP1 POP PUSH3 0xEB SWAP2 SWAP1 PUSH3 0xEF JUMP JUMPDEST POP SWAP1 JUMP JUMPDEST JUMPDEST DUP1 DUP3 GT ISZERO PUSH3 0x10A JUMPI PUSH1 0x0 DUP2 PUSH1 0x0 SWAP1 SSTORE POP PUSH1 0x1 ADD PUSH3 0xF0 JUMP JUMPDEST POP SWAP1 JUMP JUMPDEST PUSH1 0x0 PUSH3 0x125 PUSH3 0x11F DUP5 PUSH3 0x1EE JUMP JUMPDEST PUSH3 0x1C5 JUMP JUMPDEST SWAP1 POP DUP3 DUP2 MSTORE PUSH1 0x20 DUP2 ADD DUP5 DUP5 DUP5 ADD GT ISZERO PUSH3 0x13E JUMPI PUSH1 0x0 DUP1 REVERT JUMPDEST PUSH3 0x14B DUP5 DUP3 DUP6 PUSH3 0x224 JUMP JUMPDEST POP SWAP4 SWAP3 POP POP POP JUMP JUMPDEST PUSH1 0x0 DUP3 PUSH1 0x1F DUP4 ADD SLT PUSH3 0x165 JUMPI PUSH1 0x0 DUP1 REVERT JUMPDEST DUP2 MLOAD PUSH3 0x177 DUP5 DUP3 PUSH1 0x20 DUP7 ADD PUSH3 0x10E JUMP JUMPDEST SWAP2 POP POP SWAP3 SWAP2 POP POP JUMP JUMPDEST PUSH1 0x0 PUSH1 0x20 DUP3 DUP5 SUB SLT ISZERO PUSH3 0x193 JUMPI PUSH1 0x0 DUP1 REVERT JUMPDEST PUSH1 0x0 DUP3 ADD MLOAD PUSH8 0xFFFFFFFFFFFFFFFF DUP2 GT ISZERO PUSH3 0x1AE JUMPI PUSH1 0x0 DUP1 REVERT JUMPDEST PUSH3 0x1BC DUP5 DUP3 DUP6 ADD PUSH3 0x153 JUMP JUMPDEST SWAP2 POP POP SWAP3 SWAP2 POP POP JUMP JUMPDEST PUSH1 0x0 PUSH3 0x1D1 PUSH3 0x1E4 JUMP JUMPDEST SWAP1 POP PUSH3 0x1DF DUP3 DUP3 PUSH3 0x290 JUMP JUMPDEST SWAP2 SWAP1 POP JUMP JUMPDEST PUSH1 0x0 PUSH1 0x40 MLOAD SWAP1 POP SWAP1 JUMP JUMPDEST PUSH1 0x0 PUSH8 0xFFFFFFFFFFFFFFFF DUP3 GT ISZERO PUSH3 0x20C JUMPI PUSH3 0x20B PUSH3 0x2F5 JUMP JUMPDEST JUMPDEST PUSH3 0x217 DUP3 PUSH3 0x324 JUMP JUMPDEST SWAP1 POP PUSH1 0x20 DUP2 ADD SWAP1 POP SWAP2 SWAP1 POP JUMP JUMPDEST PUSH1 0x0 JUMPDEST DUP4 DUP2 LT ISZERO PUSH3 0x244 JUMPI DUP1 DUP3 ADD MLOAD DUP2 DUP5 ADD MSTORE PUSH1 0x20 DUP2 ADD SWAP1 POP PUSH3 0x227 JUMP JUMPDEST DUP4 DUP2 GT ISZERO PUSH3 0x254 JUMPI PUSH1 0x0 DUP5 DUP5 ADD MSTORE JUMPDEST POP POP POP POP JUMP JUMPDEST PUSH1 0x0 PUSH1 0x2 DUP3 DIV SWAP1 POP PUSH1 0x1 DUP3 AND DUP1 PUSH3 0x273 JUMPI PUSH1 0x7F DUP3 AND SWAP2 POP JUMPDEST PUSH1 0x20 DUP3 LT DUP2 EQ ISZERO PUSH3 0x28A JUMPI PUSH3 0x289 PUSH3 0x2C6 JUMP JUMPDEST JUMPDEST POP SWAP2 SWAP1 POP JUMP JUMPDEST PUSH3 0x29B DUP3 PUSH3 0x324 JUMP JUMPDEST DUP2 ADD DUP2 DUP2 LT PUSH8 0xFFFFFFFFFFFFFFFF DUP3 GT OR ISZERO PUSH3 0x2BD JUMPI PUSH3 0x2BC PUSH3 0x2F5 JUMP JUMPDEST JUMPDEST DUP1 PUSH1 0x40 MSTORE POP POP POP JUMP JUMPDEST PUSH32 0x4E487B7100000000000000000000000000000000000000000000000000000000 PUSH1 0x0 MSTORE PUSH1 0x22 PUSH1 0x4 MSTORE PUSH1 0x24 PUSH1 0x0 REVERT JUMPDEST PUSH32 0x4E487B7100000000000000000000000000000000000000000000000000000000 PUSH1 0x0 MSTORE PUSH1 0x41 PUSH1 0x4 MSTORE PUSH1 0x24 PUSH1 0x0 REVERT JUMPDEST PUSH1 0x0 PUSH1 0x1F NOT PUSH1 0x1F DUP4 ADD AND SWAP1 POP SWAP2 SWAP1 POP JUMP JUMPDEST PUSH2 0x927 DUP1 PUSH3 0x345 PUSH1 0x0 CODECOPY PUSH1 0x0 RETURN INVALID PUSH1 0x80 PUSH1 0x40 MSTORE CALLVALUE DUP1 ISZERO PUSH2 0x10 JUMPI PUSH1 0x0 DUP1 REVERT JUMPDEST POP PUSH1 0x4 CALLDATASIZE LT PUSH2 0x57 JUMPI PUSH1 0x0 CALLDATALOAD PUSH1 0xE0 SHR DUP1 PUSH4 0x10D6F418 EQ PUSH2 0x5C JUMPI DUP1 PUSH4 0x392EDA78 EQ PUSH2 0x78 JUMPI DUP1 PUSH4 0x69DDCADE EQ PUSH2 0x96 JUMPI DUP1 PUSH4 0xAEC1EF49 EQ PUSH2 0xC8 JUMPI DUP1 PUSH4 0xEB620CB2 EQ PUSH2 0xE6 JUMPI JUMPDEST PUSH1 0x0 DUP1 REVERT JUMPDEST PUSH2 0x76 PUSH1 0x4 DUP1 CALLDATASIZE SUB DUP2 ADD SWAP1 PUSH2 0x71 SWAP2 SWAP1 PUSH2 0x515 JUMP JUMPDEST PUSH2 0x116 JUMP JUMPDEST STOP JUMPDEST PUSH2 0x80 PUSH2 0x19C JUMP JUMPDEST PUSH1 0x40 MLOAD PUSH2 0x8D SWAP2 SWAP1 PUSH2 0x690 JUMP JUMPDEST PUSH1 0x40 MLOAD DUP1 SWAP2 SUB SWAP1 RETURN JUMPDEST PUSH2 0xB0 PUSH1 0x4 DUP1 CALLDATASIZE SUB DUP2 ADD SWAP1 PUSH2 0xAB SWAP2 SWAP1 PUSH2 0x569 JUMP JUMPDEST PUSH2 0x22A JUMP JUMPDEST PUSH1 0x40 MLOAD PUSH2 0xBF SWAP4 SWAP3 SWAP2 SWAP1 PUSH2 0x6B2 JUMP JUMPDEST PUSH1 0x40 MLOAD DUP1 SWAP2 SUB SWAP1 RETURN JUMPDEST PUSH2 0xD0 PUSH2 0x2E9 JUMP JUMPDEST PUSH1 0x40 MLOAD PUSH2 0xDD SWAP2 SWAP1 PUSH2 0x712 JUMP JUMPDEST PUSH1 0x40 MLOAD DUP1 SWAP2 SUB SWAP1 RETURN JUMPDEST PUSH2 0x100 PUSH1 0x4 DUP1 CALLDATASIZE SUB DUP2 ADD SWAP1 PUSH2 0xFB SWAP2 SWAP1 PUSH2 0x569 JUMP JUMPDEST PUSH2 0x2EF JUMP JUMPDEST PUSH1 0x40 MLOAD PUSH2 0x10D SWAP2 SWAP1 PUSH2 0x6F0 JUMP JUMPDEST PUSH1 0x40 MLOAD DUP1 SWAP2 SUB SWAP1 RETURN JUMPDEST PUSH1 0x0 PUSH1 0x40 MLOAD DUP1 PUSH1 0x60 ADD PUSH1 0x40 MSTORE DUP1 DUP5 DUP2 MSTORE PUSH1 0x20 ADD PUSH1 0x2 SLOAD DUP2 MSTORE PUSH1 0x20 ADD PUSH1 0x1 ISZERO ISZERO DUP2 MSTORE POP SWAP1 POP DUP1 PUSH1 0x0 DUP1 DUP5 DUP2 MSTORE PUSH1 0x20 ADD SWAP1 DUP2 MSTORE PUSH1 0x20 ADD PUSH1 0x0 KECCAK256 PUSH1 0x0 DUP3 ADD MLOAD DUP2 PUSH1 0x0 ADD SWAP1 DUP1 MLOAD SWAP1 PUSH1 0x20 ADD SWAP1 PUSH2 0x169 SWAP3 SWAP2 SWAP1 PUSH2 0x3D2 JUMP JUMPDEST POP PUSH1 0x20 DUP3 ADD MLOAD DUP2 PUSH1 0x1 ADD SSTORE PUSH1 0x40 DUP3 ADD MLOAD DUP2 PUSH1 0x2 ADD PUSH1 0x0 PUSH2 0x100 EXP DUP2 SLOAD DUP2 PUSH1 0xFF MUL NOT AND SWAP1 DUP4 ISZERO ISZERO MUL OR SWAP1 SSTORE POP SWAP1 POP POP POP POP POP JUMP JUMPDEST PUSH1 0x1 DUP1 SLOAD PUSH2 0x1A9 SWAP1 PUSH2 0x808 JUMP JUMPDEST DUP1 PUSH1 0x1F ADD PUSH1 0x20 DUP1 SWAP2 DIV MUL PUSH1 0x20 ADD PUSH1 0x40 MLOAD SWAP1 DUP2 ADD PUSH1 0x40 MSTORE DUP1 SWAP3 SWAP2 SWAP1 DUP2 DUP2 MSTORE PUSH1 0x20 ADD DUP3 DUP1 SLOAD PUSH2 0x1D5 SWAP1 PUSH2 0x808 JUMP JUMPDEST DUP1 ISZERO PUSH2 0x222 JUMPI DUP1 PUSH1 0x1F LT PUSH2 0x1F7 JUMPI PUSH2 0x100 DUP1 DUP4 SLOAD DIV MUL DUP4 MSTORE SWAP2 PUSH1 0x20 ADD SWAP2 PUSH2 0x222 JUMP JUMPDEST DUP3 ADD SWAP2 SWAP1 PUSH1 0x0 MSTORE PUSH1 0x20 PUSH1 0x0 KECCAK256 SWAP1 JUMPDEST DUP2 SLOAD DUP2 MSTORE SWAP1 PUSH1 0x1 ADD SWAP1 PUSH1 0x20 ADD DUP1 DUP4 GT PUSH2 0x205 JUMPI DUP3 SWAP1 SUB PUSH1 0x1F AND DUP3 ADD SWAP2 JUMPDEST POP POP POP POP POP DUP2 JUMP JUMPDEST PUSH1 0x0 PUSH1 0x20 MSTORE DUP1 PUSH1 0x0 MSTORE PUSH1 0x40 PUSH1 0x0 KECCAK256 PUSH1 0x0 SWAP2 POP SWAP1 POP DUP1 PUSH1 0x0 ADD DUP1 SLOAD PUSH2 0x24D SWAP1 PUSH2 0x808 JUMP JUMPDEST DUP1 PUSH1 0x1F ADD PUSH1 0x20 DUP1 SWAP2 DIV MUL PUSH1 0x20 ADD PUSH1 0x40 MLOAD SWAP1 DUP2 ADD PUSH1 0x40 MSTORE DUP1 SWAP3 SWAP2 SWAP1 DUP2 DUP2 MSTORE PUSH1 0x20 ADD DUP3 DUP1 SLOAD PUSH2 0x279 SWAP1 PUSH2 0x808 JUMP JUMPDEST DUP1 ISZERO PUSH2 0x2C6 JUMPI DUP1 PUSH1 0x1F LT PUSH2 0x29B JUMPI PUSH2 0x100 DUP1 DUP4 SLOAD DIV MUL DUP4 MSTORE SWAP2 PUSH1 0x20 ADD SWAP2 PUSH2 0x2C6 JUMP JUMPDEST DUP3 ADD SWAP2 SWAP1 PUSH1 0x0 MSTORE PUSH1 0x20 PUSH1 0x0 KECCAK256 SWAP1 JUMPDEST DUP2 SLOAD DUP2 MSTORE SWAP1 PUSH1 0x1 ADD SWAP1 PUSH1 0x20 ADD DUP1 DUP4 GT PUSH2 0x2A9 JUMPI DUP3 SWAP1 SUB PUSH1 0x1F AND DUP3 ADD SWAP2 JUMPDEST POP POP POP POP POP SWAP1 DUP1 PUSH1 0x1 ADD SLOAD SWAP1 DUP1 PUSH1 0x2 ADD PUSH1 0x0 SWAP1 SLOAD SWAP1 PUSH2 0x100 EXP SWAP1 DIV PUSH1 0xFF AND SWAP1 POP DUP4 JUMP JUMPDEST PUSH1 0x2 SLOAD DUP2 JUMP JUMPDEST PUSH2 0x2F7 PUSH2 0x458 JUMP JUMPDEST PUSH1 0x0 DUP1 DUP4 DUP2 MSTORE PUSH1 0x20 ADD SWAP1 DUP2 MSTORE PUSH1 0x20 ADD PUSH1 0x0 KECCAK256 PUSH1 0x40 MLOAD DUP1 PUSH1 0x60 ADD PUSH1 0x40 MSTORE SWAP1 DUP2 PUSH1 0x0 DUP3 ADD DUP1 SLOAD PUSH2 0x324 SWAP1 PUSH2 0x808 JUMP JUMPDEST DUP1 PUSH1 0x1F ADD PUSH1 0x20 DUP1 SWAP2 DIV MUL PUSH1 0x20 ADD PUSH1 0x40 MLOAD SWAP1 DUP2 ADD PUSH1 0x40 MSTORE DUP1 SWAP3 SWAP2 SWAP1 DUP2 DUP2 MSTORE PUSH1 0x20 ADD DUP3 DUP1 SLOAD PUSH2 0x350 SWAP1 PUSH2 0x808 JUMP JUMPDEST DUP1 ISZERO PUSH2 0x39D JUMPI DUP1 PUSH1 0x1F LT PUSH2 0x372 JUMPI PUSH2 0x100 DUP1 DUP4 SLOAD DIV MUL DUP4 MSTORE SWAP2 PUSH1 0x20 ADD SWAP2 PUSH2 0x39D JUMP JUMPDEST DUP3 ADD SWAP2 SWAP1 PUSH1 0x0 MSTORE PUSH1 0x20 PUSH1 0x0 KECCAK256 SWAP1 JUMPDEST DUP2 SLOAD DUP2 MSTORE SWAP1 PUSH1 0x1 ADD SWAP1 PUSH1 0x20 ADD DUP1 DUP4 GT PUSH2 0x380 JUMPI DUP3 SWAP1 SUB PUSH1 0x1F AND DUP3 ADD SWAP2 JUMPDEST POP POP POP POP POP DUP2 MSTORE PUSH1 0x20 ADD PUSH1 0x1 DUP3 ADD SLOAD DUP2 MSTORE PUSH1 0x20 ADD PUSH1 0x2 DUP3 ADD PUSH1 0x0 SWAP1 SLOAD SWAP1 PUSH2 0x100 EXP SWAP1 DIV PUSH1 0xFF AND ISZERO ISZERO ISZERO ISZERO DUP2 MSTORE POP POP SWAP1 POP SWAP2 SWAP1 POP JUMP JUMPDEST DUP3 DUP1 SLOAD PUSH2 0x3DE SWAP1 PUSH2 0x808 JUMP JUMPDEST SWAP1 PUSH1 0x0 MSTORE PUSH1 0x20 PUSH1 0x0 KECCAK256 SWAP1 PUSH1 0x1F ADD PUSH1 0x20 SWAP1 DIV DUP2 ADD SWAP3 DUP3 PUSH2 0x400 JUMPI PUSH1 0x0 DUP6 SSTORE PUSH2 0x447 JUMP JUMPDEST DUP3 PUSH1 0x1F LT PUSH2 0x419 JUMPI DUP1 MLOAD PUSH1 0xFF NOT AND DUP4 DUP1 ADD OR DUP6 SSTORE PUSH2 0x447 JUMP JUMPDEST DUP3 DUP1 ADD PUSH1 0x1 ADD DUP6 SSTORE DUP3 ISZERO PUSH2 0x447 JUMPI SWAP2 DUP3 ADD JUMPDEST DUP3 DUP2 GT ISZERO PUSH2 0x446 JUMPI DUP3 MLOAD DUP3 SSTORE SWAP2 PUSH1 0x20 ADD SWAP2 SWAP1 PUSH1 0x1 ADD SWAP1 PUSH2 0x42B JUMP JUMPDEST JUMPDEST POP SWAP1 POP PUSH2 0x454 SWAP2 SWAP1 PUSH2 0x47B JUMP JUMPDEST POP SWAP1 JUMP JUMPDEST PUSH1 0x40 MLOAD DUP1 PUSH1 0x60 ADD PUSH1 0x40 MSTORE DUP1 PUSH1 0x60 DUP2 MSTORE PUSH1 0x20 ADD PUSH1 0x0 DUP2 MSTORE PUSH1 0x20 ADD PUSH1 0x0 ISZERO ISZERO DUP2 MSTORE POP SWAP1 JUMP JUMPDEST JUMPDEST DUP1 DUP3 GT ISZERO PUSH2 0x494 JUMPI PUSH1 0x0 DUP2 PUSH1 0x0 SWAP1 SSTORE POP PUSH1 0x1 ADD PUSH2 0x47C JUMP JUMPDEST POP SWAP1 JUMP JUMPDEST PUSH1 0x0 PUSH2 0x4AB PUSH2 0x4A6 DUP5 PUSH2 0x752 JUMP JUMPDEST PUSH2 0x72D JUMP JUMPDEST SWAP1 POP DUP3 DUP2 MSTORE PUSH1 0x20 DUP2 ADD DUP5 DUP5 DUP5 ADD GT ISZERO PUSH2 0x4C3 JUMPI PUSH1 0x0 DUP1 REVERT JUMPDEST PUSH2 0x4CE DUP5 DUP3 DUP6 PUSH2 0x7C6 JUMP JUMPDEST POP SWAP4 SWAP3 POP POP POP JUMP JUMPDEST PUSH1 0x0 DUP3 PUSH1 0x1F DUP4 ADD SLT PUSH2 0x4E7 JUMPI PUSH1 0x0 DUP1 REVERT JUMPDEST DUP2 CALLDATALOAD PUSH2 0x4F7 DUP5 DUP3 PUSH1 0x20 DUP7 ADD PUSH2 0x498 JUMP JUMPDEST SWAP2 POP POP SWAP3 SWAP2 POP POP JUMP JUMPDEST PUSH1 0x0 DUP2 CALLDATALOAD SWAP1 POP PUSH2 0x50F DUP2 PUSH2 0x8DA JUMP JUMPDEST SWAP3 SWAP2 POP POP JUMP JUMPDEST PUSH1 0x0 DUP1 PUSH1 0x40 DUP4 DUP6 SUB SLT ISZERO PUSH2 0x528 JUMPI PUSH1 0x0 DUP1 REVERT JUMPDEST PUSH1 0x0 DUP4 ADD CALLDATALOAD PUSH8 0xFFFFFFFFFFFFFFFF DUP2 GT ISZERO PUSH2 0x542 JUMPI PUSH1 0x0 DUP1 REVERT JUMPDEST PUSH2 0x54E DUP6 DUP3 DUP7 ADD PUSH2 0x4D6 JUMP JUMPDEST SWAP3 POP POP PUSH1 0x20 PUSH2 0x55F DUP6 DUP3 DUP7 ADD PUSH2 0x500 JUMP JUMPDEST SWAP2 POP POP SWAP3 POP SWAP3 SWAP1 POP JUMP JUMPDEST PUSH1 0x0 PUSH1 0x20 DUP3 DUP5 SUB SLT ISZERO PUSH2 0x57B JUMPI PUSH1 0x0 DUP1 REVERT JUMPDEST PUSH1 0x0 PUSH2 0x589 DUP5 DUP3 DUP6 ADD PUSH2 0x500 JUMP JUMPDEST SWAP2 POP POP SWAP3 SWAP2 POP POP JUMP JUMPDEST PUSH2 0x59B DUP2 PUSH2 0x7B0 JUMP JUMPDEST DUP3 MSTORE POP POP JUMP JUMPDEST PUSH2 0x5AA DUP2 PUSH2 0x7B0 JUMP JUMPDEST DUP3 MSTORE POP POP JUMP JUMPDEST PUSH1 0x0 PUSH2 0x5BB DUP3 PUSH2 0x783 JUMP JUMPDEST PUSH2 0x5C5 DUP2 DUP6 PUSH2 0x78E JUMP JUMPDEST SWAP4 POP PUSH2 0x5D5 DUP2 DUP6 PUSH1 0x20 DUP7 ADD PUSH2 0x7D5 JUMP JUMPDEST PUSH2 0x5DE DUP2 PUSH2 0x8C9 JUMP JUMPDEST DUP5 ADD SWAP2 POP POP SWAP3 SWAP2 POP POP JUMP JUMPDEST PUSH1 0x0 PUSH2 0x5F4 DUP3 PUSH2 0x783 JUMP JUMPDEST PUSH2 0x5FE DUP2 DUP6 PUSH2 0x79F JUMP JUMPDEST SWAP4 POP PUSH2 0x60E DUP2 DUP6 PUSH1 0x20 DUP7 ADD PUSH2 0x7D5 JUMP JUMPDEST PUSH2 0x617 DUP2 PUSH2 0x8C9 JUMP JUMPDEST DUP5 ADD SWAP2 POP POP SWAP3 SWAP2 POP POP JUMP JUMPDEST PUSH1 0x0 PUSH1 0x60 DUP4 ADD PUSH1 0x0 DUP4 ADD MLOAD DUP5 DUP3 SUB PUSH1 0x0 DUP7 ADD MSTORE PUSH2 0x63F DUP3 DUP3 PUSH2 0x5B0 JUMP JUMPDEST SWAP2 POP POP PUSH1 0x20 DUP4 ADD MLOAD PUSH2 0x654 PUSH1 0x20 DUP7 ADD DUP3 PUSH2 0x672 JUMP JUMPDEST POP PUSH1 0x40 DUP4 ADD MLOAD PUSH2 0x667 PUSH1 0x40 DUP7 ADD DUP3 PUSH2 0x592 JUMP JUMPDEST POP DUP1 SWAP2 POP POP SWAP3 SWAP2 POP POP JUMP JUMPDEST PUSH2 0x67B DUP2 PUSH2 0x7BC JUMP JUMPDEST DUP3 MSTORE POP POP JUMP JUMPDEST PUSH2 0x68A DUP2 PUSH2 0x7BC JUMP JUMPDEST DUP3 MSTORE POP POP JUMP JUMPDEST PUSH1 0x0 PUSH1 0x20 DUP3 ADD SWAP1 POP DUP2 DUP2 SUB PUSH1 0x0 DUP4 ADD MSTORE PUSH2 0x6AA DUP2 DUP5 PUSH2 0x5E9 JUMP JUMPDEST SWAP1 POP SWAP3 SWAP2 POP POP JUMP JUMPDEST PUSH1 0x0 PUSH1 0x60 DUP3 ADD SWAP1 POP DUP2 DUP2 SUB PUSH1 0x0 DUP4 ADD MSTORE PUSH2 0x6CC DUP2 DUP7 PUSH2 0x5E9 JUMP JUMPDEST SWAP1 POP PUSH2 0x6DB PUSH1 0x20 DUP4 ADD DUP6 PUSH2 0x681 JUMP JUMPDEST PUSH2 0x6E8 PUSH1 0x40 DUP4 ADD DUP5 PUSH2 0x5A1 JUMP JUMPDEST SWAP5 SWAP4 POP POP POP POP JUMP JUMPDEST PUSH1 0x0 PUSH1 0x20 DUP3 ADD SWAP1 POP DUP2 DUP2 SUB PUSH1 0x0 DUP4 ADD MSTORE PUSH2 0x70A DUP2 DUP5 PUSH2 0x622 JUMP JUMPDEST SWAP1 POP SWAP3 SWAP2 POP POP JUMP JUMPDEST PUSH1 0x0 PUSH1 0x20 DUP3 ADD SWAP1 POP PUSH2 0x727 PUSH1 0x0 DUP4 ADD DUP5 PUSH2 0x681 JUMP JUMPDEST SWAP3 SWAP2 POP POP JUMP JUMPDEST PUSH1 0x0 PUSH2 0x737 PUSH2 0x748 JUMP JUMPDEST SWAP1 POP PUSH2 0x743 DUP3 DUP3 PUSH2 0x83A JUMP JUMPDEST SWAP2 SWAP1 POP JUMP JUMPDEST PUSH1 0x0 PUSH1 0x40 MLOAD SWAP1 POP SWAP1 JUMP JUMPDEST PUSH1 0x0 PUSH8 0xFFFFFFFFFFFFFFFF DUP3 GT ISZERO PUSH2 0x76D JUMPI PUSH2 0x76C PUSH2 0x89A JUMP JUMPDEST JUMPDEST PUSH2 0x776 DUP3 PUSH2 0x8C9 JUMP JUMPDEST SWAP1 POP PUSH1 0x20 DUP2 ADD SWAP1 POP SWAP2 SWAP1 POP JUMP JUMPDEST PUSH1 0x0 DUP2 MLOAD SWAP1 POP SWAP2 SWAP1 POP JUMP JUMPDEST PUSH1 0x0 DUP3 DUP3 MSTORE PUSH1 0x20 DUP3 ADD SWAP1 POP SWAP3 SWAP2 POP POP JUMP JUMPDEST PUSH1 0x0 DUP3 DUP3 MSTORE PUSH1 0x20 DUP3 ADD SWAP1 POP SWAP3 SWAP2 POP POP JUMP JUMPDEST PUSH1 0x0 DUP2 ISZERO ISZERO SWAP1 POP SWAP2 SWAP1 POP JUMP JUMPDEST PUSH1 0x0 DUP2 SWAP1 POP SWAP2 SWAP1 POP JUMP JUMPDEST DUP3 DUP2 DUP4 CALLDATACOPY PUSH1 0x0 DUP4 DUP4 ADD MSTORE POP POP POP JUMP JUMPDEST PUSH1 0x0 JUMPDEST DUP4 DUP2 LT ISZERO PUSH2 0x7F3 JUMPI DUP1 DUP3 ADD MLOAD DUP2 DUP5 ADD MSTORE PUSH1 0x20 DUP2 ADD SWAP1 POP PUSH2 0x7D8 JUMP JUMPDEST DUP4 DUP2 GT ISZERO PUSH2 0x802 JUMPI PUSH1 0x0 DUP5 DUP5 ADD MSTORE JUMPDEST POP POP POP POP JUMP JUMPDEST PUSH1 0x0 PUSH1 0x2 DUP3 DIV SWAP1 POP PUSH1 0x1 DUP3 AND DUP1 PUSH2 0x820 JUMPI PUSH1 0x7F DUP3 AND SWAP2 POP JUMPDEST PUSH1 0x20 DUP3 LT DUP2 EQ ISZERO PUSH2 0x834 JUMPI PUSH2 0x833 PUSH2 0x86B JUMP JUMPDEST JUMPDEST POP SWAP2 SWAP1 POP JUMP JUMPDEST PUSH2 0x843 DUP3 PUSH2 0x8C9 JUMP JUMPDEST DUP2 ADD DUP2 DUP2 LT PUSH8 0xFFFFFFFFFFFFFFFF DUP3 GT OR ISZERO PUSH2 0x862 JUMPI PUSH2 0x861 PUSH2 0x89A JUMP JUMPDEST JUMPDEST DUP1 PUSH1 0x40 MSTORE POP POP POP JUMP JUMPDEST PUSH32 0x4E487B7100000000000000000000000000000000000000000000000000000000 PUSH1 0x0 MSTORE PUSH1 0x22 PUSH1 0x4 MSTORE PUSH1 0x24 PUSH1 0x0 REVERT JUMPDEST PUSH32 0x4E487B7100000000000000000000000000000000000000000000000000000000 PUSH1 0x0 MSTORE PUSH1 0x41 PUSH1 0x4 MSTORE PUSH1 0x24 PUSH1 0x0 REVERT JUMPDEST PUSH1 0x0 PUSH1 0x1F NOT PUSH1 0x1F DUP4 ADD AND SWAP1 POP SWAP2 SWAP1 POP JUMP JUMPDEST PUSH2 0x8E3 DUP2 PUSH2 0x7BC JUMP JUMPDEST DUP2 EQ PUSH2 0x8EE JUMPI PUSH1 0x0 DUP1 REVERT JUMPDEST POP JUMP INVALID LOG2 PUSH5 0x6970667358 0x22 SLT KECCAK256 RETURNDATACOPY SMOD EXTCODECOPY 0xF8 PUSH7 0x59F8DE5F3C476E DUP12 PUSH28 0x68918F4BE34E668210A1BDA55E71ACC835FF64736F6C634300080400 CALLER "
				},
				"gasEstimates": {
					"creation": {
						"codeDepositCost": "468600",
						"executionCost": "infinite",
						"totalCost": "infinite"
					},
					"external": {
						"alumnos(uint256)": "infinite",
						"cosultarCertificado(uint256)": "infinite",
						"fechaCurso()": "1173",
						"guardarCertificado(string,uint256)": "infinite",
						"nombreCls()": "infinite"
					}
				},
				"methodIdentifiers": {
					"alumnos(uint256)": "69ddcade",
					"cosultarCertificado(uint256)": "eb620cb2",
					"fechaCurso()": "aec1ef49",
					"guardarCertificado(string,uint256)": "10d6f418",
					"nombreCls()": "392eda78"
				}
			},
			"storageLayout": {
				"storage": [
					{
						"astId": 13,
						"contract": "Asistencia.sol:CertificadoAsistencia",
						"label": "alumnos",
						"offset": 0,
						"slot": "0",
						"type": "t_mapping(t_uint256,t_struct(Alumno)8_storage)"
					},
					{
						"astId": 15,
						"contract": "Asistencia.sol:CertificadoAsistencia",
						"label": "nombreCls",
						"offset": 0,
						"slot": "1",
						"type": "t_string_storage"
					},
					{
						"astId": 17,
						"contract": "Asistencia.sol:CertificadoAsistencia",
						"label": "fechaCurso",
						"offset": 0,
						"slot": "2",
						"type": "t_uint256"
					}
				],
				"types": {
					"t_bool": {
						"encoding": "inplace",
						"label": "bool",
						"numberOfBytes": "1"
					},
					"t_mapping(t_uint256,t_struct(Alumno)8_storage)": {
						"encoding": "mapping",
						"key": "t_uint256",
						"label": "mapping(uint256 => struct CertificadoAsistencia.Alumno)",
						"numberOfBytes": "32",
						"value": "t_struct(Alumno)8_storage"
					},
					"t_string_storage": {
						"encoding": "bytes",
						"label": "string",
						"numberOfBytes": "32"
					},
					"t_struct(Alumno)8_storage": {
						"encoding": "inplace",
						"label": "struct CertificadoAsistencia.Alumno",
						"members": [
							{
								"astId": 3,
								"contract": "Asistencia.sol:CertificadoAsistencia",
								"label": "nombreEst",
								"offset": 0,
								"slot": "0",
								"type": "t_string_storage"
							},
							{
								"astId": 5,
								"contract": "Asistencia.sol:CertificadoAsistencia",
								"label": "fechaParticipacion",
								"offset": 0,
								"slot": "1",
								"type": "t_uint256"
							},
							{
								"astId": 7,
								"contract": "Asistencia.sol:CertificadoAsistencia",
								"label": "asistio",
								"offset": 0,
								"slot": "2",
								"type": "t_bool"
							}
						],
						"numberOfBytes": "96"
					},
					"t_uint256": {
						"encoding": "inplace",
						"label": "uint256",
						"numberOfBytes": "32"
					}
				}
			},
			"userdoc": {
				"kind": "user",
				"methods": {},
				"version": 1
			}
		}
	}
}