{
	"Asistencia.sol": {
		"CertificadoAsistencia": {
			"abi": [
				{
					"inputs": [
						{
							"internalType": "string",
							"name": "nombreC",
							"type": "string"
						}
					],
					"stateMutability": "nonpayable",
					"type": "constructor"
				},
				{
					"inputs": [
						{
							"internalType": "uint256",
							"name": "",
							"type": "uint256"
						}
					],
					"name": "alumnos",
					"outputs": [
						{
							"internalType": "string",
							"name": "nombreEst",
							"type": "string"
						},
						{
							"internalType": "uint256",
							"name": "fechaParticipacion",
							"type": "uint256"
						},
						{
							"internalType": "bool",
							"name": "asistio",
							"type": "bool"
						}
					],
					"stateMutability": "view",
					"type": "function"
				},
				{
					"inputs": [
						{
							"internalType": "uint256",
							"name": "codigoE",
							"type": "uint256"
						}
					],
					"name": "cosultarCertificado",
					"outputs": [
						{
							"internalType": "bool",
							"name": "",
							"type": "bool"
						}
					],
					"stateMutability": "view",
					"type": "function"
				},
				{
					"inputs": [],
					"name": "fechaCurso",
					"outputs": [
						{
							"internalType": "uint256",
							"name": "",
							"type": "uint256"
						}
					],
					"stateMutability": "view",
					"type": "function"
				},
				{
					"inputs": [
						{
							"internalType": "string",
							"name": "nombreE",
							"type": "string"
						},
						{
							"internalType": "uint256",
							"name": "codigoE",
							"type": "uint256"
						}
					],
					"name": "guardarCertificado",
					"outputs": [],
					"stateMutability": "nonpayable",
					"type": "function"
				},
				{
					"inputs": [],
					"name": "nombreCls",
					"outputs": [
						{
							"internalType": "string",
							"name": "",
							"type": "string"
						}
					],
					"stateMutability": "view",
					"type": "function"
				}
			],
			"devdoc": {
				"kind": "dev",
				"methods": {},
				"version": 1
			},
			"evm": {
				"assembly": "    /* \"Asistencia.sol\":60:818  contract CertificadoAsistencia {\r... */\n  mstore(0x40, 0x80)\n    /* \"Asistencia.sol\":320:487  constructor(string memory nombreC){\r... */\n  callvalue\n  dup1\n  iszero\n  tag_1\n  jumpi\n  0x00\n  dup1\n  revert\ntag_1:\n  pop\n  mload(0x40)\n  sub(codesize, bytecodeSize)\n  dup1\n  bytecodeSize\n  dup4\n  codecopy\n  dup2\n  dup2\n  add\n  0x40\n  mstore\n  dup2\n  add\n  swap1\n  tag_2\n  swap2\n  swap1\n  tag_3\n  jump\t// in\ntag_2:\n    /* \"Asistencia.sol\":377:384  nombreC */\n  dup1\n    /* \"Asistencia.sol\":365:374  nombreCls */\n  0x01\n    /* \"Asistencia.sol\":365:384  nombreCls = nombreC */\n  swap1\n  dup1\n  mload\n  swap1\n  0x20\n  add\n  swap1\n  tag_6\n  swap3\n  swap2\n  swap1\n  tag_7\n  jump\t// in\ntag_6:\n  pop\n    /* \"Asistencia.sol\":447:462  block.timestamp */\n  timestamp\n    /* \"Asistencia.sol\":434:444  fechaCurso */\n  0x02\n    /* \"Asistencia.sol\":434:462  fechaCurso = block.timestamp */\n  dup2\n  swap1\n  sstore\n  pop\n    /* \"Asistencia.sol\":320:487  constructor(string memory nombreC){\r... */\n  pop\n    /* \"Asistencia.sol\":60:818  contract CertificadoAsistencia {\r... */\n  jump(tag_8)\ntag_7:\n  dup3\n  dup1\n  sload\n  tag_9\n  swap1\n  tag_10\n  jump\t// in\ntag_9:\n  swap1\n  0x00\n  mstore\n  keccak256(0x00, 0x20)\n  swap1\n  0x1f\n  add\n  0x20\n  swap1\n  div\n  dup2\n  add\n  swap3\n  dup3\n  tag_12\n  jumpi\n  0x00\n  dup6\n  sstore\n  jump(tag_11)\ntag_12:\n  dup3\n  0x1f\n  lt\n  tag_13\n  jumpi\n  dup1\n  mload\n  not(0xff)\n  and\n  dup4\n  dup1\n  add\n  or\n  dup6\n  sstore\n  jump(tag_11)\ntag_13:\n  dup3\n  dup1\n  add\n  0x01\n  add\n  dup6\n  sstore\n  dup3\n  iszero\n  tag_11\n  jumpi\n  swap2\n  dup3\n  add\ntag_14:\n  dup3\n  dup2\n  gt\n  iszero\n  tag_15\n  jumpi\n  dup3\n  mload\n  dup3\n  sstore\n  swap2\n  0x20\n  add\n  swap2\n  swap1\n  0x01\n  add\n  swap1\n  jump(tag_14)\ntag_15:\ntag_11:\n  pop\n  swap1\n  pop\n  tag_16\n  swap2\n  swap1\n  tag_17\n  jump\t// in\ntag_16:\n  pop\n  swap1\n  jump\t// out\ntag_17:\ntag_18:\n  dup1\n  dup3\n  gt\n  iszero\n  tag_19\n  jumpi\n  0x00\n  dup2\n  0x00\n  swap1\n  sstore\n  pop\n  0x01\n  add\n  jump(tag_18)\ntag_19:\n  pop\n  swap1\n  jump\t// out\n    /* \"#utility.yul\":7:361   */\ntag_21:\n    /* \"#utility.yul\":96:101   */\n  0x00\n    /* \"#utility.yul\":121:187   */\n  tag_23\n    /* \"#utility.yul\":137:186   */\n  tag_24\n    /* \"#utility.yul\":179:185   */\n  dup5\n    /* \"#utility.yul\":137:186   */\n  tag_25\n  jump\t// in\ntag_24:\n    /* \"#utility.yul\":121:187   */\n  tag_26\n  jump\t// in\ntag_23:\n    /* \"#utility.yul\":112:187   */\n  swap1\n  pop\n    /* \"#utility.yul\":210:216   */\n  dup3\n    /* \"#utility.yul\":203:208   */\n  dup2\n    /* \"#utility.yul\":196:217   */\n  mstore\n    /* \"#utility.yul\":248:252   */\n  0x20\n    /* \"#utility.yul\":241:246   */\n  dup2\n    /* \"#utility.yul\":237:253   */\n  add\n    /* \"#utility.yul\":286:289   */\n  dup5\n    /* \"#utility.yul\":277:283   */\n  dup5\n    /* \"#utility.yul\":272:275   */\n  dup5\n    /* \"#utility.yul\":268:284   */\n  add\n    /* \"#utility.yul\":265:290   */\n  gt\n    /* \"#utility.yul\":262:264   */\n  iszero\n  tag_27\n  jumpi\n    /* \"#utility.yul\":303:304   */\n  0x00\n    /* \"#utility.yul\":300:301   */\n  dup1\n    /* \"#utility.yul\":293:305   */\n  revert\n    /* \"#utility.yul\":262:264   */\ntag_27:\n    /* \"#utility.yul\":316:355   */\n  tag_28\n    /* \"#utility.yul\":348:354   */\n  dup5\n    /* \"#utility.yul\":343:346   */\n  dup3\n    /* \"#utility.yul\":338:341   */\n  dup6\n    /* \"#utility.yul\":316:355   */\n  tag_29\n  jump\t// in\ntag_28:\n    /* \"#utility.yul\":102:361   */\n  pop\n  swap4\n  swap3\n  pop\n  pop\n  pop\n  jump\t// out\n    /* \"#utility.yul\":381:669   */\ntag_30:\n    /* \"#utility.yul\":448:453   */\n  0x00\n    /* \"#utility.yul\":497:500   */\n  dup3\n    /* \"#utility.yul\":490:494   */\n  0x1f\n    /* \"#utility.yul\":482:488   */\n  dup4\n    /* \"#utility.yul\":478:495   */\n  add\n    /* \"#utility.yul\":474:501   */\n  slt\n    /* \"#utility.yul\":464:466   */\n  tag_32\n  jumpi\n    /* \"#utility.yul\":515:516   */\n  0x00\n    /* \"#utility.yul\":512:513   */\n  dup1\n    /* \"#utility.yul\":505:517   */\n  revert\n    /* \"#utility.yul\":464:466   */\ntag_32:\n    /* \"#utility.yul\":548:554   */\n  dup2\n    /* \"#utility.yul\":542:555   */\n  mload\n    /* \"#utility.yul\":573:663   */\n  tag_33\n    /* \"#utility.yul\":659:662   */\n  dup5\n    /* \"#utility.yul\":651:657   */\n  dup3\n    /* \"#utility.yul\":644:648   */\n  0x20\n    /* \"#utility.yul\":636:642   */\n  dup7\n    /* \"#utility.yul\":632:649   */\n  add\n    /* \"#utility.yul\":573:663   */\n  tag_21\n  jump\t// in\ntag_33:\n    /* \"#utility.yul\":564:663   */\n  swap2\n  pop\n    /* \"#utility.yul\":454:669   */\n  pop\n  swap3\n  swap2\n  pop\n  pop\n  jump\t// out\n    /* \"#utility.yul\":675:1065   */\ntag_3:\n    /* \"#utility.yul\":755:761   */\n  0x00\n    /* \"#utility.yul\":804:806   */\n  0x20\n    /* \"#utility.yul\":792:801   */\n  dup3\n    /* \"#utility.yul\":783:790   */\n  dup5\n    /* \"#utility.yul\":779:802   */\n  sub\n    /* \"#utility.yul\":775:807   */\n  slt\n    /* \"#utility.yul\":772:774   */\n  iszero\n  tag_35\n  jumpi\n    /* \"#utility.yul\":820:821   */\n  0x00\n    /* \"#utility.yul\":817:818   */\n  dup1\n    /* \"#utility.yul\":810:822   */\n  revert\n    /* \"#utility.yul\":772:774   */\ntag_35:\n    /* \"#utility.yul\":884:885   */\n  0x00\n    /* \"#utility.yul\":873:882   */\n  dup3\n    /* \"#utility.yul\":869:886   */\n  add\n    /* \"#utility.yul\":863:887   */\n  mload\n    /* \"#utility.yul\":914:932   */\n  0xffffffffffffffff\n    /* \"#utility.yul\":906:912   */\n  dup2\n    /* \"#utility.yul\":903:933   */\n  gt\n    /* \"#utility.yul\":900:902   */\n  iszero\n  tag_36\n  jumpi\n    /* \"#utility.yul\":946:947   */\n  0x00\n    /* \"#utility.yul\":943:944   */\n  dup1\n    /* \"#utility.yul\":936:948   */\n  revert\n    /* \"#utility.yul\":900:902   */\ntag_36:\n    /* \"#utility.yul\":974:1048   */\n  tag_37\n    /* \"#utility.yul\":1040:1047   */\n  dup5\n    /* \"#utility.yul\":1031:1037   */\n  dup3\n    /* \"#utility.yul\":1020:1029   */\n  dup6\n    /* \"#utility.yul\":1016:1038   */\n  add\n    /* \"#utility.yul\":974:1048   */\n  tag_30\n  jump\t// in\ntag_37:\n    /* \"#utility.yul\":964:1048   */\n  swap2\n  pop\n    /* \"#utility.yul\":834:1058   */\n  pop\n    /* \"#utility.yul\":762:1065   */\n  swap3\n  swap2\n  pop\n  pop\n  jump\t// out\n    /* \"#utility.yul\":1071:1200   */\ntag_26:\n    /* \"#utility.yul\":1105:1111   */\n  0x00\n    /* \"#utility.yul\":1132:1152   */\n  tag_39\n  tag_40\n  jump\t// in\ntag_39:\n    /* \"#utility.yul\":1122:1152   */\n  swap1\n  pop\n    /* \"#utility.yul\":1161:1194   */\n  tag_41\n    /* \"#utility.yul\":1189:1193   */\n  dup3\n    /* \"#utility.yul\":1181:1187   */\n  dup3\n    /* \"#utility.yul\":1161:1194   */\n  tag_42\n  jump\t// in\ntag_41:\n    /* \"#utility.yul\":1112:1200   */\n  swap2\n  swap1\n  pop\n  jump\t// out\n    /* \"#utility.yul\":1206:1281   */\ntag_40:\n    /* \"#utility.yul\":1239:1245   */\n  0x00\n    /* \"#utility.yul\":1272:1274   */\n  0x40\n    /* \"#utility.yul\":1266:1275   */\n  mload\n    /* \"#utility.yul\":1256:1275   */\n  swap1\n  pop\n    /* \"#utility.yul\":1246:1281   */\n  swap1\n  jump\t// out\n    /* \"#utility.yul\":1287:1595   */\ntag_25:\n    /* \"#utility.yul\":1349:1353   */\n  0x00\n    /* \"#utility.yul\":1439:1457   */\n  0xffffffffffffffff\n    /* \"#utility.yul\":1431:1437   */\n  dup3\n    /* \"#utility.yul\":1428:1458   */\n  gt\n    /* \"#utility.yul\":1425:1427   */\n  iszero\n  tag_45\n  jumpi\n    /* \"#utility.yul\":1461:1479   */\n  tag_46\n  tag_47\n  jump\t// in\ntag_46:\n    /* \"#utility.yul\":1425:1427   */\ntag_45:\n    /* \"#utility.yul\":1499:1528   */\n  tag_48\n    /* \"#utility.yul\":1521:1527   */\n  dup3\n    /* \"#utility.yul\":1499:1528   */\n  tag_49\n  jump\t// in\ntag_48:\n    /* \"#utility.yul\":1491:1528   */\n  swap1\n  pop\n    /* \"#utility.yul\":1583:1587   */\n  0x20\n    /* \"#utility.yul\":1577:1581   */\n  dup2\n    /* \"#utility.yul\":1573:1588   */\n  add\n    /* \"#utility.yul\":1565:1588   */\n  swap1\n  pop\n    /* \"#utility.yul\":1354:1595   */\n  swap2\n  swap1\n  pop\n  jump\t// out\n    /* \"#utility.yul\":1601:1908   */\ntag_29:\n    /* \"#utility.yul\":1669:1670   */\n  0x00\n    /* \"#utility.yul\":1679:1792   */\ntag_51:\n    /* \"#utility.yul\":1693:1699   */\n  dup4\n    /* \"#utility.yul\":1690:1691   */\n  dup2\n    /* \"#utility.yul\":1687:1700   */\n  lt\n    /* \"#utility.yul\":1679:1792   */\n  iszero\n  tag_53\n  jumpi\n    /* \"#utility.yul\":1778:1779   */\n  dup1\n    /* \"#utility.yul\":1773:1776   */\n  dup3\n    /* \"#utility.yul\":1769:1780   */\n  add\n    /* \"#utility.yul\":1763:1781   */\n  mload\n    /* \"#utility.yul\":1759:1760   */\n  dup2\n    /* \"#utility.yul\":1754:1757   */\n  dup5\n    /* \"#utility.yul\":1750:1761   */\n  add\n    /* \"#utility.yul\":1743:1782   */\n  mstore\n    /* \"#utility.yul\":1715:1717   */\n  0x20\n    /* \"#utility.yul\":1712:1713   */\n  dup2\n    /* \"#utility.yul\":1708:1718   */\n  add\n    /* \"#utility.yul\":1703:1718   */\n  swap1\n  pop\n    /* \"#utility.yul\":1679:1792   */\n  jump(tag_51)\ntag_53:\n    /* \"#utility.yul\":1810:1816   */\n  dup4\n    /* \"#utility.yul\":1807:1808   */\n  dup2\n    /* \"#utility.yul\":1804:1817   */\n  gt\n    /* \"#utility.yul\":1801:1803   */\n  iszero\n  tag_54\n  jumpi\n    /* \"#utility.yul\":1890:1891   */\n  0x00\n    /* \"#utility.yul\":1881:1887   */\n  dup5\n    /* \"#utility.yul\":1876:1879   */\n  dup5\n    /* \"#utility.yul\":1872:1888   */\n  add\n    /* \"#utility.yul\":1865:1892   */\n  mstore\n    /* \"#utility.yul\":1801:1803   */\ntag_54:\n    /* \"#utility.yul\":1650:1908   */\n  pop\n  pop\n  pop\n  pop\n  jump\t// out\n    /* \"#utility.yul\":1914:2234   */\ntag_10:\n    /* \"#utility.yul\":1958:1964   */\n  0x00\n    /* \"#utility.yul\":1995:1996   */\n  0x02\n    /* \"#utility.yul\":1989:1993   */\n  dup3\n    /* \"#utility.yul\":1985:1997   */\n  div\n    /* \"#utility.yul\":1975:1997   */\n  swap1\n  pop\n    /* \"#utility.yul\":2042:2043   */\n  0x01\n    /* \"#utility.yul\":2036:2040   */\n  dup3\n    /* \"#utility.yul\":2032:2044   */\n  and\n    /* \"#utility.yul\":2063:2081   */\n  dup1\n    /* \"#utility.yul\":2053:2055   */\n  tag_56\n  jumpi\n    /* \"#utility.yul\":2119:2123   */\n  0x7f\n    /* \"#utility.yul\":2111:2117   */\n  dup3\n    /* \"#utility.yul\":2107:2124   */\n  and\n    /* \"#utility.yul\":2097:2124   */\n  swap2\n  pop\n    /* \"#utility.yul\":2053:2055   */\ntag_56:\n    /* \"#utility.yul\":2181:2183   */\n  0x20\n    /* \"#utility.yul\":2173:2179   */\n  dup3\n    /* \"#utility.yul\":2170:2184   */\n  lt\n    /* \"#utility.yul\":2150:2168   */\n  dup2\n    /* \"#utility.yul\":2147:2185   */\n  eq\n    /* \"#utility.yul\":2144:2146   */\n  iszero\n  tag_57\n  jumpi\n    /* \"#utility.yul\":2200:2218   */\n  tag_58\n  tag_59\n  jump\t// in\ntag_58:\n    /* \"#utility.yul\":2144:2146   */\ntag_57:\n    /* \"#utility.yul\":1965:2234   */\n  pop\n  swap2\n  swap1\n  pop\n  jump\t// out\n    /* \"#utility.yul\":2240:2521   */\ntag_42:\n    /* \"#utility.yul\":2323:2350   */\n  tag_61\n    /* \"#utility.yul\":2345:2349   */\n  dup3\n    /* \"#utility.yul\":2323:2350   */\n  tag_49\n  jump\t// in\ntag_61:\n    /* \"#utility.yul\":2315:2321   */\n  dup2\n    /* \"#utility.yul\":2311:2351   */\n  add\n    /* \"#utility.yul\":2453:2459   */\n  dup2\n    /* \"#utility.yul\":2441:2451   */\n  dup2\n    /* \"#utility.yul\":2438:2460   */\n  lt\n    /* \"#utility.yul\":2417:2435   */\n  0xffffffffffffffff\n    /* \"#utility.yul\":2405:2415   */\n  dup3\n    /* \"#utility.yul\":2402:2436   */\n  gt\n    /* \"#utility.yul\":2399:2461   */\n  or\n    /* \"#utility.yul\":2396:2398   */\n  iszero\n  tag_62\n  jumpi\n    /* \"#utility.yul\":2464:2482   */\n  tag_63\n  tag_47\n  jump\t// in\ntag_63:\n    /* \"#utility.yul\":2396:2398   */\ntag_62:\n    /* \"#utility.yul\":2504:2514   */\n  dup1\n    /* \"#utility.yul\":2500:2502   */\n  0x40\n    /* \"#utility.yul\":2493:2515   */\n  mstore\n    /* \"#utility.yul\":2283:2521   */\n  pop\n  pop\n  pop\n  jump\t// out\n    /* \"#utility.yul\":2527:2707   */\ntag_59:\n    /* \"#utility.yul\":2575:2652   */\n  0x4e487b7100000000000000000000000000000000000000000000000000000000\n    /* \"#utility.yul\":2572:2573   */\n  0x00\n    /* \"#utility.yul\":2565:2653   */\n  mstore\n    /* \"#utility.yul\":2672:2676   */\n  0x22\n    /* \"#utility.yul\":2669:2670   */\n  0x04\n    /* \"#utility.yul\":2662:2677   */\n  mstore\n    /* \"#utility.yul\":2696:2700   */\n  0x24\n    /* \"#utility.yul\":2693:2694   */\n  0x00\n    /* \"#utility.yul\":2686:2701   */\n  revert\n    /* \"#utility.yul\":2713:2893   */\ntag_47:\n    /* \"#utility.yul\":2761:2838   */\n  0x4e487b7100000000000000000000000000000000000000000000000000000000\n    /* \"#utility.yul\":2758:2759   */\n  0x00\n    /* \"#utility.yul\":2751:2839   */\n  mstore\n    /* \"#utility.yul\":2858:2862   */\n  0x41\n    /* \"#utility.yul\":2855:2856   */\n  0x04\n    /* \"#utility.yul\":2848:2863   */\n  mstore\n    /* \"#utility.yul\":2882:2886   */\n  0x24\n    /* \"#utility.yul\":2879:2880   */\n  0x00\n    /* \"#utility.yul\":2872:2887   */\n  revert\n    /* \"#utility.yul\":2899:3001   */\ntag_49:\n    /* \"#utility.yul\":2940:2946   */\n  0x00\n    /* \"#utility.yul\":2991:2993   */\n  0x1f\n    /* \"#utility.yul\":2987:2994   */\n  not\n    /* \"#utility.yul\":2982:2984   */\n  0x1f\n    /* \"#utility.yul\":2975:2980   */\n  dup4\n    /* \"#utility.yul\":2971:2985   */\n  add\n    /* \"#utility.yul\":2967:2995   */\n  and\n    /* \"#utility.yul\":2957:2995   */\n  swap1\n  pop\n    /* \"#utility.yul\":2947:3001   */\n  swap2\n  swap1\n  pop\n  jump\t// out\n    /* \"Asistencia.sol\":60:818  contract CertificadoAsistencia {\r... */\ntag_8:\n  dataSize(sub_0)\n  dup1\n  dataOffset(sub_0)\n  0x00\n  codecopy\n  0x00\n  return\nstop\n\nsub_0: assembly {\n        /* \"Asistencia.sol\":60:818  contract CertificadoAsistencia {\r... */\n      mstore(0x40, 0x80)\n      callvalue\n      dup1\n      iszero\n      tag_1\n      jumpi\n      0x00\n      dup1\n      revert\n    tag_1:\n      pop\n      jumpi(tag_2, lt(calldatasize, 0x04))\n      shr(0xe0, calldataload(0x00))\n      dup1\n      0x10d6f418\n      eq\n      tag_3\n      jumpi\n      dup1\n      0x392eda78\n      eq\n      tag_4\n      jumpi\n      dup1\n      0x69ddcade\n      eq\n      tag_5\n      jumpi\n      dup1\n      0xaec1ef49\n      eq\n      tag_6\n      jumpi\n      dup1\n      0xeb620cb2\n      eq\n      tag_7\n      jumpi\n    tag_2:\n      0x00\n      dup1\n      revert\n        /* \"Asistencia.sol\":495:686  function guardarCertificado(string memory nombreE, uint codigoE) public {\r... */\n    tag_3:\n      tag_8\n      0x04\n      dup1\n      calldatasize\n      sub\n      dup2\n      add\n      swap1\n      tag_9\n      swap2\n      swap1\n      tag_10\n      jump\t// in\n    tag_9:\n      tag_11\n      jump\t// in\n    tag_8:\n      stop\n        /* \"Asistencia.sol\":259:282  string public nombreCls */\n    tag_4:\n      tag_12\n      tag_13\n      jump\t// in\n    tag_12:\n      mload(0x40)\n      tag_14\n      swap2\n      swap1\n      tag_15\n      jump\t// in\n    tag_14:\n      mload(0x40)\n      dup1\n      swap2\n      sub\n      swap1\n      return\n        /* \"Asistencia.sol\":206:251  mapping (\r... */\n    tag_5:\n      tag_16\n      0x04\n      dup1\n      calldatasize\n      sub\n      dup2\n      add\n      swap1\n      tag_17\n      swap2\n      swap1\n      tag_18\n      jump\t// in\n    tag_17:\n      tag_19\n      jump\t// in\n    tag_16:\n      mload(0x40)\n      tag_20\n      swap4\n      swap3\n      swap2\n      swap1\n      tag_21\n      jump\t// in\n    tag_20:\n      mload(0x40)\n      dup1\n      swap2\n      sub\n      swap1\n      return\n        /* \"Asistencia.sol\":289:311  uint public fechaCurso */\n    tag_6:\n      tag_22\n      tag_23\n      jump\t// in\n    tag_22:\n      mload(0x40)\n      tag_24\n      swap2\n      swap1\n      tag_25\n      jump\t// in\n    tag_24:\n      mload(0x40)\n      dup1\n      swap2\n      sub\n      swap1\n      return\n        /* \"Asistencia.sol\":694:815  function cosultarCertificado(uint codigoE) public  view returns (bool) {\r... */\n    tag_7:\n      tag_26\n      0x04\n      dup1\n      calldatasize\n      sub\n      dup2\n      add\n      swap1\n      tag_27\n      swap2\n      swap1\n      tag_18\n      jump\t// in\n    tag_27:\n      tag_28\n      jump\t// in\n    tag_26:\n      mload(0x40)\n      tag_29\n      swap2\n      swap1\n      tag_30\n      jump\t// in\n    tag_29:\n      mload(0x40)\n      dup1\n      swap2\n      sub\n      swap1\n      return\n        /* \"Asistencia.sol\":495:686  function guardarCertificado(string memory nombreE, uint codigoE) public {\r... */\n    tag_11:\n        /* \"Asistencia.sol\":578:602  Alumno memory estudiante */\n      0x00\n        /* \"Asistencia.sol\":605:638  Alumno(nombreE, fechaCurso, true) */\n      mload(0x40)\n      dup1\n      0x60\n      add\n      0x40\n      mstore\n      dup1\n        /* \"Asistencia.sol\":612:619  nombreE */\n      dup5\n        /* \"Asistencia.sol\":605:638  Alumno(nombreE, fechaCurso, true) */\n      dup2\n      mstore\n      0x20\n      add\n        /* \"Asistencia.sol\":621:631  fechaCurso */\n      sload(0x02)\n        /* \"Asistencia.sol\":605:638  Alumno(nombreE, fechaCurso, true) */\n      dup2\n      mstore\n      0x20\n      add\n        /* \"Asistencia.sol\":633:637  true */\n      0x01\n        /* \"Asistencia.sol\":605:638  Alumno(nombreE, fechaCurso, true) */\n      iszero\n      iszero\n      dup2\n      mstore\n      pop\n        /* \"Asistencia.sol\":578:638  Alumno memory estudiante = Alumno(nombreE, fechaCurso, true) */\n      swap1\n      pop\n        /* \"Asistencia.sol\":668:678  estudiante */\n      dup1\n        /* \"Asistencia.sol\":649:656  alumnos */\n      0x00\n        /* \"Asistencia.sol\":649:665  alumnos[codigoE] */\n      dup1\n        /* \"Asistencia.sol\":657:664  codigoE */\n      dup5\n        /* \"Asistencia.sol\":649:665  alumnos[codigoE] */\n      dup2\n      mstore\n      0x20\n      add\n      swap1\n      dup2\n      mstore\n      0x20\n      add\n      0x00\n      keccak256\n        /* \"Asistencia.sol\":649:678  alumnos[codigoE] = estudiante */\n      0x00\n      dup3\n      add\n      mload\n      dup2\n      0x00\n      add\n      swap1\n      dup1\n      mload\n      swap1\n      0x20\n      add\n      swap1\n      tag_32\n      swap3\n      swap2\n      swap1\n      tag_33\n      jump\t// in\n    tag_32:\n      pop\n      0x20\n      dup3\n      add\n      mload\n      dup2\n      0x01\n      add\n      sstore\n      0x40\n      dup3\n      add\n      mload\n      dup2\n      0x02\n      add\n      exp(0x0100, 0x00)\n      dup2\n      sload\n      dup2\n      0xff\n      mul\n      not\n      and\n      swap1\n      dup4\n      iszero\n      iszero\n      mul\n      or\n      swap1\n      sstore\n      pop\n      swap1\n      pop\n      pop\n        /* \"Asistencia.sol\":495:686  function guardarCertificado(string memory nombreE, uint codigoE) public {\r... */\n      pop\n      pop\n      pop\n      jump\t// out\n        /* \"Asistencia.sol\":259:282  string public nombreCls */\n    tag_13:\n      0x01\n      dup1\n      sload\n      tag_34\n      swap1\n      tag_35\n      jump\t// in\n    tag_34:\n      dup1\n      0x1f\n      add\n      0x20\n      dup1\n      swap2\n      div\n      mul\n      0x20\n      add\n      mload(0x40)\n      swap1\n      dup2\n      add\n      0x40\n      mstore\n      dup1\n      swap3\n      swap2\n      swap1\n      dup2\n      dup2\n      mstore\n      0x20\n      add\n      dup3\n      dup1\n      sload\n      tag_36\n      swap1\n      tag_35\n      jump\t// in\n    tag_36:\n      dup1\n      iszero\n      tag_37\n      jumpi\n      dup1\n      0x1f\n      lt\n      tag_38\n      jumpi\n      0x0100\n      dup1\n      dup4\n      sload\n      div\n      mul\n      dup4\n      mstore\n      swap2\n      0x20\n      add\n      swap2\n      jump(tag_37)\n    tag_38:\n      dup3\n      add\n      swap2\n      swap1\n      0x00\n      mstore\n      keccak256(0x00, 0x20)\n      swap1\n    tag_39:\n      dup2\n      sload\n      dup2\n      mstore\n      swap1\n      0x01\n      add\n      swap1\n      0x20\n      add\n      dup1\n      dup4\n      gt\n      tag_39\n      jumpi\n      dup3\n      swap1\n      sub\n      0x1f\n      and\n      dup3\n      add\n      swap2\n    tag_37:\n      pop\n      pop\n      pop\n      pop\n      pop\n      dup2\n      jump\t// out\n        /* \"Asistencia.sol\":206:251  mapping (\r... */\n    tag_19:\n      mstore(0x20, 0x00)\n      dup1\n      0x00\n      mstore\n      keccak256(0x00, 0x40)\n      0x00\n      swap2\n      pop\n      swap1\n      pop\n      dup1\n      0x00\n      add\n      dup1\n      sload\n      tag_40\n      swap1\n      tag_35\n      jump\t// in\n    tag_40:\n      dup1\n      0x1f\n      add\n      0x20\n      dup1\n      swap2\n      div\n      mul\n      0x20\n      add\n      mload(0x40)\n      swap1\n      dup2\n      add\n      0x40\n      mstore\n      dup1\n      swap3\n      swap2\n      swap1\n      dup2\n      dup2\n      mstore\n      0x20\n      add\n      dup3\n      dup1\n      sload\n      tag_41\n      swap1\n      tag_35\n      jump\t// in\n    tag_41:\n      dup1\n      iszero\n      tag_42\n      jumpi\n      dup1\n      0x1f\n      lt\n      tag_43\n      jumpi\n      0x0100\n      dup1\n      dup4\n      sload\n      div\n      mul\n      dup4\n      mstore\n      swap2\n      0x20\n      add\n      swap2\n      jump(tag_42)\n    tag_43:\n      dup3\n      add\n      swap2\n      swap1\n      0x00\n      mstore\n      keccak256(0x00, 0x20)\n      swap1\n    tag_44:\n      dup2\n      sload\n      dup2\n      mstore\n      swap1\n      0x01\n      add\n      swap1\n      0x20\n      add\n      dup1\n      dup4\n      gt\n      tag_44\n      jumpi\n      dup3\n      swap1\n      sub\n      0x1f\n      and\n      dup3\n      add\n      swap2\n    tag_42:\n      pop\n      pop\n      pop\n      pop\n      pop\n      swap1\n      dup1\n      0x01\n      add\n      sload\n      swap1\n      dup1\n      0x02\n      add\n      0x00\n      swap1\n      sload\n      swap1\n      0x0100\n      exp\n      swap1\n      div\n      0xff\n      and\n      swap1\n      pop\n      dup4\n      jump\t// out\n        /* \"Asistencia.sol\":289:311  uint public fechaCurso */\n    tag_23:\n      sload(0x02)\n      dup2\n      jump\t// out\n        /* \"Asistencia.sol\":694:815  function cosultarCertificado(uint codigoE) public  view returns (bool) {\r... */\n    tag_28:\n        /* \"Asistencia.sol\":759:763  bool */\n      0x00\n        /* \"Asistencia.sol\":783:790  alumnos */\n      dup1\n        /* \"Asistencia.sol\":783:799  alumnos[codigoE] */\n      0x00\n        /* \"Asistencia.sol\":791:798  codigoE */\n      dup4\n        /* \"Asistencia.sol\":783:799  alumnos[codigoE] */\n      dup2\n      mstore\n      0x20\n      add\n      swap1\n      dup2\n      mstore\n      0x20\n      add\n      0x00\n      keccak256\n        /* \"Asistencia.sol\":783:807  alumnos[codigoE].asistio */\n      0x02\n      add\n      0x00\n      swap1\n      sload\n      swap1\n      0x0100\n      exp\n      swap1\n      div\n      0xff\n      and\n        /* \"Asistencia.sol\":776:807  return alumnos[codigoE].asistio */\n      swap1\n      pop\n        /* \"Asistencia.sol\":694:815  function cosultarCertificado(uint codigoE) public  view returns (bool) {\r... */\n      swap2\n      swap1\n      pop\n      jump\t// out\n    tag_33:\n      dup3\n      dup1\n      sload\n      tag_46\n      swap1\n      tag_35\n      jump\t// in\n    tag_46:\n      swap1\n      0x00\n      mstore\n      keccak256(0x00, 0x20)\n      swap1\n      0x1f\n      add\n      0x20\n      swap1\n      div\n      dup2\n      add\n      swap3\n      dup3\n      tag_48\n      jumpi\n      0x00\n      dup6\n      sstore\n      jump(tag_47)\n    tag_48:\n      dup3\n      0x1f\n      lt\n      tag_49\n      jumpi\n      dup1\n      mload\n      not(0xff)\n      and\n      dup4\n      dup1\n      add\n      or\n      dup6\n      sstore\n      jump(tag_47)\n    tag_49:\n      dup3\n      dup1\n      add\n      0x01\n      add\n      dup6\n      sstore\n      dup3\n      iszero\n      tag_47\n      jumpi\n      swap2\n      dup3\n      add\n    tag_50:\n      dup3\n      dup2\n      gt\n      iszero\n      tag_51\n      jumpi\n      dup3\n      mload\n      dup3\n      sstore\n      swap2\n      0x20\n      add\n      swap2\n      swap1\n      0x01\n      add\n      swap1\n      jump(tag_50)\n    tag_51:\n    tag_47:\n      pop\n      swap1\n      pop\n      tag_52\n      swap2\n      swap1\n      tag_53\n      jump\t// in\n    tag_52:\n      pop\n      swap1\n      jump\t// out\n    tag_53:\n    tag_54:\n      dup1\n      dup3\n      gt\n      iszero\n      tag_55\n      jumpi\n      0x00\n      dup2\n      0x00\n      swap1\n      sstore\n      pop\n      0x01\n      add\n      jump(tag_54)\n    tag_55:\n      pop\n      swap1\n      jump\t// out\n        /* \"#utility.yul\":7:352   */\n    tag_57:\n        /* \"#utility.yul\":85:90   */\n      0x00\n        /* \"#utility.yul\":110:176   */\n      tag_59\n        /* \"#utility.yul\":126:175   */\n      tag_60\n        /* \"#utility.yul\":168:174   */\n      dup5\n        /* \"#utility.yul\":126:175   */\n      tag_61\n      jump\t// in\n    tag_60:\n        /* \"#utility.yul\":110:176   */\n      tag_62\n      jump\t// in\n    tag_59:\n        /* \"#utility.yul\":101:176   */\n      swap1\n      pop\n        /* \"#utility.yul\":199:205   */\n      dup3\n        /* \"#utility.yul\":192:197   */\n      dup2\n        /* \"#utility.yul\":185:206   */\n      mstore\n        /* \"#utility.yul\":237:241   */\n      0x20\n        /* \"#utility.yul\":230:235   */\n      dup2\n        /* \"#utility.yul\":226:242   */\n      add\n        /* \"#utility.yul\":275:278   */\n      dup5\n        /* \"#utility.yul\":266:272   */\n      dup5\n        /* \"#utility.yul\":261:264   */\n      dup5\n        /* \"#utility.yul\":257:273   */\n      add\n        /* \"#utility.yul\":254:279   */\n      gt\n        /* \"#utility.yul\":251:253   */\n      iszero\n      tag_63\n      jumpi\n        /* \"#utility.yul\":292:293   */\n      0x00\n        /* \"#utility.yul\":289:290   */\n      dup1\n        /* \"#utility.yul\":282:294   */\n      revert\n        /* \"#utility.yul\":251:253   */\n    tag_63:\n        /* \"#utility.yul\":305:346   */\n      tag_64\n        /* \"#utility.yul\":339:345   */\n      dup5\n        /* \"#utility.yul\":334:337   */\n      dup3\n        /* \"#utility.yul\":329:332   */\n      dup6\n        /* \"#utility.yul\":305:346   */\n      tag_65\n      jump\t// in\n    tag_64:\n        /* \"#utility.yul\":91:352   */\n      pop\n      swap4\n      swap3\n      pop\n      pop\n      pop\n      jump\t// out\n        /* \"#utility.yul\":372:645   */\n    tag_66:\n        /* \"#utility.yul\":428:433   */\n      0x00\n        /* \"#utility.yul\":477:480   */\n      dup3\n        /* \"#utility.yul\":470:474   */\n      0x1f\n        /* \"#utility.yul\":462:468   */\n      dup4\n        /* \"#utility.yul\":458:475   */\n      add\n        /* \"#utility.yul\":454:481   */\n      slt\n        /* \"#utility.yul\":444:446   */\n      tag_68\n      jumpi\n        /* \"#utility.yul\":495:496   */\n      0x00\n        /* \"#utility.yul\":492:493   */\n      dup1\n        /* \"#utility.yul\":485:497   */\n      revert\n        /* \"#utility.yul\":444:446   */\n    tag_68:\n        /* \"#utility.yul\":535:541   */\n      dup2\n        /* \"#utility.yul\":522:542   */\n      calldataload\n        /* \"#utility.yul\":560:639   */\n      tag_69\n        /* \"#utility.yul\":635:638   */\n      dup5\n        /* \"#utility.yul\":627:633   */\n      dup3\n        /* \"#utility.yul\":620:624   */\n      0x20\n        /* \"#utility.yul\":612:618   */\n      dup7\n        /* \"#utility.yul\":608:625   */\n      add\n        /* \"#utility.yul\":560:639   */\n      tag_57\n      jump\t// in\n    tag_69:\n        /* \"#utility.yul\":551:639   */\n      swap2\n      pop\n        /* \"#utility.yul\":434:645   */\n      pop\n      swap3\n      swap2\n      pop\n      pop\n      jump\t// out\n        /* \"#utility.yul\":651:790   */\n    tag_70:\n        /* \"#utility.yul\":697:702   */\n      0x00\n        /* \"#utility.yul\":735:741   */\n      dup2\n        /* \"#utility.yul\":722:742   */\n      calldataload\n        /* \"#utility.yul\":713:742   */\n      swap1\n      pop\n        /* \"#utility.yul\":751:784   */\n      tag_72\n        /* \"#utility.yul\":778:783   */\n      dup2\n        /* \"#utility.yul\":751:784   */\n      tag_73\n      jump\t// in\n    tag_72:\n        /* \"#utility.yul\":703:790   */\n      swap3\n      swap2\n      pop\n      pop\n      jump\t// out\n        /* \"#utility.yul\":796:1316   */\n    tag_10:\n        /* \"#utility.yul\":874:880   */\n      0x00\n        /* \"#utility.yul\":882:888   */\n      dup1\n        /* \"#utility.yul\":931:933   */\n      0x40\n        /* \"#utility.yul\":919:928   */\n      dup4\n        /* \"#utility.yul\":910:917   */\n      dup6\n        /* \"#utility.yul\":906:929   */\n      sub\n        /* \"#utility.yul\":902:934   */\n      slt\n        /* \"#utility.yul\":899:901   */\n      iszero\n      tag_75\n      jumpi\n        /* \"#utility.yul\":947:948   */\n      0x00\n        /* \"#utility.yul\":944:945   */\n      dup1\n        /* \"#utility.yul\":937:949   */\n      revert\n        /* \"#utility.yul\":899:901   */\n    tag_75:\n        /* \"#utility.yul\":1018:1019   */\n      0x00\n        /* \"#utility.yul\":1007:1016   */\n      dup4\n        /* \"#utility.yul\":1003:1020   */\n      add\n        /* \"#utility.yul\":990:1021   */\n      calldataload\n        /* \"#utility.yul\":1048:1066   */\n      0xffffffffffffffff\n        /* \"#utility.yul\":1040:1046   */\n      dup2\n        /* \"#utility.yul\":1037:1067   */\n      gt\n        /* \"#utility.yul\":1034:1036   */\n      iszero\n      tag_76\n      jumpi\n        /* \"#utility.yul\":1080:1081   */\n      0x00\n        /* \"#utility.yul\":1077:1078   */\n      dup1\n        /* \"#utility.yul\":1070:1082   */\n      revert\n        /* \"#utility.yul\":1034:1036   */\n    tag_76:\n        /* \"#utility.yul\":1108:1171   */\n      tag_77\n        /* \"#utility.yul\":1163:1170   */\n      dup6\n        /* \"#utility.yul\":1154:1160   */\n      dup3\n        /* \"#utility.yul\":1143:1152   */\n      dup7\n        /* \"#utility.yul\":1139:1161   */\n      add\n        /* \"#utility.yul\":1108:1171   */\n      tag_66\n      jump\t// in\n    tag_77:\n        /* \"#utility.yul\":1098:1171   */\n      swap3\n      pop\n        /* \"#utility.yul\":961:1181   */\n      pop\n        /* \"#utility.yul\":1220:1222   */\n      0x20\n        /* \"#utility.yul\":1246:1299   */\n      tag_78\n        /* \"#utility.yul\":1291:1298   */\n      dup6\n        /* \"#utility.yul\":1282:1288   */\n      dup3\n        /* \"#utility.yul\":1271:1280   */\n      dup7\n        /* \"#utility.yul\":1267:1289   */\n      add\n        /* \"#utility.yul\":1246:1299   */\n      tag_70\n      jump\t// in\n    tag_78:\n        /* \"#utility.yul\":1236:1299   */\n      swap2\n      pop\n        /* \"#utility.yul\":1191:1309   */\n      pop\n        /* \"#utility.yul\":889:1316   */\n      swap3\n      pop\n      swap3\n      swap1\n      pop\n      jump\t// out\n        /* \"#utility.yul\":1322:1584   */\n    tag_18:\n        /* \"#utility.yul\":1381:1387   */\n      0x00\n        /* \"#utility.yul\":1430:1432   */\n      0x20\n        /* \"#utility.yul\":1418:1427   */\n      dup3\n        /* \"#utility.yul\":1409:1416   */\n      dup5\n        /* \"#utility.yul\":1405:1428   */\n      sub\n        /* \"#utility.yul\":1401:1433   */\n      slt\n        /* \"#utility.yul\":1398:1400   */\n      iszero\n      tag_80\n      jumpi\n        /* \"#utility.yul\":1446:1447   */\n      0x00\n        /* \"#utility.yul\":1443:1444   */\n      dup1\n        /* \"#utility.yul\":1436:1448   */\n      revert\n        /* \"#utility.yul\":1398:1400   */\n    tag_80:\n        /* \"#utility.yul\":1489:1490   */\n      0x00\n        /* \"#utility.yul\":1514:1567   */\n      tag_81\n        /* \"#utility.yul\":1559:1566   */\n      dup5\n        /* \"#utility.yul\":1550:1556   */\n      dup3\n        /* \"#utility.yul\":1539:1548   */\n      dup6\n        /* \"#utility.yul\":1535:1557   */\n      add\n        /* \"#utility.yul\":1514:1567   */\n      tag_70\n      jump\t// in\n    tag_81:\n        /* \"#utility.yul\":1504:1567   */\n      swap2\n      pop\n        /* \"#utility.yul\":1460:1577   */\n      pop\n        /* \"#utility.yul\":1388:1584   */\n      swap3\n      swap2\n      pop\n      pop\n      jump\t// out\n        /* \"#utility.yul\":1590:1699   */\n    tag_82:\n        /* \"#utility.yul\":1671:1692   */\n      tag_84\n        /* \"#utility.yul\":1686:1691   */\n      dup2\n        /* \"#utility.yul\":1671:1692   */\n      tag_85\n      jump\t// in\n    tag_84:\n        /* \"#utility.yul\":1666:1669   */\n      dup3\n        /* \"#utility.yul\":1659:1693   */\n      mstore\n        /* \"#utility.yul\":1649:1699   */\n      pop\n      pop\n      jump\t// out\n        /* \"#utility.yul\":1705:2069   */\n    tag_86:\n        /* \"#utility.yul\":1793:1796   */\n      0x00\n        /* \"#utility.yul\":1821:1860   */\n      tag_88\n        /* \"#utility.yul\":1854:1859   */\n      dup3\n        /* \"#utility.yul\":1821:1860   */\n      tag_89\n      jump\t// in\n    tag_88:\n        /* \"#utility.yul\":1876:1947   */\n      tag_90\n        /* \"#utility.yul\":1940:1946   */\n      dup2\n        /* \"#utility.yul\":1935:1938   */\n      dup6\n        /* \"#utility.yul\":1876:1947   */\n      tag_91\n      jump\t// in\n    tag_90:\n        /* \"#utility.yul\":1869:1947   */\n      swap4\n      pop\n        /* \"#utility.yul\":1956:2008   */\n      tag_92\n        /* \"#utility.yul\":2001:2007   */\n      dup2\n        /* \"#utility.yul\":1996:1999   */\n      dup6\n        /* \"#utility.yul\":1989:1993   */\n      0x20\n        /* \"#utility.yul\":1982:1987   */\n      dup7\n        /* \"#utility.yul\":1978:1994   */\n      add\n        /* \"#utility.yul\":1956:2008   */\n      tag_93\n      jump\t// in\n    tag_92:\n        /* \"#utility.yul\":2033:2062   */\n      tag_94\n        /* \"#utility.yul\":2055:2061   */\n      dup2\n        /* \"#utility.yul\":2033:2062   */\n      tag_95\n      jump\t// in\n    tag_94:\n        /* \"#utility.yul\":2028:2031   */\n      dup5\n        /* \"#utility.yul\":2024:2063   */\n      add\n        /* \"#utility.yul\":2017:2063   */\n      swap2\n      pop\n        /* \"#utility.yul\":1797:2069   */\n      pop\n      swap3\n      swap2\n      pop\n      pop\n      jump\t// out\n        /* \"#utility.yul\":2075:2193   */\n    tag_96:\n        /* \"#utility.yul\":2162:2186   */\n      tag_98\n        /* \"#utility.yul\":2180:2185   */\n      dup2\n        /* \"#utility.yul\":2162:2186   */\n      tag_99\n      jump\t// in\n    tag_98:\n        /* \"#utility.yul\":2157:2160   */\n      dup3\n        /* \"#utility.yul\":2150:2187   */\n      mstore\n        /* \"#utility.yul\":2140:2193   */\n      pop\n      pop\n      jump\t// out\n        /* \"#utility.yul\":2199:2409   */\n    tag_30:\n        /* \"#utility.yul\":2286:2290   */\n      0x00\n        /* \"#utility.yul\":2324:2326   */\n      0x20\n        /* \"#utility.yul\":2313:2322   */\n      dup3\n        /* \"#utility.yul\":2309:2327   */\n      add\n        /* \"#utility.yul\":2301:2327   */\n      swap1\n      pop\n        /* \"#utility.yul\":2337:2402   */\n      tag_101\n        /* \"#utility.yul\":2399:2400   */\n      0x00\n        /* \"#utility.yul\":2388:2397   */\n      dup4\n        /* \"#utility.yul\":2384:2401   */\n      add\n        /* \"#utility.yul\":2375:2381   */\n      dup5\n        /* \"#utility.yul\":2337:2402   */\n      tag_82\n      jump\t// in\n    tag_101:\n        /* \"#utility.yul\":2291:2409   */\n      swap3\n      swap2\n      pop\n      pop\n      jump\t// out\n        /* \"#utility.yul\":2415:2728   */\n    tag_15:\n        /* \"#utility.yul\":2528:2532   */\n      0x00\n        /* \"#utility.yul\":2566:2568   */\n      0x20\n        /* \"#utility.yul\":2555:2564   */\n      dup3\n        /* \"#utility.yul\":2551:2569   */\n      add\n        /* \"#utility.yul\":2543:2569   */\n      swap1\n      pop\n        /* \"#utility.yul\":2615:2624   */\n      dup2\n        /* \"#utility.yul\":2609:2613   */\n      dup2\n        /* \"#utility.yul\":2605:2625   */\n      sub\n        /* \"#utility.yul\":2601:2602   */\n      0x00\n        /* \"#utility.yul\":2590:2599   */\n      dup4\n        /* \"#utility.yul\":2586:2603   */\n      add\n        /* \"#utility.yul\":2579:2626   */\n      mstore\n        /* \"#utility.yul\":2643:2721   */\n      tag_103\n        /* \"#utility.yul\":2716:2720   */\n      dup2\n        /* \"#utility.yul\":2707:2713   */\n      dup5\n        /* \"#utility.yul\":2643:2721   */\n      tag_86\n      jump\t// in\n    tag_103:\n        /* \"#utility.yul\":2635:2721   */\n      swap1\n      pop\n        /* \"#utility.yul\":2533:2728   */\n      swap3\n      swap2\n      pop\n      pop\n      jump\t// out\n        /* \"#utility.yul\":2734:3255   */\n    tag_21:\n        /* \"#utility.yul\":2897:2901   */\n      0x00\n        /* \"#utility.yul\":2935:2937   */\n      0x60\n        /* \"#utility.yul\":2924:2933   */\n      dup3\n        /* \"#utility.yul\":2920:2938   */\n      add\n        /* \"#utility.yul\":2912:2938   */\n      swap1\n      pop\n        /* \"#utility.yul\":2984:2993   */\n      dup2\n        /* \"#utility.yul\":2978:2982   */\n      dup2\n        /* \"#utility.yul\":2974:2994   */\n      sub\n        /* \"#utility.yul\":2970:2971   */\n      0x00\n        /* \"#utility.yul\":2959:2968   */\n      dup4\n        /* \"#utility.yul\":2955:2972   */\n      add\n        /* \"#utility.yul\":2948:2995   */\n      mstore\n        /* \"#utility.yul\":3012:3090   */\n      tag_105\n        /* \"#utility.yul\":3085:3089   */\n      dup2\n        /* \"#utility.yul\":3076:3082   */\n      dup7\n        /* \"#utility.yul\":3012:3090   */\n      tag_86\n      jump\t// in\n    tag_105:\n        /* \"#utility.yul\":3004:3090   */\n      swap1\n      pop\n        /* \"#utility.yul\":3100:3172   */\n      tag_106\n        /* \"#utility.yul\":3168:3170   */\n      0x20\n        /* \"#utility.yul\":3157:3166   */\n      dup4\n        /* \"#utility.yul\":3153:3171   */\n      add\n        /* \"#utility.yul\":3144:3150   */\n      dup6\n        /* \"#utility.yul\":3100:3172   */\n      tag_96\n      jump\t// in\n    tag_106:\n        /* \"#utility.yul\":3182:3248   */\n      tag_107\n        /* \"#utility.yul\":3244:3246   */\n      0x40\n        /* \"#utility.yul\":3233:3242   */\n      dup4\n        /* \"#utility.yul\":3229:3247   */\n      add\n        /* \"#utility.yul\":3220:3226   */\n      dup5\n        /* \"#utility.yul\":3182:3248   */\n      tag_82\n      jump\t// in\n    tag_107:\n        /* \"#utility.yul\":2902:3255   */\n      swap5\n      swap4\n      pop\n      pop\n      pop\n      pop\n      jump\t// out\n        /* \"#utility.yul\":3261:3483   */\n    tag_25:\n        /* \"#utility.yul\":3354:3358   */\n      0x00\n        /* \"#utility.yul\":3392:3394   */\n      0x20\n        /* \"#utility.yul\":3381:3390   */\n      dup3\n        /* \"#utility.yul\":3377:3395   */\n      add\n        /* \"#utility.yul\":3369:3395   */\n      swap1\n      pop\n        /* \"#utility.yul\":3405:3476   */\n      tag_109\n        /* \"#utility.yul\":3473:3474   */\n      0x00\n        /* \"#utility.yul\":3462:3471   */\n      dup4\n        /* \"#utility.yul\":3458:3475   */\n      add\n        /* \"#utility.yul\":3449:3455   */\n      dup5\n        /* \"#utility.yul\":3405:3476   */\n      tag_96\n      jump\t// in\n    tag_109:\n        /* \"#utility.yul\":3359:3483   */\n      swap3\n      swap2\n      pop\n      pop\n      jump\t// out\n        /* \"#utility.yul\":3489:3618   */\n    tag_62:\n        /* \"#utility.yul\":3523:3529   */\n      0x00\n        /* \"#utility.yul\":3550:3570   */\n      tag_111\n      tag_112\n      jump\t// in\n    tag_111:\n        /* \"#utility.yul\":3540:3570   */\n      swap1\n      pop\n        /* \"#utility.yul\":3579:3612   */\n      tag_113\n        /* \"#utility.yul\":3607:3611   */\n      dup3\n        /* \"#utility.yul\":3599:3605   */\n      dup3\n        /* \"#utility.yul\":3579:3612   */\n      tag_114\n      jump\t// in\n    tag_113:\n        /* \"#utility.yul\":3530:3618   */\n      swap2\n      swap1\n      pop\n      jump\t// out\n        /* \"#utility.yul\":3624:3699   */\n    tag_112:\n        /* \"#utility.yul\":3657:3663   */\n      0x00\n        /* \"#utility.yul\":3690:3692   */\n      0x40\n        /* \"#utility.yul\":3684:3693   */\n      mload\n        /* \"#utility.yul\":3674:3693   */\n      swap1\n      pop\n        /* \"#utility.yul\":3664:3699   */\n      swap1\n      jump\t// out\n        /* \"#utility.yul\":3705:4013   */\n    tag_61:\n        /* \"#utility.yul\":3767:3771   */\n      0x00\n        /* \"#utility.yul\":3857:3875   */\n      0xffffffffffffffff\n        /* \"#utility.yul\":3849:3855   */\n      dup3\n        /* \"#utility.yul\":3846:3876   */\n      gt\n        /* \"#utility.yul\":3843:3845   */\n      iszero\n      tag_117\n      jumpi\n        /* \"#utility.yul\":3879:3897   */\n      tag_118\n      tag_119\n      jump\t// in\n    tag_118:\n        /* \"#utility.yul\":3843:3845   */\n    tag_117:\n        /* \"#utility.yul\":3917:3946   */\n      tag_120\n        /* \"#utility.yul\":3939:3945   */\n      dup3\n        /* \"#utility.yul\":3917:3946   */\n      tag_95\n      jump\t// in\n    tag_120:\n        /* \"#utility.yul\":3909:3946   */\n      swap1\n      pop\n        /* \"#utility.yul\":4001:4005   */\n      0x20\n        /* \"#utility.yul\":3995:3999   */\n      dup2\n        /* \"#utility.yul\":3991:4006   */\n      add\n        /* \"#utility.yul\":3983:4006   */\n      swap1\n      pop\n        /* \"#utility.yul\":3772:4013   */\n      swap2\n      swap1\n      pop\n      jump\t// out\n        /* \"#utility.yul\":4019:4118   */\n    tag_89:\n        /* \"#utility.yul\":4071:4077   */\n      0x00\n        /* \"#utility.yul\":4105:4110   */\n      dup2\n        /* \"#utility.yul\":4099:4111   */\n      mload\n        /* \"#utility.yul\":4089:4111   */\n      swap1\n      pop\n        /* \"#utility.yul\":4078:4118   */\n      swap2\n      swap1\n      pop\n      jump\t// out\n        /* \"#utility.yul\":4124:4293   */\n    tag_91:\n        /* \"#utility.yul\":4208:4219   */\n      0x00\n        /* \"#utility.yul\":4242:4248   */\n      dup3\n        /* \"#utility.yul\":4237:4240   */\n      dup3\n        /* \"#utility.yul\":4230:4249   */\n      mstore\n        /* \"#utility.yul\":4282:4286   */\n      0x20\n        /* \"#utility.yul\":4277:4280   */\n      dup3\n        /* \"#utility.yul\":4273:4287   */\n      add\n        /* \"#utility.yul\":4258:4287   */\n      swap1\n      pop\n        /* \"#utility.yul\":4220:4293   */\n      swap3\n      swap2\n      pop\n      pop\n      jump\t// out\n        /* \"#utility.yul\":4299:4389   */\n    tag_85:\n        /* \"#utility.yul\":4333:4340   */\n      0x00\n        /* \"#utility.yul\":4376:4381   */\n      dup2\n        /* \"#utility.yul\":4369:4382   */\n      iszero\n        /* \"#utility.yul\":4362:4383   */\n      iszero\n        /* \"#utility.yul\":4351:4383   */\n      swap1\n      pop\n        /* \"#utility.yul\":4341:4389   */\n      swap2\n      swap1\n      pop\n      jump\t// out\n        /* \"#utility.yul\":4395:4472   */\n    tag_99:\n        /* \"#utility.yul\":4432:4439   */\n      0x00\n        /* \"#utility.yul\":4461:4466   */\n      dup2\n        /* \"#utility.yul\":4450:4466   */\n      swap1\n      pop\n        /* \"#utility.yul\":4440:4472   */\n      swap2\n      swap1\n      pop\n      jump\t// out\n        /* \"#utility.yul\":4478:4632   */\n    tag_65:\n        /* \"#utility.yul\":4562:4568   */\n      dup3\n        /* \"#utility.yul\":4557:4560   */\n      dup2\n        /* \"#utility.yul\":4552:4555   */\n      dup4\n        /* \"#utility.yul\":4539:4569   */\n      calldatacopy\n        /* \"#utility.yul\":4624:4625   */\n      0x00\n        /* \"#utility.yul\":4615:4621   */\n      dup4\n        /* \"#utility.yul\":4610:4613   */\n      dup4\n        /* \"#utility.yul\":4606:4622   */\n      add\n        /* \"#utility.yul\":4599:4626   */\n      mstore\n        /* \"#utility.yul\":4529:4632   */\n      pop\n      pop\n      pop\n      jump\t// out\n        /* \"#utility.yul\":4638:4945   */\n    tag_93:\n        /* \"#utility.yul\":4706:4707   */\n      0x00\n        /* \"#utility.yul\":4716:4829   */\n    tag_127:\n        /* \"#utility.yul\":4730:4736   */\n      dup4\n        /* \"#utility.yul\":4727:4728   */\n      dup2\n        /* \"#utility.yul\":4724:4737   */\n      lt\n        /* \"#utility.yul\":4716:4829   */\n      iszero\n      tag_129\n      jumpi\n        /* \"#utility.yul\":4815:4816   */\n      dup1\n        /* \"#utility.yul\":4810:4813   */\n      dup3\n        /* \"#utility.yul\":4806:4817   */\n      add\n        /* \"#utility.yul\":4800:4818   */\n      mload\n        /* \"#utility.yul\":4796:4797   */\n      dup2\n        /* \"#utility.yul\":4791:4794   */\n      dup5\n        /* \"#utility.yul\":4787:4798   */\n      add\n        /* \"#utility.yul\":4780:4819   */\n      mstore\n        /* \"#utility.yul\":4752:4754   */\n      0x20\n        /* \"#utility.yul\":4749:4750   */\n      dup2\n        /* \"#utility.yul\":4745:4755   */\n      add\n        /* \"#utility.yul\":4740:4755   */\n      swap1\n      pop\n        /* \"#utility.yul\":4716:4829   */\n      jump(tag_127)\n    tag_129:\n        /* \"#utility.yul\":4847:4853   */\n      dup4\n        /* \"#utility.yul\":4844:4845   */\n      dup2\n        /* \"#utility.yul\":4841:4854   */\n      gt\n        /* \"#utility.yul\":4838:4840   */\n      iszero\n      tag_130\n      jumpi\n        /* \"#utility.yul\":4927:4928   */\n      0x00\n        /* \"#utility.yul\":4918:4924   */\n      dup5\n        /* \"#utility.yul\":4913:4916   */\n      dup5\n        /* \"#utility.yul\":4909:4925   */\n      add\n        /* \"#utility.yul\":4902:4929   */\n      mstore\n        /* \"#utility.yul\":4838:4840   */\n    tag_130:\n        /* \"#utility.yul\":4687:4945   */\n      pop\n      pop\n      pop\n      pop\n      jump\t// out\n        /* \"#utility.yul\":4951:5271   */\n    tag_35:\n        /* \"#utility.yul\":4995:5001   */\n      0x00\n        /* \"#utility.yul\":5032:5033   */\n      0x02\n        /* \"#utility.yul\":5026:5030   */\n      dup3\n        /* \"#utility.yul\":5022:5034   */\n      div\n        /* \"#utility.yul\":5012:5034   */\n      swap1\n      pop\n        /* \"#utility.yul\":5079:5080   */\n      0x01\n        /* \"#utility.yul\":5073:5077   */\n      dup3\n        /* \"#utility.yul\":5069:5081   */\n      and\n        /* \"#utility.yul\":5100:5118   */\n      dup1\n        /* \"#utility.yul\":5090:5092   */\n      tag_132\n      jumpi\n        /* \"#utility.yul\":5156:5160   */\n      0x7f\n        /* \"#utility.yul\":5148:5154   */\n      dup3\n        /* \"#utility.yul\":5144:5161   */\n      and\n        /* \"#utility.yul\":5134:5161   */\n      swap2\n      pop\n        /* \"#utility.yul\":5090:5092   */\n    tag_132:\n        /* \"#utility.yul\":5218:5220   */\n      0x20\n        /* \"#utility.yul\":5210:5216   */\n      dup3\n        /* \"#utility.yul\":5207:5221   */\n      lt\n        /* \"#utility.yul\":5187:5205   */\n      dup2\n        /* \"#utility.yul\":5184:5222   */\n      eq\n        /* \"#utility.yul\":5181:5183   */\n      iszero\n      tag_133\n      jumpi\n        /* \"#utility.yul\":5237:5255   */\n      tag_134\n      tag_135\n      jump\t// in\n    tag_134:\n        /* \"#utility.yul\":5181:5183   */\n    tag_133:\n        /* \"#utility.yul\":5002:5271   */\n      pop\n      swap2\n      swap1\n      pop\n      jump\t// out\n        /* \"#utility.yul\":5277:5558   */\n    tag_114:\n        /* \"#utility.yul\":5360:5387   */\n      tag_137\n        /* \"#utility.yul\":5382:5386   */\n      dup3\n        /* \"#utility.yul\":5360:5387   */\n      tag_95\n      jump\t// in\n    tag_137:\n        /* \"#utility.yul\":5352:5358   */\n      dup2\n        /* \"#utility.yul\":5348:5388   */\n      add\n        /* \"#utility.yul\":5490:5496   */\n      dup2\n        /* \"#utility.yul\":5478:5488   */\n      dup2\n        /* \"#utility.yul\":5475:5497   */\n      lt\n        /* \"#utility.yul\":5454:5472   */\n      0xffffffffffffffff\n        /* \"#utility.yul\":5442:5452   */\n      dup3\n        /* \"#utility.yul\":5439:5473   */\n      gt\n        /* \"#utility.yul\":5436:5498   */\n      or\n        /* \"#utility.yul\":5433:5435   */\n      iszero\n      tag_138\n      jumpi\n        /* \"#utility.yul\":5501:5519   */\n      tag_139\n      tag_119\n      jump\t// in\n    tag_139:\n        /* \"#utility.yul\":5433:5435   */\n    tag_138:\n        /* \"#utility.yul\":5541:5551   */\n      dup1\n        /* \"#utility.yul\":5537:5539   */\n      0x40\n        /* \"#utility.yul\":5530:5552   */\n      mstore\n        /* \"#utility.yul\":5320:5558   */\n      pop\n      pop\n      pop\n      jump\t// out\n        /* \"#utility.yul\":5564:5744   */\n    tag_135:\n        /* \"#utility.yul\":5612:5689   */\n      0x4e487b7100000000000000000000000000000000000000000000000000000000\n        /* \"#utility.yul\":5609:5610   */\n      0x00\n        /* \"#utility.yul\":5602:5690   */\n      mstore\n        /* \"#utility.yul\":5709:5713   */\n      0x22\n        /* \"#utility.yul\":5706:5707   */\n      0x04\n        /* \"#utility.yul\":5699:5714   */\n      mstore\n        /* \"#utility.yul\":5733:5737   */\n      0x24\n        /* \"#utility.yul\":5730:5731   */\n      0x00\n        /* \"#utility.yul\":5723:5738   */\n      revert\n        /* \"#utility.yul\":5750:5930   */\n    tag_119:\n        /* \"#utility.yul\":5798:5875   */\n      0x4e487b7100000000000000000000000000000000000000000000000000000000\n        /* \"#utility.yul\":5795:5796   */\n      0x00\n        /* \"#utility.yul\":5788:5876   */\n      mstore\n        /* \"#utility.yul\":5895:5899   */\n      0x41\n        /* \"#utility.yul\":5892:5893   */\n      0x04\n        /* \"#utility.yul\":5885:5900   */\n      mstore\n        /* \"#utility.yul\":5919:5923   */\n      0x24\n        /* \"#utility.yul\":5916:5917   */\n      0x00\n        /* \"#utility.yul\":5909:5924   */\n      revert\n        /* \"#utility.yul\":5936:6038   */\n    tag_95:\n        /* \"#utility.yul\":5977:5983   */\n      0x00\n        /* \"#utility.yul\":6028:6030   */\n      0x1f\n        /* \"#utility.yul\":6024:6031   */\n      not\n        /* \"#utility.yul\":6019:6021   */\n      0x1f\n        /* \"#utility.yul\":6012:6017   */\n      dup4\n        /* \"#utility.yul\":6008:6022   */\n      add\n        /* \"#utility.yul\":6004:6032   */\n      and\n        /* \"#utility.yul\":5994:6032   */\n      swap1\n      pop\n        /* \"#utility.yul\":5984:6038   */\n      swap2\n      swap1\n      pop\n      jump\t// out\n        /* \"#utility.yul\":6044:6166   */\n    tag_73:\n        /* \"#utility.yul\":6117:6141   */\n      tag_144\n        /* \"#utility.yul\":6135:6140   */\n      dup2\n        /* \"#utility.yul\":6117:6141   */\n      tag_99\n      jump\t// in\n    tag_144:\n        /* \"#utility.yul\":6110:6115   */\n      dup2\n        /* \"#utility.yul\":6107:6142   */\n      eq\n        /* \"#utility.yul\":6097:6099   */\n      tag_145\n      jumpi\n        /* \"#utility.yul\":6156:6157   */\n      0x00\n        /* \"#utility.yul\":6153:6154   */\n      dup1\n        /* \"#utility.yul\":6146:6158   */\n      revert\n        /* \"#utility.yul\":6097:6099   */\n    tag_145:\n        /* \"#utility.yul\":6087:6166   */\n      pop\n      jump\t// out\n\n    auxdata: 0xa264697066735822122059a7c468f27841d0dce8da2541aad9e6f9761a007455017a9a6e805e99327bbf64736f6c63430008040033\n}\n",
				"bytecode": {
					"linkReferences": {},
					"object": "60806040523480156200001157600080fd5b5060405162000ad338038062000ad3833981810160405281019062000037919062000180565b80600190805190602001906200004f9291906200005e565b50426002819055505062000335565b8280546200006c906200025a565b90600052602060002090601f016020900481019282620000905760008555620000dc565b82601f10620000ab57805160ff1916838001178555620000dc565b82800160010185558215620000dc579182015b82811115620000db578251825591602001919060010190620000be565b5b509050620000eb9190620000ef565b5090565b5b808211156200010a576000816000905550600101620000f0565b5090565b6000620001256200011f84620001ee565b620001c5565b9050828152602081018484840111156200013e57600080fd5b6200014b84828562000224565b509392505050565b600082601f8301126200016557600080fd5b8151620001778482602086016200010e565b91505092915050565b6000602082840312156200019357600080fd5b600082015167ffffffffffffffff811115620001ae57600080fd5b620001bc8482850162000153565b91505092915050565b6000620001d1620001e4565b9050620001df828262000290565b919050565b6000604051905090565b600067ffffffffffffffff8211156200020c576200020b620002f5565b5b620002178262000324565b9050602081019050919050565b60005b838110156200024457808201518184015260208101905062000227565b8381111562000254576000848401525b50505050565b600060028204905060018216806200027357607f821691505b602082108114156200028a5762000289620002c6565b5b50919050565b6200029b8262000324565b810181811067ffffffffffffffff82111715620002bd57620002bc620002f5565b5b80604052505050565b7f4e487b7100000000000000000000000000000000000000000000000000000000600052602260045260246000fd5b7f4e487b7100000000000000000000000000000000000000000000000000000000600052604160045260246000fd5b6000601f19601f8301169050919050565b61078e80620003456000396000f3fe608060405234801561001057600080fd5b50600436106100575760003560e01c806310d6f4181461005c578063392eda781461007857806369ddcade14610096578063aec1ef49146100c8578063eb620cb2146100e6575b600080fd5b6100766004803603810190610071919061043b565b610116565b005b61008061019c565b60405161008d919061052a565b60405180910390f35b6100b060048036038101906100ab919061048f565b61022a565b6040516100bf9392919061054c565b60405180910390f35b6100d06102e9565b6040516100dd919061058a565b60405180910390f35b61010060048036038101906100fb919061048f565b6102ef565b60405161010d919061050f565b60405180910390f35b60006040518060600160405280848152602001600254815260200160011515815250905080600080848152602001908152602001600020600082015181600001908051906020019061016992919061031b565b506020820151816001015560408201518160020160006101000a81548160ff021916908315150217905550905050505050565b600180546101a99061066f565b80601f01602080910402602001604051908101604052809291908181526020018280546101d59061066f565b80156102225780601f106101f757610100808354040283529160200191610222565b820191906000526020600020905b81548152906001019060200180831161020557829003601f168201915b505050505081565b600060205280600052604060002060009150905080600001805461024d9061066f565b80601f01602080910402602001604051908101604052809291908181526020018280546102799061066f565b80156102c65780601f1061029b576101008083540402835291602001916102c6565b820191906000526020600020905b8154815290600101906020018083116102a957829003601f168201915b5050505050908060010154908060020160009054906101000a900460ff16905083565b60025481565b600080600083815260200190815260200160002060020160009054906101000a900460ff169050919050565b8280546103279061066f565b90600052602060002090601f0160209004810192826103495760008555610390565b82601f1061036257805160ff1916838001178555610390565b82800160010185558215610390579182015b8281111561038f578251825591602001919060010190610374565b5b50905061039d91906103a1565b5090565b5b808211156103ba5760008160009055506001016103a2565b5090565b60006103d16103cc846105ca565b6105a5565b9050828152602081018484840111156103e957600080fd5b6103f484828561062d565b509392505050565b600082601f83011261040d57600080fd5b813561041d8482602086016103be565b91505092915050565b60008135905061043581610741565b92915050565b6000806040838503121561044e57600080fd5b600083013567ffffffffffffffff81111561046857600080fd5b610474858286016103fc565b925050602061048585828601610426565b9150509250929050565b6000602082840312156104a157600080fd5b60006104af84828501610426565b91505092915050565b6104c181610617565b82525050565b60006104d2826105fb565b6104dc8185610606565b93506104ec81856020860161063c565b6104f581610730565b840191505092915050565b61050981610623565b82525050565b600060208201905061052460008301846104b8565b92915050565b6000602082019050818103600083015261054481846104c7565b905092915050565b6000606082019050818103600083015261056681866104c7565b90506105756020830185610500565b61058260408301846104b8565b949350505050565b600060208201905061059f6000830184610500565b92915050565b60006105af6105c0565b90506105bb82826106a1565b919050565b6000604051905090565b600067ffffffffffffffff8211156105e5576105e4610701565b5b6105ee82610730565b9050602081019050919050565b600081519050919050565b600082825260208201905092915050565b60008115159050919050565b6000819050919050565b82818337600083830152505050565b60005b8381101561065a57808201518184015260208101905061063f565b83811115610669576000848401525b50505050565b6000600282049050600182168061068757607f821691505b6020821081141561069b5761069a6106d2565b5b50919050565b6106aa82610730565b810181811067ffffffffffffffff821117156106c9576106c8610701565b5b80604052505050565b7f4e487b7100000000000000000000000000000000000000000000000000000000600052602260045260246000fd5b7f4e487b7100000000000000000000000000000000000000000000000000000000600052604160045260246000fd5b6000601f19601f8301169050919050565b61074a81610623565b811461075557600080fd5b5056fea264697066735822122059a7c468f27841d0dce8da2541aad9e6f9761a007455017a9a6e805e99327bbf64736f6c63430008040033",
					"opcodes": "PUSH1 0x80 PUSH1 0x40 MSTORE CALLVALUE DUP1 ISZERO PUSH3 0x11 JUMPI PUSH1 0x0 DUP1 REVERT JUMPDEST POP PUSH1 0x40 MLOAD PUSH3 0xAD3 CODESIZE SUB DUP1 PUSH3 0xAD3 DUP4 CODECOPY DUP2 DUP2 ADD PUSH1 0x40 MSTORE DUP2 ADD SWAP1 PUSH3 0x37 SWAP2 SWAP1 PUSH3 0x180 JUMP JUMPDEST DUP1 PUSH1 0x1 SWAP1 DUP1 MLOAD SWAP1 PUSH1 0x20 ADD SWAP1 PUSH3 0x4F SWAP3 SWAP2 SWAP1 PUSH3 0x5E JUMP JUMPDEST POP TIMESTAMP PUSH1 0x2 DUP2 SWAP1 SSTORE POP POP PUSH3 0x335 JUMP JUMPDEST DUP3 DUP1 SLOAD PUSH3 0x6C SWAP1 PUSH3 0x25A JUMP JUMPDEST SWAP1 PUSH1 0x0 MSTORE PUSH1 0x20 PUSH1 0x0 KECCAK256 SWAP1 PUSH1 0x1F ADD PUSH1 0x20 SWAP1 DIV DUP2 ADD SWAP3 DUP3 PUSH3 0x90 JUMPI PUSH1 0x0 DUP6 SSTORE PUSH3 0xDC JUMP JUMPDEST DUP3 PUSH1 0x1F LT PUSH3 0xAB JUMPI DUP1 MLOAD PUSH1 0xFF NOT AND DUP4 DUP1 ADD OR DUP6 SSTORE PUSH3 0xDC JUMP JUMPDEST DUP3 DUP1 ADD PUSH1 0x1 ADD DUP6 SSTORE DUP3 ISZERO PUSH3 0xDC JUMPI SWAP2 DUP3 ADD JUMPDEST DUP3 DUP2 GT ISZERO PUSH3 0xDB JUMPI DUP3 MLOAD DUP3 SSTORE SWAP2 PUSH1 0x20 ADD SWAP2 SWAP1 PUSH1 0x1 ADD SWAP1 PUSH3 0xBE JUMP JUMPDEST JUMPDEST POP SWAP1 POP PUSH3 0xEB SWAP2 SWAP1 PUSH3 0xEF JUMP JUMPDEST POP SWAP1 JUMP JUMPDEST JUMPDEST DUP1 DUP3 GT ISZERO PUSH3 0x10A JUMPI PUSH1 0x0 DUP2 PUSH1 0x0 SWAP1 SSTORE POP PUSH1 0x1 ADD PUSH3 0xF0 JUMP JUMPDEST POP SWAP1 JUMP JUMPDEST PUSH1 0x0 PUSH3 0x125 PUSH3 0x11F DUP5 PUSH3 0x1EE JUMP JUMPDEST PUSH3 0x1C5 JUMP JUMPDEST SWAP1 POP DUP3 DUP2 MSTORE PUSH1 0x20 DUP2 ADD DUP5 DUP5 DUP5 ADD GT ISZERO PUSH3 0x13E JUMPI PUSH1 0x0 DUP1 REVERT JUMPDEST PUSH3 0x14B DUP5 DUP3 DUP6 PUSH3 0x224 JUMP JUMPDEST POP SWAP4 SWAP3 POP POP POP JUMP JUMPDEST PUSH1 0x0 DUP3 PUSH1 0x1F DUP4 ADD SLT PUSH3 0x165 JUMPI PUSH1 0x0 DUP1 REVERT JUMPDEST DUP2 MLOAD PUSH3 0x177 DUP5 DUP3 PUSH1 0x20 DUP7 ADD PUSH3 0x10E JUMP JUMPDEST SWAP2 POP POP SWAP3 SWAP2 POP POP JUMP JUMPDEST PUSH1 0x0 PUSH1 0x20 DUP3 DUP5 SUB SLT ISZERO PUSH3 0x193 JUMPI PUSH1 0x0 DUP1 REVERT JUMPDEST PUSH1 0x0 DUP3 ADD MLOAD PUSH8 0xFFFFFFFFFFFFFFFF DUP2 GT ISZERO PUSH3 0x1AE JUMPI PUSH1 0x0 DUP1 REVERT JUMPDEST PUSH3 0x1BC DUP5 DUP3 DUP6 ADD PUSH3 0x153 JUMP JUMPDEST SWAP2 POP POP SWAP3 SWAP2 POP POP JUMP JUMPDEST PUSH1 0x0 PUSH3 0x1D1 PUSH3 0x1E4 JUMP JUMPDEST SWAP1 POP PUSH3 0x1DF DUP3 DUP3 PUSH3 0x290 JUMP JUMPDEST SWAP2 SWAP1 POP JUMP JUMPDEST PUSH1 0x0 PUSH1 0x40 MLOAD SWAP1 POP SWAP1 JUMP JUMPDEST PUSH1 0x0 PUSH8 0xFFFFFFFFFFFFFFFF DUP3 GT ISZERO PUSH3 0x20C JUMPI PUSH3 0x20B PUSH3 0x2F5 JUMP JUMPDEST JUMPDEST PUSH3 0x217 DUP3 PUSH3 0x324 JUMP JUMPDEST SWAP1 POP PUSH1 0x20 DUP2 ADD SWAP1 POP SWAP2 SWAP1 POP JUMP JUMPDEST PUSH1 0x0 JUMPDEST DUP4 DUP2 LT ISZERO PUSH3 0x244 JUMPI DUP1 DUP3 ADD MLOAD DUP2 DUP5 ADD MSTORE PUSH1 0x20 DUP2 ADD SWAP1 POP PUSH3 0x227 JUMP JUMPDEST DUP4 DUP2 GT ISZERO PUSH3 0x254 JUMPI PUSH1 0x0 DUP5 DUP5 ADD MSTORE JUMPDEST POP POP POP POP JUMP JUMPDEST PUSH1 0x0 PUSH1 0x2 DUP3 DIV SWAP1 POP PUSH1 0x1 DUP3 AND DUP1 PUSH3 0x273 JUMPI PUSH1 0x7F DUP3 AND SWAP2 POP JUMPDEST PUSH1 0x20 DUP3 LT DUP2 EQ ISZERO PUSH3 0x28A JUMPI PUSH3 0x289 PUSH3 0x2C6 JUMP JUMPDEST JUMPDEST POP SWAP2 SWAP1 POP JUMP JUMPDEST PUSH3 0x29B DUP3 PUSH3 0x324 JUMP JUMPDEST DUP2 ADD DUP2 DUP2 LT PUSH8 0xFFFFFFFFFFFFFFFF DUP3 GT OR ISZERO PUSH3 0x2BD JUMPI PUSH3 0x2BC PUSH3 0x2F5 JUMP JUMPDEST JUMPDEST DUP1 PUSH1 0x40 MSTORE POP POP POP JUMP JUMPDEST PUSH32 0x4E487B7100000000000000000000000000000000000000000000000000000000 PUSH1 0x0 MSTORE PUSH1 0x22 PUSH1 0x4 MSTORE PUSH1 0x24 PUSH1 0x0 REVERT JUMPDEST PUSH32 0x4E487B7100000000000000000000000000000000000000000000000000000000 PUSH1 0x0 MSTORE PUSH1 0x41 PUSH1 0x4 MSTORE PUSH1 0x24 PUSH1 0x0 REVERT JUMPDEST PUSH1 0x0 PUSH1 0x1F NOT PUSH1 0x1F DUP4 ADD AND SWAP1 POP SWAP2 SWAP1 POP JUMP JUMPDEST PUSH2 0x78E DUP1 PUSH3 0x345 PUSH1 0x0 CODECOPY PUSH1 0x0 RETURN INVALID PUSH1 0x80 PUSH1 0x40 MSTORE CALLVALUE DUP1 ISZERO PUSH2 0x10 JUMPI PUSH1 0x0 DUP1 REVERT JUMPDEST POP PUSH1 0x4 CALLDATASIZE LT PUSH2 0x57 JUMPI PUSH1 0x0 CALLDATALOAD PUSH1 0xE0 SHR DUP1 PUSH4 0x10D6F418 EQ PUSH2 0x5C JUMPI DUP1 PUSH4 0x392EDA78 EQ PUSH2 0x78 JUMPI DUP1 PUSH4 0x69DDCADE EQ PUSH2 0x96 JUMPI DUP1 PUSH4 0xAEC1EF49 EQ PUSH2 0xC8 JUMPI DUP1 PUSH4 0xEB620CB2 EQ PUSH2 0xE6 JUMPI JUMPDEST PUSH1 0x0 DUP1 REVERT JUMPDEST PUSH2 0x76 PUSH1 0x4 DUP1 CALLDATASIZE SUB DUP2 ADD SWAP1 PUSH2 0x71 SWAP2 SWAP1 PUSH2 0x43B JUMP JUMPDEST PUSH2 0x116 JUMP JUMPDEST STOP JUMPDEST PUSH2 0x80 PUSH2 0x19C JUMP JUMPDEST PUSH1 0x40 MLOAD PUSH2 0x8D SWAP2 SWAP1 PUSH2 0x52A JUMP JUMPDEST PUSH1 0x40 MLOAD DUP1 SWAP2 SUB SWAP1 RETURN JUMPDEST PUSH2 0xB0 PUSH1 0x4 DUP1 CALLDATASIZE SUB DUP2 ADD SWAP1 PUSH2 0xAB SWAP2 SWAP1 PUSH2 0x48F JUMP JUMPDEST PUSH2 0x22A JUMP JUMPDEST PUSH1 0x40 MLOAD PUSH2 0xBF SWAP4 SWAP3 SWAP2 SWAP1 PUSH2 0x54C JUMP JUMPDEST PUSH1 0x40 MLOAD DUP1 SWAP2 SUB SWAP1 RETURN JUMPDEST PUSH2 0xD0 PUSH2 0x2E9 JUMP JUMPDEST PUSH1 0x40 MLOAD PUSH2 0xDD SWAP2 SWAP1 PUSH2 0x58A JUMP JUMPDEST PUSH1 0x40 MLOAD DUP1 SWAP2 SUB SWAP1 RETURN JUMPDEST PUSH2 0x100 PUSH1 0x4 DUP1 CALLDATASIZE SUB DUP2 ADD SWAP1 PUSH2 0xFB SWAP2 SWAP1 PUSH2 0x48F JUMP JUMPDEST PUSH2 0x2EF JUMP JUMPDEST PUSH1 0x40 MLOAD PUSH2 0x10D SWAP2 SWAP1 PUSH2 0x50F JUMP JUMPDEST PUSH1 0x40 MLOAD DUP1 SWAP2 SUB SWAP1 RETURN JUMPDEST PUSH1 0x0 PUSH1 0x40 MLOAD DUP1 PUSH1 0x60 ADD PUSH1 0x40 MSTORE DUP1 DUP5 DUP2 MSTORE PUSH1 0x20 ADD PUSH1 0x2 SLOAD DUP2 MSTORE PUSH1 0x20 ADD PUSH1 0x1 ISZERO ISZERO DUP2 MSTORE POP SWAP1 POP DUP1 PUSH1 0x0 DUP1 DUP5 DUP2 MSTORE PUSH1 0x20 ADD SWAP1 DUP2 MSTORE PUSH1 0x20 ADD PUSH1 0x0 KECCAK256 PUSH1 0x0 DUP3 ADD MLOAD DUP2 PUSH1 0x0 ADD SWAP1 DUP1 MLOAD SWAP1 PUSH1 0x20 ADD SWAP1 PUSH2 0x169 SWAP3 SWAP2 SWAP1 PUSH2 0x31B JUMP JUMPDEST POP PUSH1 0x20 DUP3 ADD MLOAD DUP2 PUSH1 0x1 ADD SSTORE PUSH1 0x40 DUP3 ADD MLOAD DUP2 PUSH1 0x2 ADD PUSH1 0x0 PUSH2 0x100 EXP DUP2 SLOAD DUP2 PUSH1 0xFF MUL NOT AND SWAP1 DUP4 ISZERO ISZERO MUL OR SWAP1 SSTORE POP SWAP1 POP POP POP POP POP JUMP JUMPDEST PUSH1 0x1 DUP1 SLOAD PUSH2 0x1A9 SWAP1 PUSH2 0x66F JUMP JUMPDEST DUP1 PUSH1 0x1F ADD PUSH1 0x20 DUP1 SWAP2 DIV MUL PUSH1 0x20 ADD PUSH1 0x40 MLOAD SWAP1 DUP2 ADD PUSH1 0x40 MSTORE DUP1 SWAP3 SWAP2 SWAP1 DUP2 DUP2 MSTORE PUSH1 0x20 ADD DUP3 DUP1 SLOAD PUSH2 0x1D5 SWAP1 PUSH2 0x66F JUMP JUMPDEST DUP1 ISZERO PUSH2 0x222 JUMPI DUP1 PUSH1 0x1F LT PUSH2 0x1F7 JUMPI PUSH2 0x100 DUP1 DUP4 SLOAD DIV MUL DUP4 MSTORE SWAP2 PUSH1 0x20 ADD SWAP2 PUSH2 0x222 JUMP JUMPDEST DUP3 ADD SWAP2 SWAP1 PUSH1 0x0 MSTORE PUSH1 0x20 PUSH1 0x0 KECCAK256 SWAP1 JUMPDEST DUP2 SLOAD DUP2 MSTORE SWAP1 PUSH1 0x1 ADD SWAP1 PUSH1 0x20 ADD DUP1 DUP4 GT PUSH2 0x205 JUMPI DUP3 SWAP1 SUB PUSH1 0x1F AND DUP3 ADD SWAP2 JUMPDEST POP POP POP POP POP DUP2 JUMP JUMPDEST PUSH1 0x0 PUSH1 0x20 MSTORE DUP1 PUSH1 0x0 MSTORE PUSH1 0x40 PUSH1 0x0 KECCAK256 PUSH1 0x0 SWAP2 POP SWAP1 POP DUP1 PUSH1 0x0 ADD DUP1 SLOAD PUSH2 0x24D SWAP1 PUSH2 0x66F JUMP JUMPDEST DUP1 PUSH1 0x1F ADD PUSH1 0x20 DUP1 SWAP2 DIV MUL PUSH1 0x20 ADD PUSH1 0x40 MLOAD SWAP1 DUP2 ADD PUSH1 0x40 MSTORE DUP1 SWAP3 SWAP2 SWAP1 DUP2 DUP2 MSTORE PUSH1 0x20 ADD DUP3 DUP1 SLOAD PUSH2 0x279 SWAP1 PUSH2 0x66F JUMP JUMPDEST DUP1 ISZERO PUSH2 0x2C6 JUMPI DUP1 PUSH1 0x1F LT PUSH2 0x29B JUMPI PUSH2 0x100 DUP1 DUP4 SLOAD DIV MUL DUP4 MSTORE SWAP2 PUSH1 0x20 ADD SWAP2 PUSH2 0x2C6 JUMP JUMPDEST DUP3 ADD SWAP2 SWAP1 PUSH1 0x0 MSTORE PUSH1 0x20 PUSH1 0x0 KECCAK256 SWAP1 JUMPDEST DUP2 SLOAD DUP2 MSTORE SWAP1 PUSH1 0x1 ADD SWAP1 PUSH1 0x20 ADD DUP1 DUP4 GT PUSH2 0x2A9 JUMPI DUP3 SWAP1 SUB PUSH1 0x1F AND DUP3 ADD SWAP2 JUMPDEST POP POP POP POP POP SWAP1 DUP1 PUSH1 0x1 ADD SLOAD SWAP1 DUP1 PUSH1 0x2 ADD PUSH1 0x0 SWAP1 SLOAD SWAP1 PUSH2 0x100 EXP SWAP1 DIV PUSH1 0xFF AND SWAP1 POP DUP4 JUMP JUMPDEST PUSH1 0x2 SLOAD DUP2 JUMP JUMPDEST PUSH1 0x0 DUP1 PUSH1 0x0 DUP4 DUP2 MSTORE PUSH1 0x20 ADD SWAP1 DUP2 MSTORE PUSH1 0x20 ADD PUSH1 0x0 KECCAK256 PUSH1 0x2 ADD PUSH1 0x0 SWAP1 SLOAD SWAP1 PUSH2 0x100 EXP SWAP1 DIV PUSH1 0xFF AND SWAP1 POP SWAP2 SWAP1 POP JUMP JUMPDEST DUP3 DUP1 SLOAD PUSH2 0x327 SWAP1 PUSH2 0x66F JUMP JUMPDEST SWAP1 PUSH1 0x0 MSTORE PUSH1 0x20 PUSH1 0x0 KECCAK256 SWAP1 PUSH1 0x1F ADD PUSH1 0x20 SWAP1 DIV DUP2 ADD SWAP3 DUP3 PUSH2 0x349 JUMPI PUSH1 0x0 DUP6 SSTORE PUSH2 0x390 JUMP JUMPDEST DUP3 PUSH1 0x1F LT PUSH2 0x362 JUMPI DUP1 MLOAD PUSH1 0xFF NOT AND DUP4 DUP1 ADD OR DUP6 SSTORE PUSH2 0x390 JUMP JUMPDEST DUP3 DUP1 ADD PUSH1 0x1 ADD DUP6 SSTORE DUP3 ISZERO PUSH2 0x390 JUMPI SWAP2 DUP3 ADD JUMPDEST DUP3 DUP2 GT ISZERO PUSH2 0x38F JUMPI DUP3 MLOAD DUP3 SSTORE SWAP2 PUSH1 0x20 ADD SWAP2 SWAP1 PUSH1 0x1 ADD SWAP1 PUSH2 0x374 JUMP JUMPDEST JUMPDEST POP SWAP1 POP PUSH2 0x39D SWAP2 SWAP1 PUSH2 0x3A1 JUMP JUMPDEST POP SWAP1 JUMP JUMPDEST JUMPDEST DUP1 DUP3 GT ISZERO PUSH2 0x3BA JUMPI PUSH1 0x0 DUP2 PUSH1 0x0 SWAP1 SSTORE POP PUSH1 0x1 ADD PUSH2 0x3A2 JUMP JUMPDEST POP SWAP1 JUMP JUMPDEST PUSH1 0x0 PUSH2 0x3D1 PUSH2 0x3CC DUP5 PUSH2 0x5CA JUMP JUMPDEST PUSH2 0x5A5 JUMP JUMPDEST SWAP1 POP DUP3 DUP2 MSTORE PUSH1 0x20 DUP2 ADD DUP5 DUP5 DUP5 ADD GT ISZERO PUSH2 0x3E9 JUMPI PUSH1 0x0 DUP1 REVERT JUMPDEST PUSH2 0x3F4 DUP5 DUP3 DUP6 PUSH2 0x62D JUMP JUMPDEST POP SWAP4 SWAP3 POP POP POP JUMP JUMPDEST PUSH1 0x0 DUP3 PUSH1 0x1F DUP4 ADD SLT PUSH2 0x40D JUMPI PUSH1 0x0 DUP1 REVERT JUMPDEST DUP2 CALLDATALOAD PUSH2 0x41D DUP5 DUP3 PUSH1 0x20 DUP7 ADD PUSH2 0x3BE JUMP JUMPDEST SWAP2 POP POP SWAP3 SWAP2 POP POP JUMP JUMPDEST PUSH1 0x0 DUP2 CALLDATALOAD SWAP1 POP PUSH2 0x435 DUP2 PUSH2 0x741 JUMP JUMPDEST SWAP3 SWAP2 POP POP JUMP JUMPDEST PUSH1 0x0 DUP1 PUSH1 0x40 DUP4 DUP6 SUB SLT ISZERO PUSH2 0x44E JUMPI PUSH1 0x0 DUP1 REVERT JUMPDEST PUSH1 0x0 DUP4 ADD CALLDATALOAD PUSH8 0xFFFFFFFFFFFFFFFF DUP2 GT ISZERO PUSH2 0x468 JUMPI PUSH1 0x0 DUP1 REVERT JUMPDEST PUSH2 0x474 DUP6 DUP3 DUP7 ADD PUSH2 0x3FC JUMP JUMPDEST SWAP3 POP POP PUSH1 0x20 PUSH2 0x485 DUP6 DUP3 DUP7 ADD PUSH2 0x426 JUMP JUMPDEST SWAP2 POP POP SWAP3 POP SWAP3 SWAP1 POP JUMP JUMPDEST PUSH1 0x0 PUSH1 0x20 DUP3 DUP5 SUB SLT ISZERO PUSH2 0x4A1 JUMPI PUSH1 0x0 DUP1 REVERT JUMPDEST PUSH1 0x0 PUSH2 0x4AF DUP5 DUP3 DUP6 ADD PUSH2 0x426 JUMP JUMPDEST SWAP2 POP POP SWAP3 SWAP2 POP POP JUMP JUMPDEST PUSH2 0x4C1 DUP2 PUSH2 0x617 JUMP JUMPDEST DUP3 MSTORE POP POP JUMP JUMPDEST PUSH1 0x0 PUSH2 0x4D2 DUP3 PUSH2 0x5FB JUMP JUMPDEST PUSH2 0x4DC DUP2 DUP6 PUSH2 0x606 JUMP JUMPDEST SWAP4 POP PUSH2 0x4EC DUP2 DUP6 PUSH1 0x20 DUP7 ADD PUSH2 0x63C JUMP JUMPDEST PUSH2 0x4F5 DUP2 PUSH2 0x730 JUMP JUMPDEST DUP5 ADD SWAP2 POP POP SWAP3 SWAP2 POP POP JUMP JUMPDEST PUSH2 0x509 DUP2 PUSH2 0x623 JUMP JUMPDEST DUP3 MSTORE POP POP JUMP JUMPDEST PUSH1 0x0 PUSH1 0x20 DUP3 ADD SWAP1 POP PUSH2 0x524 PUSH1 0x0 DUP4 ADD DUP5 PUSH2 0x4B8 JUMP JUMPDEST SWAP3 SWAP2 POP POP JUMP JUMPDEST PUSH1 0x0 PUSH1 0x20 DUP3 ADD SWAP1 POP DUP2 DUP2 SUB PUSH1 0x0 DUP4 ADD MSTORE PUSH2 0x544 DUP2 DUP5 PUSH2 0x4C7 JUMP JUMPDEST SWAP1 POP SWAP3 SWAP2 POP POP JUMP JUMPDEST PUSH1 0x0 PUSH1 0x60 DUP3 ADD SWAP1 POP DUP2 DUP2 SUB PUSH1 0x0 DUP4 ADD MSTORE PUSH2 0x566 DUP2 DUP7 PUSH2 0x4C7 JUMP JUMPDEST SWAP1 POP PUSH2 0x575 PUSH1 0x20 DUP4 ADD DUP6 PUSH2 0x500 JUMP JUMPDEST PUSH2 0x582 PUSH1 0x40 DUP4 ADD DUP5 PUSH2 0x4B8 JUMP JUMPDEST SWAP5 SWAP4 POP POP POP POP JUMP JUMPDEST PUSH1 0x0 PUSH1 0x20 DUP3 ADD SWAP1 POP PUSH2 0x59F PUSH1 0x0 DUP4 ADD DUP5 PUSH2 0x500 JUMP JUMPDEST SWAP3 SWAP2 POP POP JUMP JUMPDEST PUSH1 0x0 PUSH2 0x5AF PUSH2 0x5C0 JUMP JUMPDEST SWAP1 POP PUSH2 0x5BB DUP3 DUP3 PUSH2 0x6A1 JUMP JUMPDEST SWAP2 SWAP1 POP JUMP JUMPDEST PUSH1 0x0 PUSH1 0x40 MLOAD SWAP1 POP SWAP1 JUMP JUMPDEST PUSH1 0x0 PUSH8 0xFFFFFFFFFFFFFFFF DUP3 GT ISZERO PUSH2 0x5E5 JUMPI PUSH2 0x5E4 PUSH2 0x701 JUMP JUMPDEST JUMPDEST PUSH2 0x5EE DUP3 PUSH2 0x730 JUMP JUMPDEST SWAP1 POP PUSH1 0x20 DUP2 ADD SWAP1 POP SWAP2 SWAP1 POP JUMP JUMPDEST PUSH1 0x0 DUP2 MLOAD SWAP1 POP SWAP2 SWAP1 POP JUMP JUMPDEST PUSH1 0x0 DUP3 DUP3 MSTORE PUSH1 0x20 DUP3 ADD SWAP1 POP SWAP3 SWAP2 POP POP JUMP JUMPDEST PUSH1 0x0 DUP2 ISZERO ISZERO SWAP1 POP SWAP2 SWAP1 POP JUMP JUMPDEST PUSH1 0x0 DUP2 SWAP1 POP SWAP2 SWAP1 POP JUMP JUMPDEST DUP3 DUP2 DUP4 CALLDATACOPY PUSH1 0x0 DUP4 DUP4 ADD MSTORE POP POP POP JUMP JUMPDEST PUSH1 0x0 JUMPDEST DUP4 DUP2 LT ISZERO PUSH2 0x65A JUMPI DUP1 DUP3 ADD MLOAD DUP2 DUP5 ADD MSTORE PUSH1 0x20 DUP2 ADD SWAP1 POP PUSH2 0x63F JUMP JUMPDEST DUP4 DUP2 GT ISZERO PUSH2 0x669 JUMPI PUSH1 0x0 DUP5 DUP5 ADD MSTORE JUMPDEST POP POP POP POP JUMP JUMPDEST PUSH1 0x0 PUSH1 0x2 DUP3 DIV SWAP1 POP PUSH1 0x1 DUP3 AND DUP1 PUSH2 0x687 JUMPI PUSH1 0x7F DUP3 AND SWAP2 POP JUMPDEST PUSH1 0x20 DUP3 LT DUP2 EQ ISZERO PUSH2 0x69B JUMPI PUSH2 0x69A PUSH2 0x6D2 JUMP JUMPDEST JUMPDEST POP SWAP2 SWAP1 POP JUMP JUMPDEST PUSH2 0x6AA DUP3 PUSH2 0x730 JUMP JUMPDEST DUP2 ADD DUP2 DUP2 LT PUSH8 0xFFFFFFFFFFFFFFFF DUP3 GT OR ISZERO PUSH2 0x6C9 JUMPI PUSH2 0x6C8 PUSH2 0x701 JUMP JUMPDEST JUMPDEST DUP1 PUSH1 0x40 MSTORE POP POP POP JUMP JUMPDEST PUSH32 0x4E487B7100000000000000000000000000000000000000000000000000000000 PUSH1 0x0 MSTORE PUSH1 0x22 PUSH1 0x4 MSTORE PUSH1 0x24 PUSH1 0x0 REVERT JUMPDEST PUSH32 0x4E487B7100000000000000000000000000000000000000000000000000000000 PUSH1 0x0 MSTORE PUSH1 0x41 PUSH1 0x4 MSTORE PUSH1 0x24 PUSH1 0x0 REVERT JUMPDEST PUSH1 0x0 PUSH1 0x1F NOT PUSH1 0x1F DUP4 ADD AND SWAP1 POP SWAP2 SWAP1 POP JUMP JUMPDEST PUSH2 0x74A DUP2 PUSH2 0x623 JUMP JUMPDEST DUP2 EQ PUSH2 0x755 JUMPI PUSH1 0x0 DUP1 REVERT JUMPDEST POP JUMP INVALID LOG2 PUSH5 0x6970667358 0x22 SLT KECCAK256 MSIZE 0xA7 0xC4 PUSH9 0xF27841D0DCE8DA2541 0xAA 0xD9 0xE6 0xF9 PUSH23 0x1A007455017A9A6E805E99327BBF64736F6C6343000804 STOP CALLER "
				},
				"gasEstimates": {
					"creation": {
						"codeDepositCost": "386800",
						"executionCost": "infinite",
						"totalCost": "infinite"
					},
					"external": {
						"alumnos(uint256)": "infinite",
						"cosultarCertificado(uint256)": "1594",
						"fechaCurso()": "1173",
						"guardarCertificado(string,uint256)": "infinite",
						"nombreCls()": "infinite"
					}
				},
				"methodIdentifiers": {
					"alumnos(uint256)": "69ddcade",
					"cosultarCertificado(uint256)": "eb620cb2",
					"fechaCurso()": "aec1ef49",
					"guardarCertificado(string,uint256)": "10d6f418",
					"nombreCls()": "392eda78"
				}
			},
			"storageLayout": {
				"storage": [
					{
						"astId": 13,
						"contract": "Asistencia.sol:CertificadoAsistencia",
						"label": "alumnos",
						"offset": 0,
						"slot": "0",
						"type": "t_mapping(t_uint256,t_struct(Alumno)8_storage)"
					},
					{
						"astId": 15,
						"contract": "Asistencia.sol:CertificadoAsistencia",
						"label": "nombreCls",
						"offset": 0,
						"slot": "1",
						"type": "t_string_storage"
					},
					{
						"astId": 17,
						"contract": "Asistencia.sol:CertificadoAsistencia",
						"label": "fechaCurso",
						"offset": 0,
						"slot": "2",
						"type": "t_uint256"
					}
				],
				"types": {
					"t_bool": {
						"encoding": "inplace",
						"label": "bool",
						"numberOfBytes": "1"
					},
					"t_mapping(t_uint256,t_struct(Alumno)8_storage)": {
						"encoding": "mapping",
						"key": "t_uint256",
						"label": "mapping(uint256 => struct CertificadoAsistencia.Alumno)",
						"numberOfBytes": "32",
						"value": "t_struct(Alumno)8_storage"
					},
					"t_string_storage": {
						"encoding": "bytes",
						"label": "string",
						"numberOfBytes": "32"
					},
					"t_struct(Alumno)8_storage": {
						"encoding": "inplace",
						"label": "struct CertificadoAsistencia.Alumno",
						"members": [
							{
								"astId": 3,
								"contract": "Asistencia.sol:CertificadoAsistencia",
								"label": "nombreEst",
								"offset": 0,
								"slot": "0",
								"type": "t_string_storage"
							},
							{
								"astId": 5,
								"contract": "Asistencia.sol:CertificadoAsistencia",
								"label": "fechaParticipacion",
								"offset": 0,
								"slot": "1",
								"type": "t_uint256"
							},
							{
								"astId": 7,
								"contract": "Asistencia.sol:CertificadoAsistencia",
								"label": "asistio",
								"offset": 0,
								"slot": "2",
								"type": "t_bool"
							}
						],
						"numberOfBytes": "96"
					},
					"t_uint256": {
						"encoding": "inplace",
						"label": "uint256",
						"numberOfBytes": "32"
					}
				}
			},
			"userdoc": {
				"kind": "user",
				"methods": {},
				"version": 1
			}
		}
	}
}