{
	"AsistenciaClase.sol": {
		"CertificadoAsistencia": {
			"abi": [
				{
					"inputs": [],
					"stateMutability": "nonpayable",
					"type": "constructor"
				},
				{
					"inputs": [
						{
							"internalType": "uint256",
							"name": "",
							"type": "uint256"
						}
					],
					"name": "alumnos",
					"outputs": [
						{
							"internalType": "string",
							"name": "nombreEst",
							"type": "string"
						},
						{
							"internalType": "string",
							"name": "nombreCls",
							"type": "string"
						},
						{
							"internalType": "uint256",
							"name": "fechaParticipacion",
							"type": "uint256"
						},
						{
							"internalType": "bool",
							"name": "asistio",
							"type": "bool"
						}
					],
					"stateMutability": "view",
					"type": "function"
				},
				{
					"inputs": [
						{
							"internalType": "uint256",
							"name": "codigoE",
							"type": "uint256"
						}
					],
					"name": "cosultarCertificado",
					"outputs": [
						{
							"internalType": "bool",
							"name": "",
							"type": "bool"
						}
					],
					"stateMutability": "view",
					"type": "function"
				},
				{
					"inputs": [
						{
							"internalType": "string",
							"name": "nombreE",
							"type": "string"
						},
						{
							"internalType": "string",
							"name": "nombreC",
							"type": "string"
						},
						{
							"internalType": "uint256",
							"name": "codigoE",
							"type": "uint256"
						},
						{
							"internalType": "uint256",
							"name": "fechaP",
							"type": "uint256"
						}
					],
					"name": "guardarCertificado",
					"outputs": [],
					"stateMutability": "nonpayable",
					"type": "function"
				}
			],
			"devdoc": {
				"kind": "dev",
				"methods": {},
				"version": 1
			},
			"evm": {
				"assembly": "    /* \"AsistenciaClase.sol\":60:684  contract CertificadoAsistencia {\r... */\n  mstore(0x40, 0x80)\n    /* \"AsistenciaClase.sol\":286:313  constructor() {     \r... */\n  callvalue\n  dup1\n  iszero\n  tag_1\n  jumpi\n  0x00\n  dup1\n  revert\ntag_1:\n  pop\n    /* \"AsistenciaClase.sol\":60:684  contract CertificadoAsistencia {\r... */\n  dataSize(sub_0)\n  dup1\n  dataOffset(sub_0)\n  0x00\n  codecopy\n  0x00\n  return\nstop\n\nsub_0: assembly {\n        /* \"AsistenciaClase.sol\":60:684  contract CertificadoAsistencia {\r... */\n      mstore(0x40, 0x80)\n      callvalue\n      dup1\n      iszero\n      tag_1\n      jumpi\n      0x00\n      dup1\n      revert\n    tag_1:\n      pop\n      jumpi(tag_2, lt(calldatasize, 0x04))\n      shr(0xe0, calldataload(0x00))\n      dup1\n      0x69ddcade\n      eq\n      tag_3\n      jumpi\n      dup1\n      0x792c3b11\n      eq\n      tag_4\n      jumpi\n      dup1\n      0xeb620cb2\n      eq\n      tag_5\n      jumpi\n    tag_2:\n      0x00\n      dup1\n      revert\n        /* \"AsistenciaClase.sol\":231:276  mapping (\r... */\n    tag_3:\n      tag_6\n      0x04\n      dup1\n      calldatasize\n      sub\n      dup2\n      add\n      swap1\n      tag_7\n      swap2\n      swap1\n      tag_8\n      jump\t// in\n    tag_7:\n      tag_9\n      jump\t// in\n    tag_6:\n      mload(0x40)\n      tag_10\n      swap5\n      swap4\n      swap3\n      swap2\n      swap1\n      tag_11\n      jump\t// in\n    tag_10:\n      mload(0x40)\n      dup1\n      swap2\n      sub\n      swap1\n      return\n        /* \"AsistenciaClase.sol\":321:552  function guardarCertificado(string memory nombreE, string memory nombreC, uint codigoE, uint fechaP) public {\r... */\n    tag_4:\n      tag_12\n      0x04\n      dup1\n      calldatasize\n      sub\n      dup2\n      add\n      swap1\n      tag_13\n      swap2\n      swap1\n      tag_14\n      jump\t// in\n    tag_13:\n      tag_15\n      jump\t// in\n    tag_12:\n      stop\n        /* \"AsistenciaClase.sol\":560:681  function cosultarCertificado(uint codigoE) public  view returns (bool) {\r... */\n    tag_5:\n      tag_16\n      0x04\n      dup1\n      calldatasize\n      sub\n      dup2\n      add\n      swap1\n      tag_17\n      swap2\n      swap1\n      tag_8\n      jump\t// in\n    tag_17:\n      tag_18\n      jump\t// in\n    tag_16:\n      mload(0x40)\n      tag_19\n      swap2\n      swap1\n      tag_20\n      jump\t// in\n    tag_19:\n      mload(0x40)\n      dup1\n      swap2\n      sub\n      swap1\n      return\n        /* \"AsistenciaClase.sol\":231:276  mapping (\r... */\n    tag_9:\n      mstore(0x20, 0x00)\n      dup1\n      0x00\n      mstore\n      keccak256(0x00, 0x40)\n      0x00\n      swap2\n      pop\n      swap1\n      pop\n      dup1\n      0x00\n      add\n      dup1\n      sload\n      tag_21\n      swap1\n      tag_22\n      jump\t// in\n    tag_21:\n      dup1\n      0x1f\n      add\n      0x20\n      dup1\n      swap2\n      div\n      mul\n      0x20\n      add\n      mload(0x40)\n      swap1\n      dup2\n      add\n      0x40\n      mstore\n      dup1\n      swap3\n      swap2\n      swap1\n      dup2\n      dup2\n      mstore\n      0x20\n      add\n      dup3\n      dup1\n      sload\n      tag_23\n      swap1\n      tag_22\n      jump\t// in\n    tag_23:\n      dup1\n      iszero\n      tag_24\n      jumpi\n      dup1\n      0x1f\n      lt\n      tag_25\n      jumpi\n      0x0100\n      dup1\n      dup4\n      sload\n      div\n      mul\n      dup4\n      mstore\n      swap2\n      0x20\n      add\n      swap2\n      jump(tag_24)\n    tag_25:\n      dup3\n      add\n      swap2\n      swap1\n      0x00\n      mstore\n      keccak256(0x00, 0x20)\n      swap1\n    tag_26:\n      dup2\n      sload\n      dup2\n      mstore\n      swap1\n      0x01\n      add\n      swap1\n      0x20\n      add\n      dup1\n      dup4\n      gt\n      tag_26\n      jumpi\n      dup3\n      swap1\n      sub\n      0x1f\n      and\n      dup3\n      add\n      swap2\n    tag_24:\n      pop\n      pop\n      pop\n      pop\n      pop\n      swap1\n      dup1\n      0x01\n      add\n      dup1\n      sload\n      tag_27\n      swap1\n      tag_22\n      jump\t// in\n    tag_27:\n      dup1\n      0x1f\n      add\n      0x20\n      dup1\n      swap2\n      div\n      mul\n      0x20\n      add\n      mload(0x40)\n      swap1\n      dup2\n      add\n      0x40\n      mstore\n      dup1\n      swap3\n      swap2\n      swap1\n      dup2\n      dup2\n      mstore\n      0x20\n      add\n      dup3\n      dup1\n      sload\n      tag_28\n      swap1\n      tag_22\n      jump\t// in\n    tag_28:\n      dup1\n      iszero\n      tag_29\n      jumpi\n      dup1\n      0x1f\n      lt\n      tag_30\n      jumpi\n      0x0100\n      dup1\n      dup4\n      sload\n      div\n      mul\n      dup4\n      mstore\n      swap2\n      0x20\n      add\n      swap2\n      jump(tag_29)\n    tag_30:\n      dup3\n      add\n      swap2\n      swap1\n      0x00\n      mstore\n      keccak256(0x00, 0x20)\n      swap1\n    tag_31:\n      dup2\n      sload\n      dup2\n      mstore\n      swap1\n      0x01\n      add\n      swap1\n      0x20\n      add\n      dup1\n      dup4\n      gt\n      tag_31\n      jumpi\n      dup3\n      swap1\n      sub\n      0x1f\n      and\n      dup3\n      add\n      swap2\n    tag_29:\n      pop\n      pop\n      pop\n      pop\n      pop\n      swap1\n      dup1\n      0x02\n      add\n      sload\n      swap1\n      dup1\n      0x03\n      add\n      0x00\n      swap1\n      sload\n      swap1\n      0x0100\n      exp\n      swap1\n      div\n      0xff\n      and\n      swap1\n      pop\n      dup5\n      jump\t// out\n        /* \"AsistenciaClase.sol\":321:552  function guardarCertificado(string memory nombreE, string memory nombreC, uint codigoE, uint fechaP) public {\r... */\n    tag_15:\n        /* \"AsistenciaClase.sol\":440:464  Alumno memory estudiante */\n      0x00\n        /* \"AsistenciaClase.sol\":467:504  Alumno(nombreE, nombreC, fechaP,true) */\n      mload(0x40)\n      dup1\n      0x80\n      add\n      0x40\n      mstore\n      dup1\n        /* \"AsistenciaClase.sol\":474:481  nombreE */\n      dup7\n        /* \"AsistenciaClase.sol\":467:504  Alumno(nombreE, nombreC, fechaP,true) */\n      dup2\n      mstore\n      0x20\n      add\n        /* \"AsistenciaClase.sol\":483:490  nombreC */\n      dup6\n        /* \"AsistenciaClase.sol\":467:504  Alumno(nombreE, nombreC, fechaP,true) */\n      dup2\n      mstore\n      0x20\n      add\n        /* \"AsistenciaClase.sol\":492:498  fechaP */\n      dup4\n        /* \"AsistenciaClase.sol\":467:504  Alumno(nombreE, nombreC, fechaP,true) */\n      dup2\n      mstore\n      0x20\n      add\n        /* \"AsistenciaClase.sol\":499:503  true */\n      0x01\n        /* \"AsistenciaClase.sol\":467:504  Alumno(nombreE, nombreC, fechaP,true) */\n      iszero\n      iszero\n      dup2\n      mstore\n      pop\n        /* \"AsistenciaClase.sol\":440:504  Alumno memory estudiante = Alumno(nombreE, nombreC, fechaP,true) */\n      swap1\n      pop\n        /* \"AsistenciaClase.sol\":534:544  estudiante */\n      dup1\n        /* \"AsistenciaClase.sol\":515:522  alumnos */\n      0x00\n        /* \"AsistenciaClase.sol\":515:531  alumnos[codigoE] */\n      dup1\n        /* \"AsistenciaClase.sol\":523:530  codigoE */\n      dup6\n        /* \"AsistenciaClase.sol\":515:531  alumnos[codigoE] */\n      dup2\n      mstore\n      0x20\n      add\n      swap1\n      dup2\n      mstore\n      0x20\n      add\n      0x00\n      keccak256\n        /* \"AsistenciaClase.sol\":515:544  alumnos[codigoE] = estudiante */\n      0x00\n      dup3\n      add\n      mload\n      dup2\n      0x00\n      add\n      swap1\n      dup1\n      mload\n      swap1\n      0x20\n      add\n      swap1\n      tag_33\n      swap3\n      swap2\n      swap1\n      tag_34\n      jump\t// in\n    tag_33:\n      pop\n      0x20\n      dup3\n      add\n      mload\n      dup2\n      0x01\n      add\n      swap1\n      dup1\n      mload\n      swap1\n      0x20\n      add\n      swap1\n      tag_35\n      swap3\n      swap2\n      swap1\n      tag_34\n      jump\t// in\n    tag_35:\n      pop\n      0x40\n      dup3\n      add\n      mload\n      dup2\n      0x02\n      add\n      sstore\n      0x60\n      dup3\n      add\n      mload\n      dup2\n      0x03\n      add\n      exp(0x0100, 0x00)\n      dup2\n      sload\n      dup2\n      0xff\n      mul\n      not\n      and\n      swap1\n      dup4\n      iszero\n      iszero\n      mul\n      or\n      swap1\n      sstore\n      pop\n      swap1\n      pop\n      pop\n        /* \"AsistenciaClase.sol\":429:552  {\r... */\n      pop\n        /* \"AsistenciaClase.sol\":321:552  function guardarCertificado(string memory nombreE, string memory nombreC, uint codigoE, uint fechaP) public {\r... */\n      pop\n      pop\n      pop\n      pop\n      jump\t// out\n        /* \"AsistenciaClase.sol\":560:681  function cosultarCertificado(uint codigoE) public  view returns (bool) {\r... */\n    tag_18:\n        /* \"AsistenciaClase.sol\":625:629  bool */\n      0x00\n        /* \"AsistenciaClase.sol\":649:656  alumnos */\n      dup1\n        /* \"AsistenciaClase.sol\":649:665  alumnos[codigoE] */\n      0x00\n        /* \"AsistenciaClase.sol\":657:664  codigoE */\n      dup4\n        /* \"AsistenciaClase.sol\":649:665  alumnos[codigoE] */\n      dup2\n      mstore\n      0x20\n      add\n      swap1\n      dup2\n      mstore\n      0x20\n      add\n      0x00\n      keccak256\n        /* \"AsistenciaClase.sol\":649:673  alumnos[codigoE].asistio */\n      0x03\n      add\n      0x00\n      swap1\n      sload\n      swap1\n      0x0100\n      exp\n      swap1\n      div\n      0xff\n      and\n        /* \"AsistenciaClase.sol\":642:673  return alumnos[codigoE].asistio */\n      swap1\n      pop\n        /* \"AsistenciaClase.sol\":560:681  function cosultarCertificado(uint codigoE) public  view returns (bool) {\r... */\n      swap2\n      swap1\n      pop\n      jump\t// out\n    tag_34:\n      dup3\n      dup1\n      sload\n      tag_37\n      swap1\n      tag_22\n      jump\t// in\n    tag_37:\n      swap1\n      0x00\n      mstore\n      keccak256(0x00, 0x20)\n      swap1\n      0x1f\n      add\n      0x20\n      swap1\n      div\n      dup2\n      add\n      swap3\n      dup3\n      tag_39\n      jumpi\n      0x00\n      dup6\n      sstore\n      jump(tag_38)\n    tag_39:\n      dup3\n      0x1f\n      lt\n      tag_40\n      jumpi\n      dup1\n      mload\n      not(0xff)\n      and\n      dup4\n      dup1\n      add\n      or\n      dup6\n      sstore\n      jump(tag_38)\n    tag_40:\n      dup3\n      dup1\n      add\n      0x01\n      add\n      dup6\n      sstore\n      dup3\n      iszero\n      tag_38\n      jumpi\n      swap2\n      dup3\n      add\n    tag_41:\n      dup3\n      dup2\n      gt\n      iszero\n      tag_42\n      jumpi\n      dup3\n      mload\n      dup3\n      sstore\n      swap2\n      0x20\n      add\n      swap2\n      swap1\n      0x01\n      add\n      swap1\n      jump(tag_41)\n    tag_42:\n    tag_38:\n      pop\n      swap1\n      pop\n      tag_43\n      swap2\n      swap1\n      tag_44\n      jump\t// in\n    tag_43:\n      pop\n      swap1\n      jump\t// out\n    tag_44:\n    tag_45:\n      dup1\n      dup3\n      gt\n      iszero\n      tag_46\n      jumpi\n      0x00\n      dup2\n      0x00\n      swap1\n      sstore\n      pop\n      0x01\n      add\n      jump(tag_45)\n    tag_46:\n      pop\n      swap1\n      jump\t// out\n        /* \"#utility.yul\":7:419   */\n    tag_48:\n        /* \"#utility.yul\":85:90   */\n      0x00\n        /* \"#utility.yul\":110:176   */\n      tag_50\n        /* \"#utility.yul\":126:175   */\n      tag_51\n        /* \"#utility.yul\":168:174   */\n      dup5\n        /* \"#utility.yul\":126:175   */\n      tag_52\n      jump\t// in\n    tag_51:\n        /* \"#utility.yul\":110:176   */\n      tag_53\n      jump\t// in\n    tag_50:\n        /* \"#utility.yul\":101:176   */\n      swap1\n      pop\n        /* \"#utility.yul\":199:205   */\n      dup3\n        /* \"#utility.yul\":192:197   */\n      dup2\n        /* \"#utility.yul\":185:206   */\n      mstore\n        /* \"#utility.yul\":237:241   */\n      0x20\n        /* \"#utility.yul\":230:235   */\n      dup2\n        /* \"#utility.yul\":226:242   */\n      add\n        /* \"#utility.yul\":275:278   */\n      dup5\n        /* \"#utility.yul\":266:272   */\n      dup5\n        /* \"#utility.yul\":261:264   */\n      dup5\n        /* \"#utility.yul\":257:273   */\n      add\n        /* \"#utility.yul\":254:279   */\n      gt\n        /* \"#utility.yul\":251:363   */\n      iszero\n      tag_54\n      jumpi\n        /* \"#utility.yul\":282:361   */\n      tag_55\n      tag_56\n      jump\t// in\n    tag_55:\n        /* \"#utility.yul\":251:363   */\n    tag_54:\n        /* \"#utility.yul\":372:413   */\n      tag_57\n        /* \"#utility.yul\":406:412   */\n      dup5\n        /* \"#utility.yul\":401:404   */\n      dup3\n        /* \"#utility.yul\":396:399   */\n      dup6\n        /* \"#utility.yul\":372:413   */\n      tag_58\n      jump\t// in\n    tag_57:\n        /* \"#utility.yul\":91:419   */\n      pop\n        /* \"#utility.yul\":7:419   */\n      swap4\n      swap3\n      pop\n      pop\n      pop\n      jump\t// out\n        /* \"#utility.yul\":439:779   */\n    tag_59:\n        /* \"#utility.yul\":495:500   */\n      0x00\n        /* \"#utility.yul\":544:547   */\n      dup3\n        /* \"#utility.yul\":537:541   */\n      0x1f\n        /* \"#utility.yul\":529:535   */\n      dup4\n        /* \"#utility.yul\":525:542   */\n      add\n        /* \"#utility.yul\":521:548   */\n      slt\n        /* \"#utility.yul\":511:633   */\n      tag_61\n      jumpi\n        /* \"#utility.yul\":552:631   */\n      tag_62\n      tag_63\n      jump\t// in\n    tag_62:\n        /* \"#utility.yul\":511:633   */\n    tag_61:\n        /* \"#utility.yul\":669:675   */\n      dup2\n        /* \"#utility.yul\":656:676   */\n      calldataload\n        /* \"#utility.yul\":694:773   */\n      tag_64\n        /* \"#utility.yul\":769:772   */\n      dup5\n        /* \"#utility.yul\":761:767   */\n      dup3\n        /* \"#utility.yul\":754:758   */\n      0x20\n        /* \"#utility.yul\":746:752   */\n      dup7\n        /* \"#utility.yul\":742:759   */\n      add\n        /* \"#utility.yul\":694:773   */\n      tag_48\n      jump\t// in\n    tag_64:\n        /* \"#utility.yul\":685:773   */\n      swap2\n      pop\n        /* \"#utility.yul\":501:779   */\n      pop\n        /* \"#utility.yul\":439:779   */\n      swap3\n      swap2\n      pop\n      pop\n      jump\t// out\n        /* \"#utility.yul\":785:924   */\n    tag_65:\n        /* \"#utility.yul\":831:836   */\n      0x00\n        /* \"#utility.yul\":869:875   */\n      dup2\n        /* \"#utility.yul\":856:876   */\n      calldataload\n        /* \"#utility.yul\":847:876   */\n      swap1\n      pop\n        /* \"#utility.yul\":885:918   */\n      tag_67\n        /* \"#utility.yul\":912:917   */\n      dup2\n        /* \"#utility.yul\":885:918   */\n      tag_68\n      jump\t// in\n    tag_67:\n        /* \"#utility.yul\":785:924   */\n      swap3\n      swap2\n      pop\n      pop\n      jump\t// out\n        /* \"#utility.yul\":930:2055   */\n    tag_14:\n        /* \"#utility.yul\":1036:1042   */\n      0x00\n        /* \"#utility.yul\":1044:1050   */\n      dup1\n        /* \"#utility.yul\":1052:1058   */\n      0x00\n        /* \"#utility.yul\":1060:1066   */\n      dup1\n        /* \"#utility.yul\":1109:1112   */\n      0x80\n        /* \"#utility.yul\":1097:1106   */\n      dup6\n        /* \"#utility.yul\":1088:1095   */\n      dup8\n        /* \"#utility.yul\":1084:1107   */\n      sub\n        /* \"#utility.yul\":1080:1113   */\n      slt\n        /* \"#utility.yul\":1077:1197   */\n      iszero\n      tag_70\n      jumpi\n        /* \"#utility.yul\":1116:1195   */\n      tag_71\n      tag_72\n      jump\t// in\n    tag_71:\n        /* \"#utility.yul\":1077:1197   */\n    tag_70:\n        /* \"#utility.yul\":1264:1265   */\n      0x00\n        /* \"#utility.yul\":1253:1262   */\n      dup6\n        /* \"#utility.yul\":1249:1266   */\n      add\n        /* \"#utility.yul\":1236:1267   */\n      calldataload\n        /* \"#utility.yul\":1294:1312   */\n      0xffffffffffffffff\n        /* \"#utility.yul\":1286:1292   */\n      dup2\n        /* \"#utility.yul\":1283:1313   */\n      gt\n        /* \"#utility.yul\":1280:1397   */\n      iszero\n      tag_73\n      jumpi\n        /* \"#utility.yul\":1316:1395   */\n      tag_74\n      tag_75\n      jump\t// in\n    tag_74:\n        /* \"#utility.yul\":1280:1397   */\n    tag_73:\n        /* \"#utility.yul\":1421:1484   */\n      tag_76\n        /* \"#utility.yul\":1476:1483   */\n      dup8\n        /* \"#utility.yul\":1467:1473   */\n      dup3\n        /* \"#utility.yul\":1456:1465   */\n      dup9\n        /* \"#utility.yul\":1452:1474   */\n      add\n        /* \"#utility.yul\":1421:1484   */\n      tag_59\n      jump\t// in\n    tag_76:\n        /* \"#utility.yul\":1411:1484   */\n      swap5\n      pop\n        /* \"#utility.yul\":1207:1494   */\n      pop\n        /* \"#utility.yul\":1561:1563   */\n      0x20\n        /* \"#utility.yul\":1550:1559   */\n      dup6\n        /* \"#utility.yul\":1546:1564   */\n      add\n        /* \"#utility.yul\":1533:1565   */\n      calldataload\n        /* \"#utility.yul\":1592:1610   */\n      0xffffffffffffffff\n        /* \"#utility.yul\":1584:1590   */\n      dup2\n        /* \"#utility.yul\":1581:1611   */\n      gt\n        /* \"#utility.yul\":1578:1695   */\n      iszero\n      tag_77\n      jumpi\n        /* \"#utility.yul\":1614:1693   */\n      tag_78\n      tag_75\n      jump\t// in\n    tag_78:\n        /* \"#utility.yul\":1578:1695   */\n    tag_77:\n        /* \"#utility.yul\":1719:1782   */\n      tag_79\n        /* \"#utility.yul\":1774:1781   */\n      dup8\n        /* \"#utility.yul\":1765:1771   */\n      dup3\n        /* \"#utility.yul\":1754:1763   */\n      dup9\n        /* \"#utility.yul\":1750:1772   */\n      add\n        /* \"#utility.yul\":1719:1782   */\n      tag_59\n      jump\t// in\n    tag_79:\n        /* \"#utility.yul\":1709:1782   */\n      swap4\n      pop\n        /* \"#utility.yul\":1504:1792   */\n      pop\n        /* \"#utility.yul\":1831:1833   */\n      0x40\n        /* \"#utility.yul\":1857:1910   */\n      tag_80\n        /* \"#utility.yul\":1902:1909   */\n      dup8\n        /* \"#utility.yul\":1893:1899   */\n      dup3\n        /* \"#utility.yul\":1882:1891   */\n      dup9\n        /* \"#utility.yul\":1878:1900   */\n      add\n        /* \"#utility.yul\":1857:1910   */\n      tag_65\n      jump\t// in\n    tag_80:\n        /* \"#utility.yul\":1847:1910   */\n      swap3\n      pop\n        /* \"#utility.yul\":1802:1920   */\n      pop\n        /* \"#utility.yul\":1959:1961   */\n      0x60\n        /* \"#utility.yul\":1985:2038   */\n      tag_81\n        /* \"#utility.yul\":2030:2037   */\n      dup8\n        /* \"#utility.yul\":2021:2027   */\n      dup3\n        /* \"#utility.yul\":2010:2019   */\n      dup9\n        /* \"#utility.yul\":2006:2028   */\n      add\n        /* \"#utility.yul\":1985:2038   */\n      tag_65\n      jump\t// in\n    tag_81:\n        /* \"#utility.yul\":1975:2038   */\n      swap2\n      pop\n        /* \"#utility.yul\":1930:2048   */\n      pop\n        /* \"#utility.yul\":930:2055   */\n      swap3\n      swap6\n      swap2\n      swap5\n      pop\n      swap3\n      pop\n      jump\t// out\n        /* \"#utility.yul\":2061:2390   */\n    tag_8:\n        /* \"#utility.yul\":2120:2126   */\n      0x00\n        /* \"#utility.yul\":2169:2171   */\n      0x20\n        /* \"#utility.yul\":2157:2166   */\n      dup3\n        /* \"#utility.yul\":2148:2155   */\n      dup5\n        /* \"#utility.yul\":2144:2167   */\n      sub\n        /* \"#utility.yul\":2140:2172   */\n      slt\n        /* \"#utility.yul\":2137:2256   */\n      iszero\n      tag_83\n      jumpi\n        /* \"#utility.yul\":2175:2254   */\n      tag_84\n      tag_72\n      jump\t// in\n    tag_84:\n        /* \"#utility.yul\":2137:2256   */\n    tag_83:\n        /* \"#utility.yul\":2295:2296   */\n      0x00\n        /* \"#utility.yul\":2320:2373   */\n      tag_85\n        /* \"#utility.yul\":2365:2372   */\n      dup5\n        /* \"#utility.yul\":2356:2362   */\n      dup3\n        /* \"#utility.yul\":2345:2354   */\n      dup6\n        /* \"#utility.yul\":2341:2363   */\n      add\n        /* \"#utility.yul\":2320:2373   */\n      tag_65\n      jump\t// in\n    tag_85:\n        /* \"#utility.yul\":2310:2373   */\n      swap2\n      pop\n        /* \"#utility.yul\":2266:2383   */\n      pop\n        /* \"#utility.yul\":2061:2390   */\n      swap3\n      swap2\n      pop\n      pop\n      jump\t// out\n        /* \"#utility.yul\":2396:2505   */\n    tag_86:\n        /* \"#utility.yul\":2477:2498   */\n      tag_88\n        /* \"#utility.yul\":2492:2497   */\n      dup2\n        /* \"#utility.yul\":2477:2498   */\n      tag_89\n      jump\t// in\n    tag_88:\n        /* \"#utility.yul\":2472:2475   */\n      dup3\n        /* \"#utility.yul\":2465:2499   */\n      mstore\n        /* \"#utility.yul\":2396:2505   */\n      pop\n      pop\n      jump\t// out\n        /* \"#utility.yul\":2511:2875   */\n    tag_90:\n        /* \"#utility.yul\":2599:2602   */\n      0x00\n        /* \"#utility.yul\":2627:2666   */\n      tag_92\n        /* \"#utility.yul\":2660:2665   */\n      dup3\n        /* \"#utility.yul\":2627:2666   */\n      tag_93\n      jump\t// in\n    tag_92:\n        /* \"#utility.yul\":2682:2753   */\n      tag_94\n        /* \"#utility.yul\":2746:2752   */\n      dup2\n        /* \"#utility.yul\":2741:2744   */\n      dup6\n        /* \"#utility.yul\":2682:2753   */\n      tag_95\n      jump\t// in\n    tag_94:\n        /* \"#utility.yul\":2675:2753   */\n      swap4\n      pop\n        /* \"#utility.yul\":2762:2814   */\n      tag_96\n        /* \"#utility.yul\":2807:2813   */\n      dup2\n        /* \"#utility.yul\":2802:2805   */\n      dup6\n        /* \"#utility.yul\":2795:2799   */\n      0x20\n        /* \"#utility.yul\":2788:2793   */\n      dup7\n        /* \"#utility.yul\":2784:2800   */\n      add\n        /* \"#utility.yul\":2762:2814   */\n      tag_97\n      jump\t// in\n    tag_96:\n        /* \"#utility.yul\":2839:2868   */\n      tag_98\n        /* \"#utility.yul\":2861:2867   */\n      dup2\n        /* \"#utility.yul\":2839:2868   */\n      tag_99\n      jump\t// in\n    tag_98:\n        /* \"#utility.yul\":2834:2837   */\n      dup5\n        /* \"#utility.yul\":2830:2869   */\n      add\n        /* \"#utility.yul\":2823:2869   */\n      swap2\n      pop\n        /* \"#utility.yul\":2603:2875   */\n      pop\n        /* \"#utility.yul\":2511:2875   */\n      swap3\n      swap2\n      pop\n      pop\n      jump\t// out\n        /* \"#utility.yul\":2881:2999   */\n    tag_100:\n        /* \"#utility.yul\":2968:2992   */\n      tag_102\n        /* \"#utility.yul\":2986:2991   */\n      dup2\n        /* \"#utility.yul\":2968:2992   */\n      tag_103\n      jump\t// in\n    tag_102:\n        /* \"#utility.yul\":2963:2966   */\n      dup3\n        /* \"#utility.yul\":2956:2993   */\n      mstore\n        /* \"#utility.yul\":2881:2999   */\n      pop\n      pop\n      jump\t// out\n        /* \"#utility.yul\":3005:3215   */\n    tag_20:\n        /* \"#utility.yul\":3092:3096   */\n      0x00\n        /* \"#utility.yul\":3130:3132   */\n      0x20\n        /* \"#utility.yul\":3119:3128   */\n      dup3\n        /* \"#utility.yul\":3115:3133   */\n      add\n        /* \"#utility.yul\":3107:3133   */\n      swap1\n      pop\n        /* \"#utility.yul\":3143:3208   */\n      tag_105\n        /* \"#utility.yul\":3205:3206   */\n      0x00\n        /* \"#utility.yul\":3194:3203   */\n      dup4\n        /* \"#utility.yul\":3190:3207   */\n      add\n        /* \"#utility.yul\":3181:3187   */\n      dup5\n        /* \"#utility.yul\":3143:3208   */\n      tag_86\n      jump\t// in\n    tag_105:\n        /* \"#utility.yul\":3005:3215   */\n      swap3\n      swap2\n      pop\n      pop\n      jump\t// out\n        /* \"#utility.yul\":3221:3944   */\n    tag_11:\n        /* \"#utility.yul\":3432:3436   */\n      0x00\n        /* \"#utility.yul\":3470:3473   */\n      0x80\n        /* \"#utility.yul\":3459:3468   */\n      dup3\n        /* \"#utility.yul\":3455:3474   */\n      add\n        /* \"#utility.yul\":3447:3474   */\n      swap1\n      pop\n        /* \"#utility.yul\":3520:3529   */\n      dup2\n        /* \"#utility.yul\":3514:3518   */\n      dup2\n        /* \"#utility.yul\":3510:3530   */\n      sub\n        /* \"#utility.yul\":3506:3507   */\n      0x00\n        /* \"#utility.yul\":3495:3504   */\n      dup4\n        /* \"#utility.yul\":3491:3508   */\n      add\n        /* \"#utility.yul\":3484:3531   */\n      mstore\n        /* \"#utility.yul\":3548:3626   */\n      tag_107\n        /* \"#utility.yul\":3621:3625   */\n      dup2\n        /* \"#utility.yul\":3612:3618   */\n      dup8\n        /* \"#utility.yul\":3548:3626   */\n      tag_90\n      jump\t// in\n    tag_107:\n        /* \"#utility.yul\":3540:3626   */\n      swap1\n      pop\n        /* \"#utility.yul\":3673:3682   */\n      dup2\n        /* \"#utility.yul\":3667:3671   */\n      dup2\n        /* \"#utility.yul\":3663:3683   */\n      sub\n        /* \"#utility.yul\":3658:3660   */\n      0x20\n        /* \"#utility.yul\":3647:3656   */\n      dup4\n        /* \"#utility.yul\":3643:3661   */\n      add\n        /* \"#utility.yul\":3636:3684   */\n      mstore\n        /* \"#utility.yul\":3701:3779   */\n      tag_108\n        /* \"#utility.yul\":3774:3778   */\n      dup2\n        /* \"#utility.yul\":3765:3771   */\n      dup7\n        /* \"#utility.yul\":3701:3779   */\n      tag_90\n      jump\t// in\n    tag_108:\n        /* \"#utility.yul\":3693:3779   */\n      swap1\n      pop\n        /* \"#utility.yul\":3789:3861   */\n      tag_109\n        /* \"#utility.yul\":3857:3859   */\n      0x40\n        /* \"#utility.yul\":3846:3855   */\n      dup4\n        /* \"#utility.yul\":3842:3860   */\n      add\n        /* \"#utility.yul\":3833:3839   */\n      dup6\n        /* \"#utility.yul\":3789:3861   */\n      tag_100\n      jump\t// in\n    tag_109:\n        /* \"#utility.yul\":3871:3937   */\n      tag_110\n        /* \"#utility.yul\":3933:3935   */\n      0x60\n        /* \"#utility.yul\":3922:3931   */\n      dup4\n        /* \"#utility.yul\":3918:3936   */\n      add\n        /* \"#utility.yul\":3909:3915   */\n      dup5\n        /* \"#utility.yul\":3871:3937   */\n      tag_86\n      jump\t// in\n    tag_110:\n        /* \"#utility.yul\":3221:3944   */\n      swap6\n      swap5\n      pop\n      pop\n      pop\n      pop\n      pop\n      jump\t// out\n        /* \"#utility.yul\":3950:4079   */\n    tag_53:\n        /* \"#utility.yul\":3984:3990   */\n      0x00\n        /* \"#utility.yul\":4011:4031   */\n      tag_112\n      tag_113\n      jump\t// in\n    tag_112:\n        /* \"#utility.yul\":4001:4031   */\n      swap1\n      pop\n        /* \"#utility.yul\":4040:4073   */\n      tag_114\n        /* \"#utility.yul\":4068:4072   */\n      dup3\n        /* \"#utility.yul\":4060:4066   */\n      dup3\n        /* \"#utility.yul\":4040:4073   */\n      tag_115\n      jump\t// in\n    tag_114:\n        /* \"#utility.yul\":3950:4079   */\n      swap2\n      swap1\n      pop\n      jump\t// out\n        /* \"#utility.yul\":4085:4160   */\n    tag_113:\n        /* \"#utility.yul\":4118:4124   */\n      0x00\n        /* \"#utility.yul\":4151:4153   */\n      0x40\n        /* \"#utility.yul\":4145:4154   */\n      mload\n        /* \"#utility.yul\":4135:4154   */\n      swap1\n      pop\n        /* \"#utility.yul\":4085:4160   */\n      swap1\n      jump\t// out\n        /* \"#utility.yul\":4166:4474   */\n    tag_52:\n        /* \"#utility.yul\":4228:4232   */\n      0x00\n        /* \"#utility.yul\":4318:4336   */\n      0xffffffffffffffff\n        /* \"#utility.yul\":4310:4316   */\n      dup3\n        /* \"#utility.yul\":4307:4337   */\n      gt\n        /* \"#utility.yul\":4304:4360   */\n      iszero\n      tag_118\n      jumpi\n        /* \"#utility.yul\":4340:4358   */\n      tag_119\n      tag_120\n      jump\t// in\n    tag_119:\n        /* \"#utility.yul\":4304:4360   */\n    tag_118:\n        /* \"#utility.yul\":4378:4407   */\n      tag_121\n        /* \"#utility.yul\":4400:4406   */\n      dup3\n        /* \"#utility.yul\":4378:4407   */\n      tag_99\n      jump\t// in\n    tag_121:\n        /* \"#utility.yul\":4370:4407   */\n      swap1\n      pop\n        /* \"#utility.yul\":4462:4466   */\n      0x20\n        /* \"#utility.yul\":4456:4460   */\n      dup2\n        /* \"#utility.yul\":4452:4467   */\n      add\n        /* \"#utility.yul\":4444:4467   */\n      swap1\n      pop\n        /* \"#utility.yul\":4166:4474   */\n      swap2\n      swap1\n      pop\n      jump\t// out\n        /* \"#utility.yul\":4480:4579   */\n    tag_93:\n        /* \"#utility.yul\":4532:4538   */\n      0x00\n        /* \"#utility.yul\":4566:4571   */\n      dup2\n        /* \"#utility.yul\":4560:4572   */\n      mload\n        /* \"#utility.yul\":4550:4572   */\n      swap1\n      pop\n        /* \"#utility.yul\":4480:4579   */\n      swap2\n      swap1\n      pop\n      jump\t// out\n        /* \"#utility.yul\":4585:4754   */\n    tag_95:\n        /* \"#utility.yul\":4669:4680   */\n      0x00\n        /* \"#utility.yul\":4703:4709   */\n      dup3\n        /* \"#utility.yul\":4698:4701   */\n      dup3\n        /* \"#utility.yul\":4691:4710   */\n      mstore\n        /* \"#utility.yul\":4743:4747   */\n      0x20\n        /* \"#utility.yul\":4738:4741   */\n      dup3\n        /* \"#utility.yul\":4734:4748   */\n      add\n        /* \"#utility.yul\":4719:4748   */\n      swap1\n      pop\n        /* \"#utility.yul\":4585:4754   */\n      swap3\n      swap2\n      pop\n      pop\n      jump\t// out\n        /* \"#utility.yul\":4760:4850   */\n    tag_89:\n        /* \"#utility.yul\":4794:4801   */\n      0x00\n        /* \"#utility.yul\":4837:4842   */\n      dup2\n        /* \"#utility.yul\":4830:4843   */\n      iszero\n        /* \"#utility.yul\":4823:4844   */\n      iszero\n        /* \"#utility.yul\":4812:4844   */\n      swap1\n      pop\n        /* \"#utility.yul\":4760:4850   */\n      swap2\n      swap1\n      pop\n      jump\t// out\n        /* \"#utility.yul\":4856:4933   */\n    tag_103:\n        /* \"#utility.yul\":4893:4900   */\n      0x00\n        /* \"#utility.yul\":4922:4927   */\n      dup2\n        /* \"#utility.yul\":4911:4927   */\n      swap1\n      pop\n        /* \"#utility.yul\":4856:4933   */\n      swap2\n      swap1\n      pop\n      jump\t// out\n        /* \"#utility.yul\":4939:5093   */\n    tag_58:\n        /* \"#utility.yul\":5023:5029   */\n      dup3\n        /* \"#utility.yul\":5018:5021   */\n      dup2\n        /* \"#utility.yul\":5013:5016   */\n      dup4\n        /* \"#utility.yul\":5000:5030   */\n      calldatacopy\n        /* \"#utility.yul\":5085:5086   */\n      0x00\n        /* \"#utility.yul\":5076:5082   */\n      dup4\n        /* \"#utility.yul\":5071:5074   */\n      dup4\n        /* \"#utility.yul\":5067:5083   */\n      add\n        /* \"#utility.yul\":5060:5087   */\n      mstore\n        /* \"#utility.yul\":4939:5093   */\n      pop\n      pop\n      pop\n      jump\t// out\n        /* \"#utility.yul\":5099:5406   */\n    tag_97:\n        /* \"#utility.yul\":5167:5168   */\n      0x00\n        /* \"#utility.yul\":5177:5290   */\n    tag_128:\n        /* \"#utility.yul\":5191:5197   */\n      dup4\n        /* \"#utility.yul\":5188:5189   */\n      dup2\n        /* \"#utility.yul\":5185:5198   */\n      lt\n        /* \"#utility.yul\":5177:5290   */\n      iszero\n      tag_130\n      jumpi\n        /* \"#utility.yul\":5276:5277   */\n      dup1\n        /* \"#utility.yul\":5271:5274   */\n      dup3\n        /* \"#utility.yul\":5267:5278   */\n      add\n        /* \"#utility.yul\":5261:5279   */\n      mload\n        /* \"#utility.yul\":5257:5258   */\n      dup2\n        /* \"#utility.yul\":5252:5255   */\n      dup5\n        /* \"#utility.yul\":5248:5259   */\n      add\n        /* \"#utility.yul\":5241:5280   */\n      mstore\n        /* \"#utility.yul\":5213:5215   */\n      0x20\n        /* \"#utility.yul\":5210:5211   */\n      dup2\n        /* \"#utility.yul\":5206:5216   */\n      add\n        /* \"#utility.yul\":5201:5216   */\n      swap1\n      pop\n        /* \"#utility.yul\":5177:5290   */\n      jump(tag_128)\n    tag_130:\n        /* \"#utility.yul\":5308:5314   */\n      dup4\n        /* \"#utility.yul\":5305:5306   */\n      dup2\n        /* \"#utility.yul\":5302:5315   */\n      gt\n        /* \"#utility.yul\":5299:5400   */\n      iszero\n      tag_131\n      jumpi\n        /* \"#utility.yul\":5388:5389   */\n      0x00\n        /* \"#utility.yul\":5379:5385   */\n      dup5\n        /* \"#utility.yul\":5374:5377   */\n      dup5\n        /* \"#utility.yul\":5370:5386   */\n      add\n        /* \"#utility.yul\":5363:5390   */\n      mstore\n        /* \"#utility.yul\":5299:5400   */\n    tag_131:\n        /* \"#utility.yul\":5148:5406   */\n      pop\n        /* \"#utility.yul\":5099:5406   */\n      pop\n      pop\n      pop\n      jump\t// out\n        /* \"#utility.yul\":5412:5732   */\n    tag_22:\n        /* \"#utility.yul\":5456:5462   */\n      0x00\n        /* \"#utility.yul\":5493:5494   */\n      0x02\n        /* \"#utility.yul\":5487:5491   */\n      dup3\n        /* \"#utility.yul\":5483:5495   */\n      div\n        /* \"#utility.yul\":5473:5495   */\n      swap1\n      pop\n        /* \"#utility.yul\":5540:5541   */\n      0x01\n        /* \"#utility.yul\":5534:5538   */\n      dup3\n        /* \"#utility.yul\":5530:5542   */\n      and\n        /* \"#utility.yul\":5561:5579   */\n      dup1\n        /* \"#utility.yul\":5551:5632   */\n      tag_133\n      jumpi\n        /* \"#utility.yul\":5617:5621   */\n      0x7f\n        /* \"#utility.yul\":5609:5615   */\n      dup3\n        /* \"#utility.yul\":5605:5622   */\n      and\n        /* \"#utility.yul\":5595:5622   */\n      swap2\n      pop\n        /* \"#utility.yul\":5551:5632   */\n    tag_133:\n        /* \"#utility.yul\":5679:5681   */\n      0x20\n        /* \"#utility.yul\":5671:5677   */\n      dup3\n        /* \"#utility.yul\":5668:5682   */\n      lt\n        /* \"#utility.yul\":5648:5666   */\n      dup2\n        /* \"#utility.yul\":5645:5683   */\n      eq\n        /* \"#utility.yul\":5642:5726   */\n      iszero\n      tag_134\n      jumpi\n        /* \"#utility.yul\":5698:5716   */\n      tag_135\n      tag_136\n      jump\t// in\n    tag_135:\n        /* \"#utility.yul\":5642:5726   */\n    tag_134:\n        /* \"#utility.yul\":5463:5732   */\n      pop\n        /* \"#utility.yul\":5412:5732   */\n      swap2\n      swap1\n      pop\n      jump\t// out\n        /* \"#utility.yul\":5738:6019   */\n    tag_115:\n        /* \"#utility.yul\":5821:5848   */\n      tag_138\n        /* \"#utility.yul\":5843:5847   */\n      dup3\n        /* \"#utility.yul\":5821:5848   */\n      tag_99\n      jump\t// in\n    tag_138:\n        /* \"#utility.yul\":5813:5819   */\n      dup2\n        /* \"#utility.yul\":5809:5849   */\n      add\n        /* \"#utility.yul\":5951:5957   */\n      dup2\n        /* \"#utility.yul\":5939:5949   */\n      dup2\n        /* \"#utility.yul\":5936:5958   */\n      lt\n        /* \"#utility.yul\":5915:5933   */\n      0xffffffffffffffff\n        /* \"#utility.yul\":5903:5913   */\n      dup3\n        /* \"#utility.yul\":5900:5934   */\n      gt\n        /* \"#utility.yul\":5897:5959   */\n      or\n        /* \"#utility.yul\":5894:5982   */\n      iszero\n      tag_139\n      jumpi\n        /* \"#utility.yul\":5962:5980   */\n      tag_140\n      tag_120\n      jump\t// in\n    tag_140:\n        /* \"#utility.yul\":5894:5982   */\n    tag_139:\n        /* \"#utility.yul\":6002:6012   */\n      dup1\n        /* \"#utility.yul\":5998:6000   */\n      0x40\n        /* \"#utility.yul\":5991:6013   */\n      mstore\n        /* \"#utility.yul\":5781:6019   */\n      pop\n        /* \"#utility.yul\":5738:6019   */\n      pop\n      pop\n      jump\t// out\n        /* \"#utility.yul\":6025:6205   */\n    tag_136:\n        /* \"#utility.yul\":6073:6150   */\n      0x4e487b7100000000000000000000000000000000000000000000000000000000\n        /* \"#utility.yul\":6070:6071   */\n      0x00\n        /* \"#utility.yul\":6063:6151   */\n      mstore\n        /* \"#utility.yul\":6170:6174   */\n      0x22\n        /* \"#utility.yul\":6167:6168   */\n      0x04\n        /* \"#utility.yul\":6160:6175   */\n      mstore\n        /* \"#utility.yul\":6194:6198   */\n      0x24\n        /* \"#utility.yul\":6191:6192   */\n      0x00\n        /* \"#utility.yul\":6184:6199   */\n      revert\n        /* \"#utility.yul\":6211:6391   */\n    tag_120:\n        /* \"#utility.yul\":6259:6336   */\n      0x4e487b7100000000000000000000000000000000000000000000000000000000\n        /* \"#utility.yul\":6256:6257   */\n      0x00\n        /* \"#utility.yul\":6249:6337   */\n      mstore\n        /* \"#utility.yul\":6356:6360   */\n      0x41\n        /* \"#utility.yul\":6353:6354   */\n      0x04\n        /* \"#utility.yul\":6346:6361   */\n      mstore\n        /* \"#utility.yul\":6380:6384   */\n      0x24\n        /* \"#utility.yul\":6377:6378   */\n      0x00\n        /* \"#utility.yul\":6370:6385   */\n      revert\n        /* \"#utility.yul\":6397:6514   */\n    tag_63:\n        /* \"#utility.yul\":6506:6507   */\n      0x00\n        /* \"#utility.yul\":6503:6504   */\n      dup1\n        /* \"#utility.yul\":6496:6508   */\n      revert\n        /* \"#utility.yul\":6520:6637   */\n    tag_56:\n        /* \"#utility.yul\":6629:6630   */\n      0x00\n        /* \"#utility.yul\":6626:6627   */\n      dup1\n        /* \"#utility.yul\":6619:6631   */\n      revert\n        /* \"#utility.yul\":6643:6760   */\n    tag_75:\n        /* \"#utility.yul\":6752:6753   */\n      0x00\n        /* \"#utility.yul\":6749:6750   */\n      dup1\n        /* \"#utility.yul\":6742:6754   */\n      revert\n        /* \"#utility.yul\":6766:6883   */\n    tag_72:\n        /* \"#utility.yul\":6875:6876   */\n      0x00\n        /* \"#utility.yul\":6872:6873   */\n      dup1\n        /* \"#utility.yul\":6865:6877   */\n      revert\n        /* \"#utility.yul\":6889:6991   */\n    tag_99:\n        /* \"#utility.yul\":6930:6936   */\n      0x00\n        /* \"#utility.yul\":6981:6983   */\n      0x1f\n        /* \"#utility.yul\":6977:6984   */\n      not\n        /* \"#utility.yul\":6972:6974   */\n      0x1f\n        /* \"#utility.yul\":6965:6970   */\n      dup4\n        /* \"#utility.yul\":6961:6975   */\n      add\n        /* \"#utility.yul\":6957:6985   */\n      and\n        /* \"#utility.yul\":6947:6985   */\n      swap1\n      pop\n        /* \"#utility.yul\":6889:6991   */\n      swap2\n      swap1\n      pop\n      jump\t// out\n        /* \"#utility.yul\":6997:7119   */\n    tag_68:\n        /* \"#utility.yul\":7070:7094   */\n      tag_149\n        /* \"#utility.yul\":7088:7093   */\n      dup2\n        /* \"#utility.yul\":7070:7094   */\n      tag_103\n      jump\t// in\n    tag_149:\n        /* \"#utility.yul\":7063:7068   */\n      dup2\n        /* \"#utility.yul\":7060:7095   */\n      eq\n        /* \"#utility.yul\":7050:7113   */\n      tag_150\n      jumpi\n        /* \"#utility.yul\":7109:7110   */\n      0x00\n        /* \"#utility.yul\":7106:7107   */\n      dup1\n        /* \"#utility.yul\":7099:7111   */\n      revert\n        /* \"#utility.yul\":7050:7113   */\n    tag_150:\n        /* \"#utility.yul\":6997:7119   */\n      pop\n      jump\t// out\n\n    auxdata: 0xa26469706673582212209a26a233b04d87aeefca44ad0aed89f062c2350f488d806800d497ec81c1764d64736f6c63430008070033\n}\n",
				"bytecode": {
					"linkReferences": {},
					"object": "608060405234801561001057600080fd5b5061079d806100206000396000f3fe608060405234801561001057600080fd5b50600436106100415760003560e01c806369ddcade14610046578063792c3b1114610079578063eb620cb214610095575b600080fd5b610060600480360381019061005b91906104ae565b6100c5565b604051610070949392919061054d565b60405180910390f35b610093600480360381019061008e919061040f565b610212565b005b6100af60048036038101906100aa91906104ae565b6102bb565b6040516100bc9190610532565b60405180910390f35b60006020528060005260406000206000915090508060000180546100e89061066a565b80601f01602080910402602001604051908101604052809291908181526020018280546101149061066a565b80156101615780601f1061013657610100808354040283529160200191610161565b820191906000526020600020905b81548152906001019060200180831161014457829003601f168201915b5050505050908060010180546101769061066a565b80601f01602080910402602001604051908101604052809291908181526020018280546101a29061066a565b80156101ef5780601f106101c4576101008083540402835291602001916101ef565b820191906000526020600020905b8154815290600101906020018083116101d257829003601f168201915b5050505050908060020154908060030160009054906101000a900460ff16905084565b600060405180608001604052808681526020018581526020018381526020016001151581525090508060008085815260200190815260200160002060008201518160000190805190602001906102699291906102e7565b5060208201518160010190805190602001906102869291906102e7565b506040820151816002015560608201518160030160006101000a81548160ff0219169083151502179055509050505050505050565b600080600083815260200190815260200160002060030160009054906101000a900460ff169050919050565b8280546102f39061066a565b90600052602060002090601f016020900481019282610315576000855561035c565b82601f1061032e57805160ff191683800117855561035c565b8280016001018555821561035c579182015b8281111561035b578251825591602001919060010190610340565b5b509050610369919061036d565b5090565b5b8082111561038657600081600090555060010161036e565b5090565b600061039d610398846105c5565b6105a0565b9050828152602081018484840111156103b9576103b8610730565b5b6103c4848285610628565b509392505050565b600082601f8301126103e1576103e061072b565b5b81356103f184826020860161038a565b91505092915050565b60008135905061040981610750565b92915050565b600080600080608085870312156104295761042861073a565b5b600085013567ffffffffffffffff81111561044757610446610735565b5b610453878288016103cc565b945050602085013567ffffffffffffffff81111561047457610473610735565b5b610480878288016103cc565b9350506040610491878288016103fa565b92505060606104a2878288016103fa565b91505092959194509250565b6000602082840312156104c4576104c361073a565b5b60006104d2848285016103fa565b91505092915050565b6104e481610612565b82525050565b60006104f5826105f6565b6104ff8185610601565b935061050f818560208601610637565b6105188161073f565b840191505092915050565b61052c8161061e565b82525050565b600060208201905061054760008301846104db565b92915050565b6000608082019050818103600083015261056781876104ea565b9050818103602083015261057b81866104ea565b905061058a6040830185610523565b61059760608301846104db565b95945050505050565b60006105aa6105bb565b90506105b6828261069c565b919050565b6000604051905090565b600067ffffffffffffffff8211156105e0576105df6106fc565b5b6105e98261073f565b9050602081019050919050565b600081519050919050565b600082825260208201905092915050565b60008115159050919050565b6000819050919050565b82818337600083830152505050565b60005b8381101561065557808201518184015260208101905061063a565b83811115610664576000848401525b50505050565b6000600282049050600182168061068257607f821691505b60208210811415610696576106956106cd565b5b50919050565b6106a58261073f565b810181811067ffffffffffffffff821117156106c4576106c36106fc565b5b80604052505050565b7f4e487b7100000000000000000000000000000000000000000000000000000000600052602260045260246000fd5b7f4e487b7100000000000000000000000000000000000000000000000000000000600052604160045260246000fd5b600080fd5b600080fd5b600080fd5b600080fd5b6000601f19601f8301169050919050565b6107598161061e565b811461076457600080fd5b5056fea26469706673582212209a26a233b04d87aeefca44ad0aed89f062c2350f488d806800d497ec81c1764d64736f6c63430008070033",
					"opcodes": "PUSH1 0x80 PUSH1 0x40 MSTORE CALLVALUE DUP1 ISZERO PUSH2 0x10 JUMPI PUSH1 0x0 DUP1 REVERT JUMPDEST POP PUSH2 0x79D DUP1 PUSH2 0x20 PUSH1 0x0 CODECOPY PUSH1 0x0 RETURN INVALID PUSH1 0x80 PUSH1 0x40 MSTORE CALLVALUE DUP1 ISZERO PUSH2 0x10 JUMPI PUSH1 0x0 DUP1 REVERT JUMPDEST POP PUSH1 0x4 CALLDATASIZE LT PUSH2 0x41 JUMPI PUSH1 0x0 CALLDATALOAD PUSH1 0xE0 SHR DUP1 PUSH4 0x69DDCADE EQ PUSH2 0x46 JUMPI DUP1 PUSH4 0x792C3B11 EQ PUSH2 0x79 JUMPI DUP1 PUSH4 0xEB620CB2 EQ PUSH2 0x95 JUMPI JUMPDEST PUSH1 0x0 DUP1 REVERT JUMPDEST PUSH2 0x60 PUSH1 0x4 DUP1 CALLDATASIZE SUB DUP2 ADD SWAP1 PUSH2 0x5B SWAP2 SWAP1 PUSH2 0x4AE JUMP JUMPDEST PUSH2 0xC5 JUMP JUMPDEST PUSH1 0x40 MLOAD PUSH2 0x70 SWAP5 SWAP4 SWAP3 SWAP2 SWAP1 PUSH2 0x54D JUMP JUMPDEST PUSH1 0x40 MLOAD DUP1 SWAP2 SUB SWAP1 RETURN JUMPDEST PUSH2 0x93 PUSH1 0x4 DUP1 CALLDATASIZE SUB DUP2 ADD SWAP1 PUSH2 0x8E SWAP2 SWAP1 PUSH2 0x40F JUMP JUMPDEST PUSH2 0x212 JUMP JUMPDEST STOP JUMPDEST PUSH2 0xAF PUSH1 0x4 DUP1 CALLDATASIZE SUB DUP2 ADD SWAP1 PUSH2 0xAA SWAP2 SWAP1 PUSH2 0x4AE JUMP JUMPDEST PUSH2 0x2BB JUMP JUMPDEST PUSH1 0x40 MLOAD PUSH2 0xBC SWAP2 SWAP1 PUSH2 0x532 JUMP JUMPDEST PUSH1 0x40 MLOAD DUP1 SWAP2 SUB SWAP1 RETURN JUMPDEST PUSH1 0x0 PUSH1 0x20 MSTORE DUP1 PUSH1 0x0 MSTORE PUSH1 0x40 PUSH1 0x0 KECCAK256 PUSH1 0x0 SWAP2 POP SWAP1 POP DUP1 PUSH1 0x0 ADD DUP1 SLOAD PUSH2 0xE8 SWAP1 PUSH2 0x66A JUMP JUMPDEST DUP1 PUSH1 0x1F ADD PUSH1 0x20 DUP1 SWAP2 DIV MUL PUSH1 0x20 ADD PUSH1 0x40 MLOAD SWAP1 DUP2 ADD PUSH1 0x40 MSTORE DUP1 SWAP3 SWAP2 SWAP1 DUP2 DUP2 MSTORE PUSH1 0x20 ADD DUP3 DUP1 SLOAD PUSH2 0x114 SWAP1 PUSH2 0x66A JUMP JUMPDEST DUP1 ISZERO PUSH2 0x161 JUMPI DUP1 PUSH1 0x1F LT PUSH2 0x136 JUMPI PUSH2 0x100 DUP1 DUP4 SLOAD DIV MUL DUP4 MSTORE SWAP2 PUSH1 0x20 ADD SWAP2 PUSH2 0x161 JUMP JUMPDEST DUP3 ADD SWAP2 SWAP1 PUSH1 0x0 MSTORE PUSH1 0x20 PUSH1 0x0 KECCAK256 SWAP1 JUMPDEST DUP2 SLOAD DUP2 MSTORE SWAP1 PUSH1 0x1 ADD SWAP1 PUSH1 0x20 ADD DUP1 DUP4 GT PUSH2 0x144 JUMPI DUP3 SWAP1 SUB PUSH1 0x1F AND DUP3 ADD SWAP2 JUMPDEST POP POP POP POP POP SWAP1 DUP1 PUSH1 0x1 ADD DUP1 SLOAD PUSH2 0x176 SWAP1 PUSH2 0x66A JUMP JUMPDEST DUP1 PUSH1 0x1F ADD PUSH1 0x20 DUP1 SWAP2 DIV MUL PUSH1 0x20 ADD PUSH1 0x40 MLOAD SWAP1 DUP2 ADD PUSH1 0x40 MSTORE DUP1 SWAP3 SWAP2 SWAP1 DUP2 DUP2 MSTORE PUSH1 0x20 ADD DUP3 DUP1 SLOAD PUSH2 0x1A2 SWAP1 PUSH2 0x66A JUMP JUMPDEST DUP1 ISZERO PUSH2 0x1EF JUMPI DUP1 PUSH1 0x1F LT PUSH2 0x1C4 JUMPI PUSH2 0x100 DUP1 DUP4 SLOAD DIV MUL DUP4 MSTORE SWAP2 PUSH1 0x20 ADD SWAP2 PUSH2 0x1EF JUMP JUMPDEST DUP3 ADD SWAP2 SWAP1 PUSH1 0x0 MSTORE PUSH1 0x20 PUSH1 0x0 KECCAK256 SWAP1 JUMPDEST DUP2 SLOAD DUP2 MSTORE SWAP1 PUSH1 0x1 ADD SWAP1 PUSH1 0x20 ADD DUP1 DUP4 GT PUSH2 0x1D2 JUMPI DUP3 SWAP1 SUB PUSH1 0x1F AND DUP3 ADD SWAP2 JUMPDEST POP POP POP POP POP SWAP1 DUP1 PUSH1 0x2 ADD SLOAD SWAP1 DUP1 PUSH1 0x3 ADD PUSH1 0x0 SWAP1 SLOAD SWAP1 PUSH2 0x100 EXP SWAP1 DIV PUSH1 0xFF AND SWAP1 POP DUP5 JUMP JUMPDEST PUSH1 0x0 PUSH1 0x40 MLOAD DUP1 PUSH1 0x80 ADD PUSH1 0x40 MSTORE DUP1 DUP7 DUP2 MSTORE PUSH1 0x20 ADD DUP6 DUP2 MSTORE PUSH1 0x20 ADD DUP4 DUP2 MSTORE PUSH1 0x20 ADD PUSH1 0x1 ISZERO ISZERO DUP2 MSTORE POP SWAP1 POP DUP1 PUSH1 0x0 DUP1 DUP6 DUP2 MSTORE PUSH1 0x20 ADD SWAP1 DUP2 MSTORE PUSH1 0x20 ADD PUSH1 0x0 KECCAK256 PUSH1 0x0 DUP3 ADD MLOAD DUP2 PUSH1 0x0 ADD SWAP1 DUP1 MLOAD SWAP1 PUSH1 0x20 ADD SWAP1 PUSH2 0x269 SWAP3 SWAP2 SWAP1 PUSH2 0x2E7 JUMP JUMPDEST POP PUSH1 0x20 DUP3 ADD MLOAD DUP2 PUSH1 0x1 ADD SWAP1 DUP1 MLOAD SWAP1 PUSH1 0x20 ADD SWAP1 PUSH2 0x286 SWAP3 SWAP2 SWAP1 PUSH2 0x2E7 JUMP JUMPDEST POP PUSH1 0x40 DUP3 ADD MLOAD DUP2 PUSH1 0x2 ADD SSTORE PUSH1 0x60 DUP3 ADD MLOAD DUP2 PUSH1 0x3 ADD PUSH1 0x0 PUSH2 0x100 EXP DUP2 SLOAD DUP2 PUSH1 0xFF MUL NOT AND SWAP1 DUP4 ISZERO ISZERO MUL OR SWAP1 SSTORE POP SWAP1 POP POP POP POP POP POP POP JUMP JUMPDEST PUSH1 0x0 DUP1 PUSH1 0x0 DUP4 DUP2 MSTORE PUSH1 0x20 ADD SWAP1 DUP2 MSTORE PUSH1 0x20 ADD PUSH1 0x0 KECCAK256 PUSH1 0x3 ADD PUSH1 0x0 SWAP1 SLOAD SWAP1 PUSH2 0x100 EXP SWAP1 DIV PUSH1 0xFF AND SWAP1 POP SWAP2 SWAP1 POP JUMP JUMPDEST DUP3 DUP1 SLOAD PUSH2 0x2F3 SWAP1 PUSH2 0x66A JUMP JUMPDEST SWAP1 PUSH1 0x0 MSTORE PUSH1 0x20 PUSH1 0x0 KECCAK256 SWAP1 PUSH1 0x1F ADD PUSH1 0x20 SWAP1 DIV DUP2 ADD SWAP3 DUP3 PUSH2 0x315 JUMPI PUSH1 0x0 DUP6 SSTORE PUSH2 0x35C JUMP JUMPDEST DUP3 PUSH1 0x1F LT PUSH2 0x32E JUMPI DUP1 MLOAD PUSH1 0xFF NOT AND DUP4 DUP1 ADD OR DUP6 SSTORE PUSH2 0x35C JUMP JUMPDEST DUP3 DUP1 ADD PUSH1 0x1 ADD DUP6 SSTORE DUP3 ISZERO PUSH2 0x35C JUMPI SWAP2 DUP3 ADD JUMPDEST DUP3 DUP2 GT ISZERO PUSH2 0x35B JUMPI DUP3 MLOAD DUP3 SSTORE SWAP2 PUSH1 0x20 ADD SWAP2 SWAP1 PUSH1 0x1 ADD SWAP1 PUSH2 0x340 JUMP JUMPDEST JUMPDEST POP SWAP1 POP PUSH2 0x369 SWAP2 SWAP1 PUSH2 0x36D JUMP JUMPDEST POP SWAP1 JUMP JUMPDEST JUMPDEST DUP1 DUP3 GT ISZERO PUSH2 0x386 JUMPI PUSH1 0x0 DUP2 PUSH1 0x0 SWAP1 SSTORE POP PUSH1 0x1 ADD PUSH2 0x36E JUMP JUMPDEST POP SWAP1 JUMP JUMPDEST PUSH1 0x0 PUSH2 0x39D PUSH2 0x398 DUP5 PUSH2 0x5C5 JUMP JUMPDEST PUSH2 0x5A0 JUMP JUMPDEST SWAP1 POP DUP3 DUP2 MSTORE PUSH1 0x20 DUP2 ADD DUP5 DUP5 DUP5 ADD GT ISZERO PUSH2 0x3B9 JUMPI PUSH2 0x3B8 PUSH2 0x730 JUMP JUMPDEST JUMPDEST PUSH2 0x3C4 DUP5 DUP3 DUP6 PUSH2 0x628 JUMP JUMPDEST POP SWAP4 SWAP3 POP POP POP JUMP JUMPDEST PUSH1 0x0 DUP3 PUSH1 0x1F DUP4 ADD SLT PUSH2 0x3E1 JUMPI PUSH2 0x3E0 PUSH2 0x72B JUMP JUMPDEST JUMPDEST DUP2 CALLDATALOAD PUSH2 0x3F1 DUP5 DUP3 PUSH1 0x20 DUP7 ADD PUSH2 0x38A JUMP JUMPDEST SWAP2 POP POP SWAP3 SWAP2 POP POP JUMP JUMPDEST PUSH1 0x0 DUP2 CALLDATALOAD SWAP1 POP PUSH2 0x409 DUP2 PUSH2 0x750 JUMP JUMPDEST SWAP3 SWAP2 POP POP JUMP JUMPDEST PUSH1 0x0 DUP1 PUSH1 0x0 DUP1 PUSH1 0x80 DUP6 DUP8 SUB SLT ISZERO PUSH2 0x429 JUMPI PUSH2 0x428 PUSH2 0x73A JUMP JUMPDEST JUMPDEST PUSH1 0x0 DUP6 ADD CALLDATALOAD PUSH8 0xFFFFFFFFFFFFFFFF DUP2 GT ISZERO PUSH2 0x447 JUMPI PUSH2 0x446 PUSH2 0x735 JUMP JUMPDEST JUMPDEST PUSH2 0x453 DUP8 DUP3 DUP9 ADD PUSH2 0x3CC JUMP JUMPDEST SWAP5 POP POP PUSH1 0x20 DUP6 ADD CALLDATALOAD PUSH8 0xFFFFFFFFFFFFFFFF DUP2 GT ISZERO PUSH2 0x474 JUMPI PUSH2 0x473 PUSH2 0x735 JUMP JUMPDEST JUMPDEST PUSH2 0x480 DUP8 DUP3 DUP9 ADD PUSH2 0x3CC JUMP JUMPDEST SWAP4 POP POP PUSH1 0x40 PUSH2 0x491 DUP8 DUP3 DUP9 ADD PUSH2 0x3FA JUMP JUMPDEST SWAP3 POP POP PUSH1 0x60 PUSH2 0x4A2 DUP8 DUP3 DUP9 ADD PUSH2 0x3FA JUMP JUMPDEST SWAP2 POP POP SWAP3 SWAP6 SWAP2 SWAP5 POP SWAP3 POP JUMP JUMPDEST PUSH1 0x0 PUSH1 0x20 DUP3 DUP5 SUB SLT ISZERO PUSH2 0x4C4 JUMPI PUSH2 0x4C3 PUSH2 0x73A JUMP JUMPDEST JUMPDEST PUSH1 0x0 PUSH2 0x4D2 DUP5 DUP3 DUP6 ADD PUSH2 0x3FA JUMP JUMPDEST SWAP2 POP POP SWAP3 SWAP2 POP POP JUMP JUMPDEST PUSH2 0x4E4 DUP2 PUSH2 0x612 JUMP JUMPDEST DUP3 MSTORE POP POP JUMP JUMPDEST PUSH1 0x0 PUSH2 0x4F5 DUP3 PUSH2 0x5F6 JUMP JUMPDEST PUSH2 0x4FF DUP2 DUP6 PUSH2 0x601 JUMP JUMPDEST SWAP4 POP PUSH2 0x50F DUP2 DUP6 PUSH1 0x20 DUP7 ADD PUSH2 0x637 JUMP JUMPDEST PUSH2 0x518 DUP2 PUSH2 0x73F JUMP JUMPDEST DUP5 ADD SWAP2 POP POP SWAP3 SWAP2 POP POP JUMP JUMPDEST PUSH2 0x52C DUP2 PUSH2 0x61E JUMP JUMPDEST DUP3 MSTORE POP POP JUMP JUMPDEST PUSH1 0x0 PUSH1 0x20 DUP3 ADD SWAP1 POP PUSH2 0x547 PUSH1 0x0 DUP4 ADD DUP5 PUSH2 0x4DB JUMP JUMPDEST SWAP3 SWAP2 POP POP JUMP JUMPDEST PUSH1 0x0 PUSH1 0x80 DUP3 ADD SWAP1 POP DUP2 DUP2 SUB PUSH1 0x0 DUP4 ADD MSTORE PUSH2 0x567 DUP2 DUP8 PUSH2 0x4EA JUMP JUMPDEST SWAP1 POP DUP2 DUP2 SUB PUSH1 0x20 DUP4 ADD MSTORE PUSH2 0x57B DUP2 DUP7 PUSH2 0x4EA JUMP JUMPDEST SWAP1 POP PUSH2 0x58A PUSH1 0x40 DUP4 ADD DUP6 PUSH2 0x523 JUMP JUMPDEST PUSH2 0x597 PUSH1 0x60 DUP4 ADD DUP5 PUSH2 0x4DB JUMP JUMPDEST SWAP6 SWAP5 POP POP POP POP POP JUMP JUMPDEST PUSH1 0x0 PUSH2 0x5AA PUSH2 0x5BB JUMP JUMPDEST SWAP1 POP PUSH2 0x5B6 DUP3 DUP3 PUSH2 0x69C JUMP JUMPDEST SWAP2 SWAP1 POP JUMP JUMPDEST PUSH1 0x0 PUSH1 0x40 MLOAD SWAP1 POP SWAP1 JUMP JUMPDEST PUSH1 0x0 PUSH8 0xFFFFFFFFFFFFFFFF DUP3 GT ISZERO PUSH2 0x5E0 JUMPI PUSH2 0x5DF PUSH2 0x6FC JUMP JUMPDEST JUMPDEST PUSH2 0x5E9 DUP3 PUSH2 0x73F JUMP JUMPDEST SWAP1 POP PUSH1 0x20 DUP2 ADD SWAP1 POP SWAP2 SWAP1 POP JUMP JUMPDEST PUSH1 0x0 DUP2 MLOAD SWAP1 POP SWAP2 SWAP1 POP JUMP JUMPDEST PUSH1 0x0 DUP3 DUP3 MSTORE PUSH1 0x20 DUP3 ADD SWAP1 POP SWAP3 SWAP2 POP POP JUMP JUMPDEST PUSH1 0x0 DUP2 ISZERO ISZERO SWAP1 POP SWAP2 SWAP1 POP JUMP JUMPDEST PUSH1 0x0 DUP2 SWAP1 POP SWAP2 SWAP1 POP JUMP JUMPDEST DUP3 DUP2 DUP4 CALLDATACOPY PUSH1 0x0 DUP4 DUP4 ADD MSTORE POP POP POP JUMP JUMPDEST PUSH1 0x0 JUMPDEST DUP4 DUP2 LT ISZERO PUSH2 0x655 JUMPI DUP1 DUP3 ADD MLOAD DUP2 DUP5 ADD MSTORE PUSH1 0x20 DUP2 ADD SWAP1 POP PUSH2 0x63A JUMP JUMPDEST DUP4 DUP2 GT ISZERO PUSH2 0x664 JUMPI PUSH1 0x0 DUP5 DUP5 ADD MSTORE JUMPDEST POP POP POP POP JUMP JUMPDEST PUSH1 0x0 PUSH1 0x2 DUP3 DIV SWAP1 POP PUSH1 0x1 DUP3 AND DUP1 PUSH2 0x682 JUMPI PUSH1 0x7F DUP3 AND SWAP2 POP JUMPDEST PUSH1 0x20 DUP3 LT DUP2 EQ ISZERO PUSH2 0x696 JUMPI PUSH2 0x695 PUSH2 0x6CD JUMP JUMPDEST JUMPDEST POP SWAP2 SWAP1 POP JUMP JUMPDEST PUSH2 0x6A5 DUP3 PUSH2 0x73F JUMP JUMPDEST DUP2 ADD DUP2 DUP2 LT PUSH8 0xFFFFFFFFFFFFFFFF DUP3 GT OR ISZERO PUSH2 0x6C4 JUMPI PUSH2 0x6C3 PUSH2 0x6FC JUMP JUMPDEST JUMPDEST DUP1 PUSH1 0x40 MSTORE POP POP POP JUMP JUMPDEST PUSH32 0x4E487B7100000000000000000000000000000000000000000000000000000000 PUSH1 0x0 MSTORE PUSH1 0x22 PUSH1 0x4 MSTORE PUSH1 0x24 PUSH1 0x0 REVERT JUMPDEST PUSH32 0x4E487B7100000000000000000000000000000000000000000000000000000000 PUSH1 0x0 MSTORE PUSH1 0x41 PUSH1 0x4 MSTORE PUSH1 0x24 PUSH1 0x0 REVERT JUMPDEST PUSH1 0x0 DUP1 REVERT JUMPDEST PUSH1 0x0 DUP1 REVERT JUMPDEST PUSH1 0x0 DUP1 REVERT JUMPDEST PUSH1 0x0 DUP1 REVERT JUMPDEST PUSH1 0x0 PUSH1 0x1F NOT PUSH1 0x1F DUP4 ADD AND SWAP1 POP SWAP2 SWAP1 POP JUMP JUMPDEST PUSH2 0x759 DUP2 PUSH2 0x61E JUMP JUMPDEST DUP2 EQ PUSH2 0x764 JUMPI PUSH1 0x0 DUP1 REVERT JUMPDEST POP JUMP INVALID LOG2 PUSH5 0x6970667358 0x22 SLT KECCAK256 SWAP11 0x26 LOG2 CALLER 0xB0 0x4D DUP8 0xAE 0xEF 0xCA DIFFICULTY 0xAD EXP 0xED DUP10 CREATE PUSH3 0xC2350F BASEFEE DUP14 DUP1 PUSH9 0xD497EC81C1764D64 PUSH20 0x6F6C634300080700330000000000000000000000 "
				},
				"gasEstimates": {
					"creation": {
						"codeDepositCost": "389800",
						"executionCost": "424",
						"totalCost": "390224"
					},
					"external": {
						"alumnos(uint256)": "infinite",
						"cosultarCertificado(uint256)": "2850",
						"guardarCertificado(string,string,uint256,uint256)": "infinite"
					}
				},
				"methodIdentifiers": {
					"alumnos(uint256)": "69ddcade",
					"cosultarCertificado(uint256)": "eb620cb2",
					"guardarCertificado(string,string,uint256,uint256)": "792c3b11"
				}
			},
			"storageLayout": {
				"storage": [
					{
						"astId": 15,
						"contract": "AsistenciaClase.sol:CertificadoAsistencia",
						"label": "alumnos",
						"offset": 0,
						"slot": "0",
						"type": "t_mapping(t_uint256,t_struct(Alumno)10_storage)"
					}
				],
				"types": {
					"t_bool": {
						"encoding": "inplace",
						"label": "bool",
						"numberOfBytes": "1"
					},
					"t_mapping(t_uint256,t_struct(Alumno)10_storage)": {
						"encoding": "mapping",
						"key": "t_uint256",
						"label": "mapping(uint256 => struct CertificadoAsistencia.Alumno)",
						"numberOfBytes": "32",
						"value": "t_struct(Alumno)10_storage"
					},
					"t_string_storage": {
						"encoding": "bytes",
						"label": "string",
						"numberOfBytes": "32"
					},
					"t_struct(Alumno)10_storage": {
						"encoding": "inplace",
						"label": "struct CertificadoAsistencia.Alumno",
						"members": [
							{
								"astId": 3,
								"contract": "AsistenciaClase.sol:CertificadoAsistencia",
								"label": "nombreEst",
								"offset": 0,
								"slot": "0",
								"type": "t_string_storage"
							},
							{
								"astId": 5,
								"contract": "AsistenciaClase.sol:CertificadoAsistencia",
								"label": "nombreCls",
								"offset": 0,
								"slot": "1",
								"type": "t_string_storage"
							},
							{
								"astId": 7,
								"contract": "AsistenciaClase.sol:CertificadoAsistencia",
								"label": "fechaParticipacion",
								"offset": 0,
								"slot": "2",
								"type": "t_uint256"
							},
							{
								"astId": 9,
								"contract": "AsistenciaClase.sol:CertificadoAsistencia",
								"label": "asistio",
								"offset": 0,
								"slot": "3",
								"type": "t_bool"
							}
						],
						"numberOfBytes": "128"
					},
					"t_uint256": {
						"encoding": "inplace",
						"label": "uint256",
						"numberOfBytes": "32"
					}
				}
			},
			"userdoc": {
				"kind": "user",
				"methods": {},
				"version": 1
			}
		}
	}
}